:020000040800F2
:1000000000000320EDD50008D5A70008E5A70008EB
:1000100001A8000807A800080DA8000800000000BB
:10002000000000000000000000000000A1CE000859
:1000300013A8000800000000C1D0000821A8000893
:100040003DD600083DD600083DD600083DD6000844
:100050003DD600083DD600083DD600083DD6000834
:100060003DD600083DD600083DD600083DD6000824
:100070003DD600083DD600083DD600083DD6000814
:100080003DD600083DD600083DD600083DD6000804
:100090003DD600083DD600083DD600083DD60008F4
:1000A0003DD600087DA800083DD600083DD60008D2
:1000B0003DD600083DD600083DD600083DD60008D4
:1000C0003DD600083DD600083DD600083DD60008C4
:1000D0003DD6000841A800083DD600083DD60008DE
:1000E0003DD600083DD600083DD600083DD60008A4
:1000F0003DD600083DD600083DD600083DD6000894
:100100003DD600082DA800083DD600083DD60008C1
:1001100055A800083DD600083DD600083DD6000889
:100120003DD600083DD600083DD6000891A800083D
:100130003DD600083DD600083DD600083DD6000853
:100140003DD600083DD600083DD600083DD6000843
:100150003DD60008A5A800083DD6000869A80008FB
:100160003DD600083DD600083DD600083DD6000823
:100170003DD600083DD600083DD60008000000002E
:100180003DD600083DD600083DD600083DD6000803
:100190003DD600083DD600083DD600083DD60008F3
:0C01A00000000000000000003DD6000838
:1001B00010B5054C237833B9044B13B10448AFF3A1
:1001C00000800123237010BDEC010020000000001E
:1001D0008005010808B5034B1BB103490348AFF381
:1001E000008008BD00000000F0010020800501082B
:1001F000034613F8012B002AFBD1181A0138704767
:1002000001F0FF01102A2BDB10F0070F08D010F8C7
:10021000013B013A8B422DD010F0070F42B3F6D1CB
:10022000F0B441EA012141EA014122F007047FF0E4
:1002300000070023F0E80256083C85EA010586EA3B
:10024000010685FA47F5A3FA87F586FA47F6A5FA77
:1002500087F68EB9EED1F0BC01F0FF0102F0070283
:1002600032B110F8013B013A83EA010313B1F8D12E
:100270000020704701387047002D06BF354603380F
:10028000073815F0010F07D1013015F4807F02BF48
:10029000013015F4C03F0130F0BC0138704700BF99
:1002A00081F0004102E000BF83F0004330B54FEA27
:1002B00041044FEA430594EA050F08BF90EA020F94
:1002C0001FBF54EA000C55EA020C7FEA645C7FEA27
:1002D000655C00F0E2804FEA5454D4EB5555B8BF4A
:1002E0006D420CDD2C4480EA020281EA030382EABB
:1002F000000083EA010180EA020281EA0303362D4D
:1003000088BF30BD11F0004F4FEA01314FF4801C1F
:100310004CEA113102D0404261EB410113F0004F31
:100320004FEA03334CEA133302D0524263EB4303E8
:1003300094EA050F00F0A780A4F10104D5F1200E86
:100340000DDB02FA0EFC22FA05F2801841F10001E1
:1003500003FA0EF2801843FA05F359410EE0A5F1B5
:1003600020050EF1200E012A03FA0EFC28BF4CF0E6
:10037000020C43FA05F3C01851EBE37101F000459C
:1003800007D54FF0000EDCF1000C7EEB00006EEBA9
:100390000101B1F5801F1BD3B1F5001F0CD3490833
:1003A0005FEA30004FEA3C0C04F101044FEA44528A
:1003B00012F5800F80F09A80BCF1004F08BF5FEA11
:1003C000500C50F1000041EB045141EA050130BDF1
:1003D0005FEA4C0C404141EB0101013C28BFB1F503
:1003E000801FE9D291F0000F04BF01460020B1FA4E
:1003F00081F308BF2033A3F10B03B3F120020CDA21
:100400000C3208DD02F1140CC2F10C0201FA0CF0FE
:1004100021FA02F10CE002F11402D8BFC2F1200C63
:1004200001FA02F120FA0CFCDCBF41EA0C01904019
:10043000E41AA2BF01EB0451294330BD6FEA040462
:100440001F3C1CDA0C340EDC04F11404C4F120024D
:1004500020FA04F001FA02F340EA030021FA04F35F
:1004600045EA030130BDC4F10C04C4F1200220FAB6
:1004700002F001FA04F340EA0300294630BD21FAF4
:1004800004F0294630BD94F0000F83F4801306BFBA
:1004900081F480110134013D4EE77FEA645C18BFAE
:1004A0007FEA655C29D094EA050F08BF90EA020F45
:1004B00005D054EA000C04BF1946104630BD91EA3D
:1004C000030F1EBF0021002030BD5FEA545C05D140
:1004D0004000494128BF41F0004130BD14F580047F
:1004E0003CBF01F5801130BD01F0004545F0FE41F3
:1004F00041F470014FF0000030BD7FEA645C1ABF28
:10050000194610467FEA655C1CBF0B46024650EA5E
:10051000013406BF52EA033591EA030F41F400218A
:1005200030BD00BF90F0000F04BF0021704730B510
:100530004FF4806404F132044FF000054FF00001E5
:1005400050E700BF90F0000F04BF0021704730B5A6
:100550004FF4806404F1320410F0004548BF40427B
:100560004FF000013EE700BF42004FEAE2014FEAD0
:1005700031014FEA02701FBF12F07F4393F07F4FAB
:1005800081F06051704732F07F4208BF704793F0AE
:100590007F4F04BF41F40021704730B54FF46074C1
:1005A00001F0004521F000411CE700BF50EA0102C4
:1005B00008BF704730B54FF000050AE050EA01026D
:1005C00008BF704730B511F0004502D5404261EBDD
:1005D00041014FF4806404F132045FEA915C3FF41E
:1005E000D8AE4FF003025FEADC0C18BF03325FEABB
:1005F000DC0C18BF033202EBDC02C2F1200300FA6C
:1006000003FC20FA02F001FA03FE40EA0E0021FA90
:1006100002F11444BDE600BF70B54FF0FF0C4CF47E
:10062000E06C1CEA11541DBF1CEA135594EA0C0F30
:1006300095EA0C0F00F0DEF82C4481EA030621EA6B
:100640004C5123EA4C5350EA013518BF52EA0335A6
:1006500041F4801143F4801338D0A0FB02CE4FF058
:100660000005E1FB02E506F00042E0FB03E54FF088
:100670000006E1FB03569CF0000F18BF4EF0010E80
:10068000A4F1FF04B6F5007F64F5407404D25FEA7C
:100690004E0E6D4146EB060642EAC62141EA55512F
:1006A0004FEAC52040EA5E504FEACE2EB4F1FD0C71
:1006B00088BFBCF5E06F1ED8BEF1004F08BF5FEAEF
:1006C000500E50F1000041EB045170BD06F00046A1
:1006D00046EA010140EA020081EA0301B4EB5C044E
:1006E000C2BFD4EB0C0541EA045170BD41F4801146
:1006F0004FF0000E013C00F3AB8014F1360FDEBF6B
:10070000002001F0004170BDC4F10004203C35DA46
:100710000C341BDC04F11404C4F1200500FA05F3C9
:1007200020FA04F001FA05F240EA020001F000426A
:1007300021F0004110EBD37021FA04F642EB0601E0
:100740005EEA430E08BF20EAD37070BDC4F10C040A
:10075000C4F1200500FA04F320FA05F001FA04F2CE
:1007600040EA020001F0004110EBD37041F10001BA
:100770005EEA430E08BF20EAD37070BDC4F12005C5
:1007800000FA05F24EEA020E20FA04F301FA05F22D
:1007900043EA020321FA04F001F0004121FA04F2D5
:1007A00020EA020000EBD3705EEA430E08BF20EAA5
:1007B000D37070BD94F0000F0FD101F000464000DF
:1007C00041EB010111F4801F08BF013CF7D041EA61
:1007D000060195F0000F18BF704703F00046520065
:1007E00043EB030313F4801F08BF013DF7D043EA36
:1007F0000603704794EA0C0F0CEA135518BF95EAEC
:100800000C0F0CD050EA410618BF52EA4306D1D172
:1008100081EA030101F000414FF0000070BD50EA91
:10082000410606BF1046194652EA430619D094EA1B
:100830000C0F02D150EA013613D195EA0C0F05D105
:1008400052EA03361CBF104619460AD181EA030159
:1008500001F0004141F0FE4141F470014FF0000011
:1008600070BD41F0FE4141F4780170BD70B54FF0AC
:10087000FF0C4CF4E06C1CEA11541DBF1CEA13552C
:1008800094EA0C0F95EA0C0F00F0A7F8A4EB05040E
:1008900081EA030E52EA03354FEA013100F0888005
:1008A0004FEA03334FF0805545EA131343EA1263CE
:1008B0004FEA022245EA111545EA10654FEA002683
:1008C0000EF000419D4208BF964244F1FD0404F53C
:1008D000407402D25B084FEA3202B61A65EB030598
:1008E0005B084FEA32024FF480104FF4002CB6EB55
:1008F000020E75EB030E22BFB61A754640EA0C00D5
:100900005B084FEA3202B6EB020E75EB030E22BF14
:10091000B61A754640EA5C005B084FEA3202B6EB55
:10092000020E75EB030E22BFB61A754640EA9C0014
:100930005B084FEA3202B6EB020E75EB030E22BFE4
:10094000B61A754640EADC0055EA060E18D04FEAA2
:10095000051545EA16754FEA06164FEAC30343EA42
:1009600052734FEAC2025FEA1C1CC0D111F4801F0F
:100970000BD141EA00014FF000004FF0004CB6E708
:1009800011F4801F04BF01430020B4F1FD0C88BFA7
:10099000BCF5E06F3FF6AFAEB5EB030C04BFB6EBB2
:1009A000020C5FEA500C50F1000041EB045170BDA5
:1009B0000EF0004E4EEA113114EB5C04C2BFD4EBD2
:1009C0000C0541EA045170BD41F480114FF0000E56
:1009D000013C90E645EA060E8DE60CEA135594EAD2
:1009E0000C0F08BF95EA0C0F3FF43BAF94EA0C0FD5
:1009F0000AD150EA01347FF434AF95EA0C0F7FF44A
:100A000025AF104619462CE795EA0C0F06D152EA9D
:100A100003353FF4FDAE1046194622E750EA410681
:100A200018BF52EA43067FF4C5AE50EA41047FF492
:100A30000DAF52EA43057FF4EBAE12E74FF0FF3CF7
:100A400006E000BF4FF0010C02E000BF4FF0010CC8
:100A50004DF804CD4FEA410C7FEA6C5C4FEA430C41
:100A600018BF7FEA6C5C1BD001B050EA410C0CBF90
:100A700052EA430C91EA030F02BF90EA020F0020F2
:100A8000704710F1000F91EA030F58BF994208BF59
:100A900090422CBFD8176FEAE37040F00100704716
:100AA0004FEA410C7FEA6C5C02D150EA013C07D16D
:100AB0004FEA430C7FEA6C5CD6D152EA033CD3D0B8
:100AC0005DF8040B704700BF8446104662468C46B2
:100AD0001946634600E000BF01B5FFF7B7FF0028E5
:100AE00048BF10F1000F01BD4DF808EDFFF7F4FF0E
:100AF0000CBF012000205DF808FB00BF4DF808ED99
:100B0000FFF7EAFF34BF012000205DF808FB00BFBB
:100B10004DF808EDFFF7E0FF94BF012000205DF8DD
:100B200008FB00BF4DF808EDFFF7CEFF94BF012092
:100B300000205DF808FB00BF4DF808EDFFF7C4FF8B
:100B400034BF012000205DF808FB00BF4FEA410CD4
:100B50007FEA6C5C02D150EA013C0AD14FEA430CB7
:100B60007FEA6C5C02D152EA033C02D14FF00000F4
:100B700070474FF0010070474FEA410212F5001232
:100B800015D211D56FF47873B3EB625212D94FEAD4
:100B9000C12343F0004343EA505311F0004F23FABE
:100BA00002F018BF404270474FF00000704750EA13
:100BB000013005D111F0004008BF6FF000407047D0
:100BC0004FF00000704700BF4FEA4102B2F1E0432E
:100BD00024BFB3F5001CDCF1FE5C0DD901F0004C24
:100BE0004FEAC0024CEA5070B2F1004F40EB830074
:100BF00008BF20F00100704711F0804F21D113F1A0
:100C00003872BCBF01F00040704741F480114FEAD8
:100C10005252C2F11802C2F1200C10FA0CF320FA61
:100C200002F018BF40F001004FEAC1234FEAD3237E
:100C300003FA0CFC40EA0C0023FA02F34FEA4303E8
:100C4000CCE77FEA625307D150EA01331EBF4FF071
:100C5000FE4040F44000704701F0004040F0FE408C
:100C600040F40000704700BFB0B596B000AF7860A8
:100C7000B84802F095FF4FF4FA71052002F0F6FF34
:100C800000233B6507F15003184609F022FF034695
:100C9000B14A13600023FB6407F14C03184609F0C6
:100CA00018FF0346AD4A13600023BB6407F14803F5
:100CB000184609F00EFF0346A94A136000237B641F
:100CC00007F14403184609F004FF0346A54A1360E0
:100CD00000233B6407F14003184609F0FAFE03467F
:100CE000A14A13600023FB6307F13C03184609F097
:100CF000F0FE03469D4A13600023BB6307F13803EF
:100D0000184609F0E6FE0346994A1360002387F867
:100D1000573001F09FF9034687F85730954802F0A5
:100D20003FFF97F85730002B03D0934802F038FF6D
:100D300002E0924802F034FF4FF4FA6009F0B5FE89
:100D40008F4802F02DFF01F061F9034687F8573014
:100D500097F85730002B03D08A4802F021FF02E0B9
:100D6000894802F01DFF894802F01AFF01F03CF9A2
:100D700097F85730002B03D0854802F011FF02E0AE
:100D8000844802F00DFF844802F00AFF834802F015
:100D900007FF834B07F120041D460FCD0FC495E8D4
:100DA00003002060043421807E4802F0F9FE142004
:100DB00002F0A0FB034687F8573097F85730002B16
:100DC00003D0794802F0ECFE02E0784802F0E8FE39
:100DD0004FF4FA7009F069FE754802F0E1FE07F180
:100DE00020031521184602F0C9FB034687F8573047
:100DF00097F85730002B03D06E4802F0D1FE08E080
:100E00006D4802F0CDFE07F1200319466B4802F051
:100E1000C7FE4FF47A7009F048FE694802F0C0FE40
:100E200002F0BAFA034687F8573097F85730002B8C
:100E300003D0644802F0B4FE02E0634802F0B0FE62
:100E400042F2107009F031FE604802F0A9FE02F093
:100E5000FDFA034687F857305D4802F0A1FE4FF4D3
:100E60007A7009F022FE5B4802F09AFE032002F03D
:100E7000A5FC034687F85730574802F091FE4FF41F
:100E80007A7009F012FE554A07F1180392E8030040
:100E9000186004331980524802F082FE07F11803EB
:100EA000184602F00DFC034687F857304D4802F013
:100EB00077FE4FF47A7009F0F8FD4B4A07F1100302
:100EC00092E8030018600433198002330A0C1A7088
:100ED000464802F065FE07F11003184602F02FFCA9
:100EE000034687F85730424802F05AFE4FF47A70B2
:100EF00009F0DBFD3F4802F053FE07F10C031846F2
:100F000002F0CEFCFB681846FFF72EFB02460B46AC
:100F1000394802F045FE394802F042FE32210A20EB
:100F200002F0A4FE32210A2002F0CAFE344B5B69B3
:100F3000334A43F010035361962009F0B6FD304B5D
:100F40005B692F4A23F010035361962009F0ADFD31
:100F5000ECE700BF9C050108280200202C020020BD
:100F60003002002034020020380200203C02002021
:100F700040020020B8050108D8050108F005010865
:100F8000080601082C060108480601086406010845
:100F90008C060108AC060108CC060108F40601081D
:100FA0003809010818070108400701085807010817
:100FB000780701089C070108B4070108D807010851
:100FC000DC070108FC070108100801082C080108CB
:100FD0005008010868080108800801085009010844
:100FE00094080108B408010858090108D00801084C
:100FF000E8080108FC08010814090108180901089B
:101000000008024080B582B000AF7860034802F06B
:10101000C7FD42F2107009F048FDFAE760090108C7
:1010200080B582B000AF7860034802F0B9FD41F2AC
:10103000883009F03AFDFAE78409010880B584B0E8
:1010400000AF78601A4809F030FD1A4802F0A8FD98
:1010500000F082FF0346FB7300F090FF0346FB7332
:1010600000F095FF0346FB73134B1B684FF4FA71B6
:10107000184609F03BFD114B01221A700E4B1B68FC
:10108000184609F083FD0E4B5B690D4A43F01003CF
:1010900053614FF47A7009F008FD094B5B69084A07
:1010A00023F0100353614FF47A7009F0FEFCEAE775
:1010B000FF0FA5D4A0090108380200200C0200206F
:1010C0000008024080B592B000AF7860814809F016
:1010D000ECFC814802F064FD09F0B0FC0346FB60C3
:1010E00007F13603184600F0B3FDFB8E03F0200332
:1010F000002B0FD0794B1B684FF4FA71184609F09A
:10110000F5FC774A774B1A60744B1B68184609F058
:101110003DFD33E007F13C03184600F061FC07F1A8
:101120003803184600F02AFCD7ED0F7AB1EE047AA6
:1011300027EE877AD7ED0E7AF0EE086A67EEA67A88
:1011400077EE277AC7ED117A644B1B684FF4FA717A
:10115000184609F0CBFC634B93ED007AD7ED116A8A
:101160009FED616AC6EE867A77EE677A5D4BC3EDD6
:10117000007A5A4B1B68184609F008FDFB8E03F0F5
:101180004003002B72D007F13003184600F034FA08
:1011900007F12C03184600F061FA07F128031846FE
:1011A00000F08EFA07F12403184600F0BBFA07F1AD
:1011B0002003184600F0E8FA07F11C03184600F077
:1011C00015FB07F11803184600F042FB07F1140362
:1011D000184600F06FFB07F11003184600F09CFB67
:1011E00097ED0B7AD7ED0A7A37EE277AD7ED0C7A9E
:1011F00067EE277AC7ED107A97ED087AD7ED077A70
:1012000037EE277AD7ED097A67EE277A97ED107ACD
:1012100077EE277AC7ED107A97ED057AD7ED047A45
:1012200037EE277AD7ED067A67EE277A97ED107AB0
:1012300077EE277AC7ED107A284B1B684FF4FA71C6
:10124000184609F053FCD7ED107ADFED276A87EED8
:10125000A67A244BD3ED007A77EE277A214BC3EDA3
:10126000007A1E4B1B68184609F090FC1B4B1B684C
:101270004FF4FA71184609F039FC1C4B1B684FF407
:10128000FA71184609F032FC164BD3ED007AB0EE35
:10129000087AF4EEC77AF1EE10FA08D4114BD3EDC8
:1012A000007AB2EE007AF4EEC77AF1EE10FA0F4B44
:1012B0001B68184609F06AFC084B1B68184609F0C1
:1012C00065FC07F10C034FF47A71184609F09FFC96
:1012D00006E700BFFF0FA5D4BC09010834020020B7
:1012E0002E108F4100000020000061453C020020CC
:1012F00090B587B000AF786039603B685B783B732E
:101300003B689B787B733B68DB78BB73BB7B184681
:101310000CF0C0F903463B6138693B680433BA7B83
:1013200019460CF0C7F9BB7B04333A6813441B78A9
:101330003B757B681C4607F10C0393E8070084E8C3
:10134000070078681C37BD4690BD00002DE9F043CA
:1013500089B000AF3B1D83E807006B461E46BB7992
:10136000591D4B1E7B610A460023904699464FF05B
:1013700000024FF000034FEAC90343EA58734FEAF3
:10138000C8020A46002314461D464FF000024FF0E3
:101390000003EB0043EA5473E2000B460733DB081B
:1013A000DB00ADEB030D6B4600333B613B69FF2275
:1013B0001A703A793B695A707A793B699A70BA79AE
:1013C0003B69DA700023BB610AE0BA68BB691A4462
:1013D000BB69043311783A69D154BB690133BB61ED
:1013E000BB791A46BB699342EFDBBB790433397B87
:1013F0003A69D1540123FB773B790A2B0CD1BB7995
:101400009BB205339AB24FF47A7339690D4806F0EE
:10141000DEFE0346FB770EE03B79282B0BD1BB7930
:101420009BB205339AB24FF47A733969064806F0D5
:10143000CEFE0346FB77FB7FB54618462437BD46F4
:10144000BDE8F083BC060020FC06002080B489B013
:1014500000AF3B1D83E807000023BB613B791A46C0
:10146000BB691344BB617B791A46BB691344BB61FA
:10147000BB791A46BB691344BB610023FB610AE0D8
:10148000BA68FB6913441B781A46BB691344BB61F5
:10149000FB690133FB61BB791A46FB699342EFDBC1
:1014A000BB69FB75FB7DDB43DBB218462437BD46C9
:1014B0005DF8047B704780B487B000AF3B1D83E8C4
:1014C000070000233B613B791A463B6913443B61AB
:1014D0007B791A463B6913443B61BB791A463B69E9
:1014E00013443B6100237B610AE0BA687B691344C3
:1014F0001B781A463B6913443B617B6901337B616E
:10150000BB791A467B699342EFDB3B7B1A463B690A
:1015100013443B613B69DBB2FF2B01D1012300E0A7
:10152000002318461C37BD465DF8047B7047000059
:1015300080B584B000AF78600123FB730123BB73D7
:1015400007F10802BB7B1146184600F0DDFD03469B
:10155000FB73FB7B002B01D0FB7B14E03B7A9BB23F
:101560001B029AB27B7A9BB21344BB81BB8907EE04
:10157000903AF8EE677A9FED067A67EE877A7B6895
:10158000C3ED007AFB7B18461037BD4680BD00BF17
:10159000EB51193B80B584B000AF78600123FB7339
:1015A0000223BB7307F10802BB7B1146184600F00B
:1015B000ABFD0346FB73FB7B002B01D0FB7B14E0F0
:1015C0003B7A9BB21B029AB27B7A9BB21344BB81DB
:1015D000BB8907EE903AF8EE677A9FED067A67EEE0
:1015E000877A7B68C3ED007AFB7B18461037BD46CF
:1015F00080BD00BF0000483B80B584B000AF78607C
:101600000123FB730523BB7307F10802BB7B114663
:10161000184600F079FD0346FB73FB7B002B01D0DD
:10162000FB7B14E03B7A9BB21B029AB27B7A9BB2A3
:101630001344BB81BB8907EE903AF8EE677A9FEDC1
:10164000067A67EE877A7B68C3ED007AFB7B1846E3
:101650001037BD4680BD00BF0000203B80B584B080
:1016600000AF78600123FB730623BB7307F1080208
:10167000BB7B1146184600F047FD0346FB73FB7B1E
:10168000002B01D0FB7B14E03B7A9BB21B029AB289
:101690007B7A9BB21344BB81BB8907EE903AF8EE8C
:1016A000677A9FED067A67EE877A7B68C3ED007AEA
:1016B000FB7B18461037BD4680BD00BF0100203AB5
:1016C00080B584B000AF78600123FB730723BB7340
:1016D00007F10802BB7B1146184600F015FD0346D2
:1016E000FB73FB7B002B01D0FB7B14E03B7A9BB2AE
:1016F0001B029AB27B7A9BB21344BB81BB8907EE73
:10170000903AF8EE677A9FED067A67EE877A7B6803
:10171000C3ED007AFB7B18461037BD4680BD00BF85
:101720000100203A80B584B000AF78600123FB73DC
:101730000823BB7307F10802BB7B1146184600F073
:10174000E3FC0346FB73FB7B002B01D0FB7B14E027
:101750003B7A9BB21B029AB27B7A9BB21344BB8149
:10176000BB8907EE903AF8EE677A9FED067A67EE4E
:10177000877A7B68C3ED007AFB7B18461037BD463D
:1017800080BD00BF0000203B80B584B000AF786012
:101790000123FB730923BB7307F10802BB7B1146CE
:1017A000184600F0B1FC0346FB73FB7B002B01D015
:1017B000FB7B14E03B7A9BB21B029AB27B7A9BB212
:1017C0001344BB81BB8907EE903AF8EE677A9FED30
:1017D000067A67EE877A7B68C3ED007AFB7B184652
:1017E0001037BD4680BD00BF0100203A80B584B0EF
:1017F00000AF78600123FB730A23BB7307F1080273
:10180000BB7B1146184600F07FFC0346FB73FB7B55
:10181000002B01D0FB7B14E03B7A9BB21B029AB2F7
:101820007B7A9BB21344BB81BB8907EE903AF8EEFA
:10183000677A9FED067A67EE877A7B68C3ED007A58
:10184000FB7B18461037BD4680BD00BF0100203A23
:1018500080B584B000AF78600123FB730B23BB73AA
:1018600007F10802BB7B1146184600F04DFC034609
:10187000FB73FB7B002B01D0FB7B14E03B7A9BB21C
:101880001B029AB27B7A9BB21344BB81BB8907EEE1
:10189000903AF8EE677A9FED067A67EE877A7B6872
:1018A000C3ED007AFB7B18461037BD4680BD00BFF4
:1018B0000000203B80B584B000AF78600123FB734B
:1018C0000C23BB7307F10802BB7B1146184600F0DE
:1018D0001BFC0346FB73FB7B002B01D0FB7B14E05E
:1018E0003B7A9BB21B029AB27B7A9BB21344BB81B8
:1018F000BB8907EE903AF8EE677A9FED067A67EEBD
:10190000877A7B68C3ED007AFB7B18461037BD46AB
:1019100080BD00BF0100203A80B584B000AF786080
:101920000123FB730D23BB7307F10802BB7B114638
:10193000184600F0E9FB0346FB73FB7B002B01D04C
:10194000FB7B14E03B7A9BB21B029AB27B7A9BB280
:101950001344BB81BB8907EE903AF8EE677A9FED9E
:10196000067A67EE877A7B68C3ED007AFB7B1846C0
:101970001037BD4680BD00BF0100203A80B584B05D
:1019800000AF78600123FB730E23BB7307F10802DD
:10199000BB7B1146184600F0B7FB0346FB73FB7B8D
:1019A000002B01D0FB7B14E03B7A9BB21B029AB266
:1019B0007B7A9BB21344BB81BB8907EE903AF8EE69
:1019C000677A9FED067A67EE877A7B68C3ED007AC7
:1019D000FB7B18461037BD4680BD00BF5555053B03
:1019E00080B584B000AF78600123FB730F23BB7315
:1019F00007F10802BB7B1146184600F085FB034641
:101A0000FB73FB7B002B01D0FB7B14E03B7A9BB28A
:101A10001B029AB27B7A9BB21344BB81BB8907EE4F
:101A2000903AF8EE677A9FED067A67EE877A7B68E0
:101A3000C3ED007AFB7B18461037BD4680BD00BF62
:101A40005555053B80B584B000AF78600123FB732A
:101A50001223BB7307F10802BB7B1146184600F046
:101A600053FB0346FB73FB7B002B01D0FB7B1CE08D
:101A70003B7A9BB21B029AB27B7A9BB21344BB8126
:101A8000BB8907EE903AF8EE677A9FED0A7A67EE27
:101A9000877A9FED097A37EEC77ADFED086AC7EEDD
:101AA000267A7B68C3ED007AFB7B18461037BD466B
:101AB00080BD00BF0100203A7F6A7C3F1EA7683BC3
:101AC00080B584B000AF78600123FB731323BB7330
:101AD00007F10802BB7B1146184600F015FB0346D0
:101AE000FB73FB7B002B01D0FB7B14E03B7A9BB2AA
:101AF0001B029AB27B7A9BB21344BB81BB8907EE6F
:101B0000903AF8EE677A9FED067A67EE877A7B68FF
:101B1000C3ED007AFB7B18461037BD4680BD00BF81
:101B20000000803B80B584B000AF78600123FB7378
:101B30001423BB7307F10802BB7B1146184600F063
:101B4000E3FA0346FB73FB7B002B01D0FB7B14E025
:101B50003B7A9BB21B029AB27B7A9BB21344BB8145
:101B6000BB8907EE903AF8EE677A9FED067A67EE4A
:101B7000877A7B68C3ED007AFB7B18461037BD4639
:101B800080BD00BF0000803B80B584B000AF7860AE
:101B90000123FB731523BB7307F10802BB7B1146BE
:101BA000184600F0B1FA0346FB73FB7B002B01D013
:101BB000FB7B14E03B7A9BB21B029AB27B7A9BB20E
:101BC0001344BB81BB8907EE903AF8EE677A9FED2C
:101BD000067A67EE877A7B68C3ED007AFB7B18464E
:101BE0001037BD4680BD00BF0000803B80B584B08B
:101BF00000AF78600123FB731623BB7307F1080263
:101C0000BB7B1146184600F07FFA0346FB73FB7B53
:101C1000002B01D0FB7B14E03B7A9BB21B029AB2F3
:101C20007B7A9BB21344BB81BB8907EE903AF8EEF6
:101C3000677A9FED067A67EE877A7B68C3ED007A54
:101C4000FB7B18461037BD4680BD00BF0000803BBF
:101C500080B584B000AF78600123FB731723BB739A
:101C600007F10C02BB7B1146184600F04DFA034603
:101C7000FB73FB7B002B01D0FB7B0AE03B7B9BB221
:101C80001B029AB27B7B9BB213449AB27B681A8088
:101C9000FB7B18461037BD4680BD80B584B000AFD1
:101CA00078600123FB731823BB7307F10C02BB7B25
:101CB0001146184600F028FA0346FB73FB7B002B05
:101CC00001D0FB7B0AE03B7B9BB21B029AB27B7B81
:101CD0009BB213449AB27B681A80FB7B184610377C
:101CE000BD4680BD80B584B000AF78600123FB7332
:101CF0001823BB7307F10C02BB7B1146184600F09A
:101D000003FA0346FB73FB7B002B01D0FB7B0AE04D
:101D10003B7B9BB21B029AB27B7B9BB213449AB271
:101D20007B681A80FB7B18461037BD4680BD80B5A6
:101D300084B000AF78600123FB731A23BB7307F1F3
:101D40000C02BB7B1146184600F0DEF90346FB731C
:101D5000FB7B002B01D0FB7B0AE03B7B9BB21B0291
:101D60009AB27B7B9BB213449AB27B681A80FB7B4E
:101D700018461037BD4680BD80B584B000AF78608E
:101D80000123FB731B23BB7307F10C02BB7B1146C2
:101D9000184600F0B9F90346FB73FB7B002B01D01A
:101DA000FB7B0AE03B7B9BB21B029AB27B7B9BB224
:101DB00013449AB27B681A80FB7B18461037BD46E5
:101DC00080BD80B584B000AF78600123FB731C2315
:101DD000BB7307F10C02BB7B1146184600F094F967
:101DE0000346FB73FB7B002B01D0FB7B0AE03B7BB4
:101DF0009BB21B029AB27B7B9BB213449AB27B6864
:101E00001A80FB7B18461037BD4680BD80B584B074
:101E100000AF78600123FB731D23BB7307F10C0235
:101E2000BB7B1146184600F06FF90346FB73FB7B42
:101E3000002B01D0FB7B0AE03B7B9BB21B029AB2DA
:101E40007B7B9BB213449AB27B681A80FB7B18465B
:101E50001037BD4680BD80B584B000AF78600123E7
:101E6000FB733023BB7307F10C02BB7B1146184692
:101E700000F04AF90346FB73FB7B002B01D0FB7B90
:101E80000AE03B7B9BB21B029AB27B7B9BB2134462
:101E90009AB27B681A80FB7B18461037BD4680BD1E
:101EA00080B584B000AF78600123FB732B23BB7334
:101EB00007F10C02BB7B1146184600F025F90346DA
:101EC000FB73FB7B002B01D0FB7B0AE03B7B9BB2CF
:101ED0001B029AB27B7B9BB213449AB27B681A8036
:101EE000FB7B18461037BD4680BD80B584B000AF7F
:101EF00078600123FB732C23BB7307F10C02BB7BBF
:101F00001146184600F000F90346FB73FB7B002BDB
:101F100001D0FB7B0AE03B7B9BB21B029AB27B7B2E
:101F20009BB213449AB27B681A80FB7B1846103729
:101F3000BD4680BD80B500AF0121012000F048F909
:101F40000346184680BD80B500AF0221012000F095
:101F50003FF90346184680BD80B500AF012104203B
:101F600000F036F90346184680BD80B500AF022167
:101F7000042000F02DF90346184680BD80B500AF5F
:101F80000021052000F024F90346184680BD80B5E5
:101F900000AF0021062000F01BF90346184680BD63
:101FA00080B500AF0121082000F012F90346184661
:101FB00080BD80B500AF0021082000F009F903467C
:101FC000184680BD80B500AF0121092000F000F95E
:101FD0000346184680BD80B500AF0021092000F0FF
:101FE000F7F80346184680BD80B500AF01210A20EE
:101FF00000F0EEF80346184680BD80B500AF002122
:102000000A2000F0E5F80346184680BD80B500AF11
:1020100001210B2000F0DCF80346184680BD80B596
:1020200000AF00210B2000F0D3F80346184680BD16
:1020300080B500AF01210C2000F0CAF80346184615
:1020400080BD80B500AF00210C2000F0C1F8034630
:10205000184680BD80B500AF01210E2000F0B8F811
:102060000346184680BD80B500AF00210E2000F069
:10207000AFF80346184680BD80B500AF01210F20A0
:1020800000F0A6F80346184680BD80B500AF0021D9
:102090000F2000F09DF80346184680BD80B500AFC4
:1020A0000121102000F094F80346184680BD80B549
:1020B00000AF0021102000F08BF80346184680BDC9
:1020C00080B500AF0121112000F082F803461846C8
:1020D00080BD80B500AF0021112000F079F80346E3
:1020E000184680BD80B500AF0121122000F070F8C5
:1020F0000346184680BD80B500AF0021122000F0D5
:1021000067F80346184680BD80B586B002AF034627
:102110003960FB712A4B1B6840F6C411184608F061
:10212000E5FC0123FB73FA1D642300930123302196
:10213000244802F01DFD0346FB73FB7B002B17D0E8
:10214000214B1B684FF4FA71184608F0CFFC1F4B67
:102150001B6801331D4A13601B4B1B68184608F0AF
:1021600015FD174B1B68184608F010FDFB7B23E09C
:102170006423009302233A683021124802F006FEDD
:102180000346FB73FB7B002B10D00F4B1B684FF4F7
:10219000FA71184608F0AAFC0C4B1B6801330B4A75
:1021A0001360094B1B68184608F0F0FC044B1B68D1
:1021B000184608F0EBFCFB7B18461037BD4680BD87
:1021C00028020020A0020020300200200802002087
:1021D00080B586B002AF03460A46FB711346BB7159
:1021E0001A4B1B6840F2DC51184608F07FFC0023B4
:1021F000FB73FB793B73BB797B7307F10C026423A0
:10220000009302233021124802F0B2FC0346FB7314
:10221000FB7B002B10D00F4B1B684FF4FA71184654
:1022200008F064FC0C4B1B6801330B4A1360094B2C
:102230001B68184608F0AAFC044B1B68184608F0F7
:10224000A5FCFB7B18461037BD4680BD2802002048
:10225000A0020020300200200802002080B584B0D7
:1022600000AF0A233B71FF237B710223BB71022065
:102270000BF010FA0346BB60BB68FF221A70BB6804
:102280000133FF221A703B1D93E80700FFF7DEF8C9
:1022900003463B733B1D93E80700FFF757F80346DF
:1022A00018461037BD4680BDF0B5B9B000AF3B1D34
:1022B00083E807003B79282B48DC0A2BC1F25C80BD
:1022C0000A3B1E2B01F2588001A252F823F000BFF6
:1022D0005723000879330008793300087933000860
:1022E000793300087933000879330008793300081E
:1022F00079330008793300087F3300087933000808
:1023000079330008793300087933000879330008FD
:1023100079330008793300087933000879330008ED
:102320005325000879330008793300087933000811
:1023300079330008793300087933000879330008CD
:1023400079330008793300087F3300085A2B01F0F5
:10235000188001F011B87B79013B0B2B01F213803F
:1023600001A252F823F000BF992300088733000828
:102370002B24000887330008BF2400088733000897
:10238000BF24000887330008BF240008BF240008CA
:1023900087330008BF240008D44B07F110041D4602
:1023A0000FCD0FC40FCD0FC40FCD0FC495E807009C
:1023B00003C422800A2387F8A830002387F8A930B5
:1023C0003A2387F8AA303A200BF064F90346C7F89D
:1023D000AC30D7F8AC3007F110049C4604F1300E55
:1023E000654626460FCE28606960AA60EB6010340F
:1023F0000CF1100C7445F3D16246234603CB1060F8
:1024000051601B88138107F1A80393E80700FFF7C9
:102410001DF8034687F8B03007F1A80393E80700DA
:10242000FEF794FF034600F0B2BF01F00FF8034639
:1024300087F8DF3097F8DF30002B03D04FF0FF3301
:1024400000F0A5BF97F8DF3007EE903AF8EE677A14
:10245000B0EE670A01F05EFC0346A7F8B6300A2327
:1024600087F8A830022387F8A930022387F8AA301A
:1024700002200BF00FF90346C7F8AC30B7F8B630BE
:102480001B0A9AB2D7F8AC30D2B21A70D7F8AC3077
:102490000133B7F8B620D2B21A7007F1A80393E857
:1024A0000700FEF7D3FF034687F8B03007F1A80313
:1024B00093E80700FEF74AFF034600F068BF00F00C
:1024C0006BFF034687F8DF3097F8DF30002B03D02F
:1024D0004FF0FF3300F05BBF97F8DF3007EE903A24
:1024E000F8EE677AB0EE670A01F014FC0346A7F82D
:1024F000B8300A2387F8A8300B2387F8A9300223C5
:1025000087F8AA3002200BF0C5F80346C7F8AC30B4
:10251000B7F8B8301B0A9AB2D7F8AC30D2B21A70FA
:10252000D7F8AC300133B7F8B820D2B21A7007F13F
:10253000A80393E80700FEF789FF034687F8B03049
:1025400007F1A80393E80700FEF700FF034600F039
:102550001EBF7B79013B102B00F2178701A252F8B6
:1025600023F000BFA92500088B3300088D26000842
:102570008B330008D92700088B3300082129000875
:102580008B330008692A00088B3300085F2B000892
:102590008B330008412D00088B3300087F2E000884
:1025A0008B3300080530000807F1A4031846FEF736
:1025B000BFFF034687F8DF3097F8DF30002B03D0EA
:1025C0004FF0FF3300F0E3BE07F1A0031846FEF71B
:1025D000E1FF034687F8DF3097F8DF30002B03D0A8
:1025E0004FF0FF3300F0D3BED7ED297AB0EE670A83
:1025F00001F090FB0346A7F8BC30D7ED287AB0EE87
:10260000670A01F087FB0346A7F8BA301E2387F854
:10261000A830002387F8A930042387F8AA300420C3
:102620000BF038F80346C7F8AC30B7F8BC301B0ADB
:102630009AB2D7F8AC30D2B21A70D7F8AC300133B6
:10264000B7F8BC20D2B21A70B7F8BA301B0A9AB2E7
:10265000D7F8AC300233D2B21A70D7F8AC300333AB
:10266000B7F8BA20D2B21A7007F1A80393E80700AE
:10267000FEF7ECFE034687F8B03007F1A80393E8B5
:102680000700FEF763FE034600F081BE07F19C03DE
:102690001846FEF7B1FF034687F8DF3097F8DF30C2
:1026A000002B03D04FF0FF3300F071BE07F1980309
:1026B0001846FEF7D3FF034687F8DF3097F8DF3080
:1026C000002B03D04FF0FF3300F061BE07F19403FD
:1026D0001846FEF7F5FF034687F8DF3097F8DF303E
:1026E000002B05D04FF0FF3300F051BEE409010884
:1026F000D7ED277AB0EE670A01F00CFB0346A7F886
:10270000C230D7ED267AB0EE670A01F003FB03462C
:10271000A7F8C030D7ED257AB0EE670A01F0FAFAD3
:102720000346A7F8BE301E2387F8A830022387F897
:10273000A930062387F8AA3006200AF0ABFF03462B
:10274000C7F8AC30B7F8C2301B0A9AB2D7F8AC3031
:10275000D2B21A70D7F8AC300133B7F8C220D2B277
:102760001A70B7F8C0301B0A9AB2D7F8AC300233EF
:10277000D2B21A70D7F8AC300333B7F8C020D2B257
:102780001A70B7F8BE301B0A9AB2D7F8AC300433CF
:10279000D2B21A70D7F8AC300533B7F8BE20D2B237
:1027A0001A7007F1A80393E80700FEF74FFE0346EF
:1027B00087F8B03007F1A80393E80700FEF7C6FDDD
:1027C000034687F8DF30D7F8AC3018460AF06AFFC6
:1027D00097F8DF3000F0DBBD07F190031846FEF7F5
:1027E000A1FF034687F8DF3097F8DF30002B03D0D6
:1027F0004FF0FF3300F0CBBD07F18C031846FEF716
:10280000C3FF034687F8DF3097F8DF30002B03D093
:102810004FF0FF3300F0BBBD07F188031846FEF709
:10282000E5FF034687F8DF3097F8DF30002B03D051
:102830004FF0FF3300F0ABBDD7ED247AB0EE670A5E
:1028400001F068FA0346A7F8C830D7ED237AB0EE56
:10285000670A01F05FFA0346A7F8C630D7ED227A7F
:10286000B0EE670A01F056FA0346A7F8C4301E23FB
:1028700087F8A830042387F8A930062387F8AA3000
:1028800006200AF007FF0346C7F8AC30B7F8C83097
:102890001B0A9AB2D7F8AC30D2B21A70D7F8AC3063
:1028A0000133B7F8C820D2B21A70B7F8C6301B0A85
:1028B0009AB2D7F8AC300233D2B21A70D7F8AC3033
:1028C0000333B7F8C620D2B21A70B7F8C4301B0A67
:1028D0009AB2D7F8AC300433D2B21A70D7F8AC3011
:1028E0000533B7F8C420D2B21A7007F1A80393E8F1
:1028F0000700FEF7ABFD034687F8B03007F1A803E9
:1029000093E80700FEF722FD034687F8DF30D7F88B
:10291000AC3018460AF0C6FE97F8DF3000F037BD3D
:1029200007F184031846FEF793FF034687F8DF306C
:1029300097F8DF30002B03D04FF0FF3300F027BDB6
:1029400007F180031846FEF7B5FF034687F8DF302E
:1029500097F8DF30002B03D04FF0FF3300F017BDA6
:1029600007F17C031846FEF7D7FF034687F8DF30F0
:1029700097F8DF30002B03D04FF0FF3300F007BD96
:10298000D7ED217AB0EE670A01F0C4F90346A7F843
:10299000CE30D7ED207AB0EE670A01F0BBF90346DE
:1029A000A7F8CC30D7ED1F7AB0EE670A01F0B2F984
:1029B0000346A7F8CA301E2387F8A830062387F8F5
:1029C000A930062387F8AA3006200AF063FE0346E2
:1029D000C7F8AC30B7F8CE301B0A9AB2D7F8AC3093
:1029E000D2B21A70D7F8AC300133B7F8CE20D2B2D9
:1029F0001A70B7F8CC301B0A9AB2D7F8AC30023351
:102A0000D2B21A70D7F8AC300333B7F8CC20D2B2B8
:102A10001A70B7F8CA301B0A9AB2D7F8AC30043330
:102A2000D2B21A70D7F8AC300533B7F8CA20D2B298
:102A30001A7007F1A80393E80700FEF707FD0346A5
:102A400087F8B03007F1A80393E80700FEF77EFC93
:102A5000034687F8DF30D7F8AC3018460AF022FE7C
:102A600097F8DF3000F093BC07F178031846FEF7C3
:102A700085FF034687F8DF3097F8DF30002B03D05F
:102A80004FF0FF3300F083BC07F174031846FEF7E4
:102A9000A7FF034687F8DF3097F8DF30002B03D01D
:102AA0004FF0FF3300F073BCD7ED1E7AB0EE670A2B
:102AB00001F030F90346A7F8D230D7ED1D7AB0EE19
:102AC000670A01F027F90346A7F8D0301E2387F8DC
:102AD000A830082387F8A930042387F8AA300420F7
:102AE0000AF0D8FD0346C7F8AC30B7F8D2301B0A5D
:102AF0009AB2D7F8AC30D2B21A70D7F8AC300133F2
:102B0000B7F8D220D2B21A70B7F8D0301B0A9AB2F6
:102B1000D7F8AC300233D2B21A70D7F8AC300333E6
:102B2000B7F8D020D2B21A7007F1A80393E80700D3
:102B3000FEF78CFC034687F8B03007F1A80393E852
:102B40000700FEF703FC034687F8DF30D7F8AC3008
:102B500018460AF0A7FD97F8DF3000F018BC07F11F
:102B600070031846FEF76EFF034687F8DF3097F8CC
:102B7000DF30002B03D04FF0FF3300F008BC07F12B
:102B80006C031846FEF79CFF034687F8DF3097F882
:102B9000DF30002B02D04FF0FF33F8E307F168037A
:102BA0001846FEF7BFFF034687F8DF3097F8DF309F
:102BB000002B02D04FF0FF33E9E307F1640318461E
:102BC000FEF7E2FF034687F8DF3097F8DF30002B8F
:102BD00002D04FF0FF33DAE307F160031846FFF746
:102BE00005F8034687F8DF3097F8DF30002B02D076
:102BF0004FF0FF33CBE3D7ED1C7AB0EE670A01F05C
:102C000089F80346A7F8DC30D7ED1B7AB0EE670AE7
:102C100001F080F80346A7F8DA30D7ED1A7AB0EE63
:102C2000670A01F077F80346A7F8D830D7ED197A8C
:102C3000B0EE670A01F06EF80346A7F8D630D7ED7C
:102C4000187AB0EE670A01F065F80346A7F8D430A9
:102C50001E2387F8A8300A2387F8A9300A2387F8AB
:102C6000AA300A200AF016FD0346C7F8AC30B7F8C0
:102C7000DC301B0A9AB2D7F8AC30D2B21A70D7F84F
:102C8000AC300133B7F8DC20D2B21A70B7F8DA30C2
:102C90001B0A9AB2D7F8AC300233D2B21A70D7F806
:102CA000AC300333B7F8DA20D2B21A70B7F8D830A4
:102CB0001B0A9AB2D7F8AC300433D2B21A70D7F8E4
:102CC000AC300533B7F8D820D2B21A70B7F8D63086
:102CD0001B0A9AB2D7F8AC300633D2B21A70D7F8C2
:102CE000AC300733B7F8D620D2B21A70B7F8D43068
:102CF0001B0A9AB2D7F8AC300833D2B21A70D7F8A0
:102D0000AC300933B7F8D420D2B21A7007F1A80357
:102D100093E80700FEF79AFB034687F8B03007F107
:102D2000A80393E80700FEF711FB034687F8DF309E
:102D3000D7F8AC3018460AF0B5FC97F8DF3026E338
:102D400007F15E031846FEF783FF034687F8DF307E
:102D500097F8DF30002B02D04FF0FF3317E307F175
:102D60005C031846FEF799FF034687F8DF3097F8B3
:102D7000DF30002B02D04FF0FF3308E307F15A0396
:102D80001846FEF7AFFF034687F8DF3097F8DF30CD
:102D9000002B02D04FF0FF33F9E207F15803184639
:102DA000FFF77EF8034687F8DF3097F8DF30002B17
:102DB00002D04FF0FF33EAE207F156031846FFF75F
:102DC00094F8034687F8DF3097F8DF30002B02D005
:102DD0004FF0FF33DBE21E2387F8A8300C2387F87F
:102DE000A930062387F8AA3006200AF053FC0346D0
:102DF000C7F8AC30B7F85E20D7F8AC30D2B21A7052
:102E0000B7F85C301B0A9AB2D7F8AC300133D2B2B3
:102E10001A70B7F85C20D7F8AC300233D2B21A700F
:102E2000B7F85A20D7F8AC300333D2B21A70B7F8DB
:102E30005820D7F8AC300433D2B21A70B7F8562005
:102E4000D7F8AC300533D2B21A7007F1A80393E873
:102E50000700FEF7FBFA034687F8B03007F1A80336
:102E600093E80700FEF772FA034687F8DF30D7F8D9
:102E7000AC3018460AF016FC97F8DF3087E207F10D
:102E800054031846FEF753FF034687F8DF3097F8E0
:102E9000DF30002B02D04FF0FF3378E207F152030E
:102EA0001846FEF769FF034687F8DF3097F8DF30F2
:102EB000002B02D04FF0FF3369E207F150031846B0
:102EC000FEF77FFF034687F8DF3097F8DF30002BEF
:102ED00002D04FF0FF335AE207F14E031846FEF7D7
:102EE00095FF034687F8DF3097F8DF30002B02D0DC
:102EF0004FF0FF334BE207F14C031846FEF7ABFFF0
:102F0000034687F8DF3097F8DF30002B02D04FF010
:102F1000FF333CE21E2387F8A8300E2387F8A93040
:102F20000A2387F8AA300A200AF0B4FB0346C7F840
:102F3000AC30B7F854301B0A9AB2D7F8AC30D2B2E2
:102F40001A70B7F85420D7F8AC300133D2B21A70E7
:102F5000B7F852301B0A9AB2D7F8AC300233D2B26B
:102F60001A70B7F85220D7F8AC300333D2B21A70C7
:102F7000B7F850301B0A9AB2D7F8AC300433D2B24B
:102F80001A70B7F85020D7F8AC300533D2B21A70A7
:102F9000B7F84E301B0A9AB2D7F8AC300633D2B22B
:102FA0001A70B7F84E20D7F8AC300733D2B21A7087
:102FB000B7F84C301B0A9AB2D7F8AC300833D2B20B
:102FC0001A70B7F84C20D7F8AC300933D2B21A7067
:102FD00007F1A80393E80700FEF738FA034687F8DD
:102FE000B03007F1A80393E80700FEF7AFF90346F6
:102FF00087F8DF30D7F8AC3018460AF053FB97F863
:10300000DF30C4E11E2387F8A830102387F8A930E9
:10301000012387F8AA3001200AF03CFB0346C7F8D9
:10302000AC303B1D93E80700FEF745FA0346002B42
:1030300004D1D7F8AC3000221A7083E1BB681B784A
:10304000013B0E2B00F27E8101A252F823F000BF5B
:103050008D3000084533000845330008C7300008AC
:1030600045330008013100083B3100087531000884
:10307000AF310008E9310008233200085D32000852
:1030800097320008D13200080B330008BB680133C7
:103090001B78002B06D1D7F8AC40FEF754FF03464F
:1030A00023704FE1BB6801331B78012B06D1D7F8A1
:1030B000AC40FEF73FFF0346237043E1D7F8AC3046
:1030C00000221A703EE1BB6801331B78002B06D149
:1030D000D7F8AC40FEF749FF0346237032E1BB68E6
:1030E00001331B78012B06D1D7F8AC40FEF734FF33
:1030F0000346237026E1D7F8AC3000221A7021E194
:10310000BB6801331B78002B06D1D7F8AC40FEF723
:1031100050FF0346237015E1BB6801331B78012B78
:1031200006D1D7F8AC40FEF73BFF0346237009E118
:10313000D7F8AC3000221A7004E1BB6801331B7869
:10314000002B06D1D7F8AC40FEF745FF03462370AD
:10315000F8E0BB6801331B78012B06D1D7F8AC40EF
:10316000FEF730FF03462370ECE0D7F8AC300022C6
:103170001A70E7E0BB6801331B78002B06D1D7F843
:10318000AC40FEF73AFF03462370DBE0BB68013337
:103190001B78012B06D1D7F8AC40FEF725FF03467C
:1031A0002370CFE0D7F8AC3000221A70CAE0BB68B9
:1031B00001331B78002B06D1D7F8AC40FEF72FFF68
:1031C00003462370BEE0BB6801331B78012B06D198
:1031D000D7F8AC40FEF71AFF03462370B2E0D7F8E9
:1031E000AC3000221A70ADE0BB6801331B78002BB5
:1031F00006D1D7F8AC40FEF724FF03462370A1E0C8
:10320000BB6801331B78012B06D1D7F8AC40FEF721
:103210000FFF0346237095E0D7F8AC3000221A70F8
:1032200090E0BB6801331B78002B06D1D7F8AC4087
:10323000FEF719FF0346237084E0BB6801331B7857
:10324000012B06D1D7F8AC40FEF704FF03462370EC
:1032500078E0D7F8AC3000221A7073E0BB68013315
:103260001B78002B06D1D7F8AC40FEF70EFF0346C3
:10327000237067E0BB6801331B78012B06D1D7F8B8
:10328000AC40FEF7F9FE034623705BE0D7F8AC30A4
:1032900000221A7056E0BB6801331B78002B06D160
:1032A000D7F8AC40FEF703FF034623704AE0BB6843
:1032B00001331B78012B06D1D7F8AC40FEF7EEFEA8
:1032C000034623703EE0D7F8AC3000221A7039E094
:1032D000BB6801331B78002B06D1D7F8AC40FEF752
:1032E000F8FE034623702DE0BB6801331B78012BE9
:1032F00006D1D7F8AC40FEF7E3FE0346237021E089
:10330000D7F8AC3000221A701CE0BB6801331B7880
:10331000002B06D1D7F8AC40FEF7EDFE0346237034
:103320000FE0BB6801331B78012B06D1D7F8AC4006
:10333000FEF7D8FE0346237003E0D7F8AC30002236
:103340001A7000BF07F1A80393E80700FEF77EF8A4
:10335000034687F8B03007F1A80393E80700FDF7AC
:10336000F5FF034687F8DF30D7F8AC3018460AF08F
:1033700099F997F8DF300AE04FF0FF3307E000BF1C
:1033800004E000BF02E000BF00E000BF00231846D9
:10339000E437BD46F0BD00BF80B58EB000AF07F189
:1033A0002003184600F050FA034687F8373097F8A4
:1033B0003730002B05D0244800F0F2FB97F8373067
:1033C0003EE097F829303B7797F82A307B7797F8DB
:1033D0002B30303BDBB25BB243F004035BB2DBB2B9
:1033E0003033DBB2BB7797F82D30FB7745233B7149
:1033F00053237B712B23BB715723FB7132233B7209
:1034000032237B723023BB723023FB723B7F3B73D2
:103410007B7F7B73BB7FBB73FB7FFB7320233B7482
:103420003B1D03F10D023B1D0C21184600F09CFCD6
:103430000D237B763B1D1621184600F04DFB0346FD
:1034400018463837BD4680BD200A010880B58EB0C9
:1034500000AF07F12003184600F0F6F9034687F89D
:10346000373097F83730002B02D097F837303CE0F0
:1034700097F829303B7797F82A307B7797F82B30ED
:10348000303BDBB223F00403DBB23033DBB2BB777B
:1034900097F82D30FB7745233B7153237B712B230A
:1034A000BB715723FB7132233B7232237B72302373
:1034B000BB723023FB723B7F3B737B7F7B73BB7F95
:1034C000BB73FB7FFB7320233B743B1D03F10D0299
:1034D0003B1D0C21184600F047FC0D237B763B1D5D
:1034E0001621184600F0F8FA034618463837BD464C
:1034F00080BD000080B58CB000AF0346FB80452343
:103500003B7553237B752B23BB755723FB753223E8
:103510003B7632237B763023BB763723FB76302312
:103520003B7730237B773023BB773023FB77FA88D8
:1035300007F10C03104918460AF02CFEFB683B62A9
:10354000202387F8243007F1140303F1110207F157
:1035500014031021184600F007FC0D2387F82D30C6
:1035600007F114031A21184600F0B6FA034618466C
:103570003037BD4680BD00BF4C0A01082DE9F0433D
:1035800089B000AF78600B46FB706B461E46FB7837
:10359000612B04D9464800F003FB012382E0FB784D
:1035A0001433BB61B9694B1E7B610A460023904608
:1035B00099464FF000024FF000034FEAC90343EA77
:1035C00058734FEAC8020A46002314461D464FF0BE
:1035D00000024FF00003EB0043EA5473E2000B4695
:1035E0000733DB08DB00ADEB030D6B4600333B61BB
:1035F0003B6945221A703B6953225A703B692B2262
:103600009A703B695722DA703B6932221A713B6922
:1036100032225A713B6946229A713B694222DA7121
:10362000FA7807F10C03234918460AF0B3FD3B6909
:103630000833BA891A800023FB610AE0FB697A68C3
:103640001A44FB690A3311783A69D154FB69013392
:10365000FB61FB697A6813441B78002BEED1FB6990
:103660000A333A692021D154FB6903F10A01FB694D
:103670000B333A6913441A46386900F075FBFB694D
:1036800013333A690D21D1540B4800F089FA396996
:103690000A4800F085FABB69DBB21946386900F0C8
:1036A0001BFA0346B54618462437BD46BDE8F083ED
:1036B000540A01086C0A0108740A01088C0A0108FE
:1036C00080B588B000AF786045233B7253237B728E
:1036D0002B23BB725723FB7232233B7332237B7342
:1036E0004623BB733523FB737B681B783B747B6875
:1036F0005B787B747B689B78BB747B68DB78FB743E
:103700007B681B793B757B685B797B752023BB7578
:1037100007F1080303F10F0207F108030E21184611
:1037200000F022FB0D23FB7707F108031821184650
:1037300000F0D2F9034618462037BD4680BD80B55B
:1037400088B000AF786045233B7253237B722B23F4
:10375000BB725723FB7232233B7332237B734623A6
:10376000BB733623FB737B681B783B747B685B7889
:103770007B747B689B78BB747B68DB78FB747B68AD
:103780001B793B757B685B797B752023BB7507F1E3
:10379000080303F10F0207F108030E21184600F099
:1037A000E3FA0D23FB7707F108031821184600F010
:1037B00093F9034618462037BD4680BD80B58AB0D0
:1037C00000AF0346FB7145233B7353237B732B23CD
:1037D000BB735723FB7332233B7432237B74302338
:1037E000BB743623FB7430233B7530237B75302349
:1037F000BB753023FB7530233B7630237B76FA791B
:1038000007F108030F4918460AF0C4FC3B897B8383
:1038100020233B7707F10C0303F1110207F10C039E
:103820001021184600F0A0FA0D2387F8253007F183
:103830000C031A21184600F04FF9034618462837A2
:10384000BD4680BD6C0A0108B0B588B000AF786095
:10385000124B07F10C041D460FCD0FC42B681A46FE
:10386000228002341B0C237007F10C001723122254
:10387000796800F0F3F80346FB777B681B784F2BE1
:1038800004D17B6801331B784B2B01D0012300E06E
:10389000FB7F18462037BD46B0BD00BF900A010827
:1038A000B0B58CB000AF78606B4B07F11C041D46BF
:1038B0000FCD0FC42B681A46228002341B0C2370D4
:1038C00007F1080107F11C001223122200F0C6F8CC
:1038D000034687F82F307B684FF000021A6097F894
:1038E0002F30002B02D097F82F30AAE03B7A4F2BD5
:1038F00002D17B7A4B2B01D00123A2E03B7B392BF9
:1039000013D87B6893ED007A3B7BA3F1300213461A
:103910009B0013445B0007EE903AF8EEE77A77EEEF
:10392000277A7B68C3ED007A12E07B6893ED007A1A
:103930003B7BA3F1370213469B0013445B0007EE69
:10394000903AF8EEE77A77EE277A7B68C3ED007A53
:103950007B7B392B0ED87B6893ED007A7B7B303BE9
:1039600007EE903AF8EEE77A77EE277A7B68C3EDB8
:10397000007A0DE07B6893ED007A7B7B373B07EEA6
:10398000903AF8EEE77A77EE277A7B68C3ED007A13
:10399000FB7B392B20D87B681B681846FCF7E4FDBD
:1039A00004460D46FB7B303B1846FCF7CBFD28A3B5
:1039B000D3E90023FCF730FE02460B462046294699
:1039C000FCF774FC02460B4610461946FDF7FCF85E
:1039D00002467B681A601FE07B681B681846FCF78C
:1039E000C3FD04460D46FB7B373B1846FCF7AAFD9A
:1039F00017A3D3E90023FCF70FFE02460B4620462F
:103A00002946FCF753FC02460B4610461946FDF7C3
:103A1000DBF802467B681A60FB7A2B2B04D17B68AB
:103A20001A687B681A600AE0FB7A2D2B07D17B6845
:103A3000D3ED007AF1EE677A7B68C3ED007A97F8F0
:103A40002F3018463037BD46B0BD00BFAFF3008001
:103A50009A9999999999B93F080B010880B586B050
:103A600000AFF860B96011461A460B46FB71134669
:103A7000BB71174B1B6840F6C411184607F036F8A7
:103A8000FB799AB24FF47A73F968124804F09FFBFD
:103A90000346FB75FB7D002B06D00D4B1B681846BB
:103AA00007F074F8FB7D0FE0BB799AB24FF47A739C
:103AB000B968084804F024FC0346FB75044B1B68F6
:103AC000184607F063F8FB7D18461837BD4680BDE1
:103AD0002C020020BC06002080B58AB000AF7860C0
:103AE0000B46FB70284B1B6840F6C411184606F0C5
:103AF000FDFFFB789AB24FF47A737968234804F09B
:103B000066FB034687F8273097F82730002B0AD04A
:103B10001F4800F045F81C4B1B68184607F036F8A4
:103B200097F827302BE007F10C014FF47A73192234
:103B3000164804F0E5FB034687F82730124B1B6854
:103B4000184607F023F83B7B4F2B02D17B7B4B2B96
:103B50000AD0104800F024F807F10C0319460E486B
:103B600000F01EF801230AE007F10C0319460A4889
:103B700000F016F8094800F013F897F827301846B7
:103B80002837BD4680BD00BF2C020020BC060020A7
:103B90005C0B0108740B01088C0A01088C0B0108EE
:103BA0000FB42DE9F04188B000AF6B4698464FF452
:103BB0000073BB61BE693346013B7B610023344621
:103BC0001D464FF000024FF00003EB0043EA547330
:103BD000E2000023304619464FF000024FF0000388
:103BE000CB0043EA5073C200F31DDB08DB00ADEBF2
:103BF000030D6B4600333B6107F13C03BB60BB68C0
:103C0000BA6BB96938690AF011FBF8600123FB77D8
:103C1000FB68002B1BDDFB689AB24FF47A7339699D
:103C2000104804F0D4FA0346FB770F4A3B1D126894
:103C3000114619800233120C1A70391D4FF47A7331
:103C40000222084804F0C3FA0346FB7701E001238F
:103C5000FB77FB7FC54618462037BD46BDE8F041DF
:103C600004B07047FC060020A00B010880B584B0AA
:103C700000AF786039600023FB6016E00F4B5B6992
:103C80000E4A43F0100353613B68184600F0D0F928
:103C90000A4B5B69094A23F0100353613B681846DD
:103CA00000F0C6F9FB680133FB60FA687B689A4252
:103CB000E4DB00BF00BF1037BD4680BD00080240F6
:103CC00080B584B000AF786039600023FB6016E0F7
:103CD0000F4B5B690E4A43F0200353613B68184663
:103CE00000F0A6F90A4B5B69094A23F020035361EF
:103CF0003B68184600F09CF9FB680133FB60FA68EA
:103D00007B689A42E4DB00BF00BF1037BD4680BD30
:103D10000008024080B485B000AF87ED010A3B1D6A
:103D20001B68FB60FB681B0C9BB223F4FF4323F072
:103D30007F039AB2FB6803F0FF4303F148435B0B38
:103D40009BB203F4F8439BB213439AB2FB685B0B3C
:103D50009BB2C3F309039BB213439BB218461437BB
:103D6000BD465DF8047B704780B58AB000AFF8604F
:103D7000B9607A6000237B624FF0FF33FB6120E083
:103D80007B6AFA6813441B78BB61FA69BB695340CC
:103D9000FB6107233B620EE0FB6903F001035B421A
:103DA0007B61FB695A0879690E4B0B405340FB61FC
:103DB0003B6A013B3B623B6A002BEDDA7B6A0133D5
:103DC0007B627A6ABB689A42DADBFB69DB43FB61A0
:103DD000FA69054978680AF0DDF9FB691846283761
:103DE000BD4680BD2083B8EDF80B0108B0B59AB090
:103DF00000AF3548FFF7D4FE00F0DEF805F0D6FD41
:103E000005F056FE05F0F0FF06F066F806F03AF809
:103E100006F08CF806F016F806F08EF92B4B07F139
:103E200054041D460FCD0FC42B68236007F15403C3
:103E30000021184606F012FE254B07F140041D46EE
:103E40000FCD0FC42B68236007F1400300211846F3
:103E500006F004FE1F4B07F12C041D460FCD0FC4C6
:103E60002B68236007F12C030021184606F0F6FDAD
:103E7000194B07F118041D460FCD0FC42B682360A2
:103E800007F118030021184606F0E8FD134B3C1D0E
:103E90001D460FCD0FC42B6823603B1D0021184623
:103EA00006F0DCFD06F0C3FD0D48FFF779FE0D4B73
:103EB00004221A6004220C490C4804F0CDFA0023B5
:103EC00018466837BD46B0BD440C0108800C010897
:103ED000940C0108A80C0108BC0C0108D00C0108C6
:103EE000540C01081C02002014020020FC060020D3
:103EF00080B582B000AF78607B681B68044A93424B
:103F000001D100F07BF800BF0837BD4680BD00BF7F
:103F10000000014080B500AF4FF4FA610520FFF7C3
:103F2000A5FE4FF4FA610520FFF7CAFEF4E7000092
:103F300080B588B000AF78607B681C4A934216D188
:103F400007F108031A491846FDF7D2F907F10803EB
:103F500093E80700FEF7A8F90346B3F1FF3F01D14C
:103F6000FEF77CF904221249104804F075FA7B68C8
:103F7000104A934216D107F114030D491846FDF774
:103F8000B7F907F1140393E80700FEF78DF903462C
:103F9000B3F1FF3F01D1FEF761F90422044905485E
:103FA00004F05AFA00BF2037BD4680BDFC06002051
:103FB00014020020BC06002080B500AF0E4B1B6829
:103FC0000D4A43F4007313600B4B1B680A4A43F419
:103FD00080631360084B1B68074A43F480731360C7
:103FE000032000F00FF90F2006F09AFB06F0BCF951
:103FF0000023184680BD00BF003C024080B400AFE3
:10400000044B1B680133034A136000BFBD465DF8D3
:10401000047B70475402002080B400AF034B1B6840
:104020001846BD465DF8047B704700BF540200206F
:1040300080B584B000AF7860FFF7EEFFB8607B68B2
:10404000FB60FB68B3F1FF3F02D0FB680133FB600C
:1040500000BFFFF7E1FF0246BB68D31AFA689A4235
:10406000F7D800BF00BF1037BD4680BD80B485B013
:1040700000AF78607B6803F00703FB600C4BDB68E4
:10408000BB60BA684FF6FF031340BB60FB681A02BF
:10409000BB68134343F0BF6343F40033BB60044A7F
:1040A000BB68D36000BF1437BD465DF8047B704722
:1040B00000ED00E080B400AF044BDB681B0A03F0A6
:1040C00007031846BD465DF8047B704700ED00E02D
:1040D00080B483B000AF0346FB71FB7903F01F028D
:1040E000074997F907305B09012000FA02F241F80D
:1040F000232000BF0C37BD465DF8047B704700BF2E
:1041000000E100E080B483B000AF03463960FB718A
:1041100097F90730002B0BDA3B68DAB20C49FB79D0
:1041200003F00F03043B1201D2B20B441A7609E0EC
:104130003B68DAB2074997F907301201D2B20B4453
:1041400083F8002300BF0C37BD465DF8047B704741
:1041500000ED00E000E100E080B489B000AFF8605D
:10416000B9607A60FB6803F00703FB61FB69C3F188
:104170000703042B28BF0423BB61FB690433062B10
:1041800002D9FB69033B00E000237B614FF0FF3263
:10419000BB6902FA03F3DA43BB681A407B699A40B1
:1041A0004FF0FF317B6901FA03F3D9437B680B4081
:1041B000134318462437BD465DF8047B7047000062
:1041C00080B582B000AF78607B68013BB3F1807F3F
:1041D00001D301230FE00A4A7B68013B53600F21A2
:1041E0004FF0FF30FFF78EFF054B00229A60044B23
:1041F00007221A60002318460837BD4680BD00BF5D
:1042000010E000E080B582B000AF78607868FFF71A
:104210002DFF00BF0837BD4680BD80B586B000AF1A
:104220000346B9607A60FB7300237B61FFF742FFAE
:1042300078617A68B9687869FFF78EFF024697F966
:104240000F3011461846FFF75DFF00BF1837BD4617
:1042500080BD80B582B000AF0346FB7197F907308F
:104260001846FFF735FF00BF0837BD4680BD80B553
:1042700082B000AF78607868FFF7A2FF0346184667
:104280000837BD4680BD000080B483B000AF7860C1
:104290007B68042B06D1094B1B68084A43F00403D2
:1042A000136005E0054B1B68044A23F00403136008
:1042B00000BF0C37BD465DF8047B704710E000E09E
:1042C00080B483B000AF78607B6893F83530DBB2A0
:1042D000022B04D07B6880225A6501230CE07B68A6
:1042E000052283F835207B681B681A687B681B6889
:1042F00022F001021A60002318460C37BD465DF813
:10430000047B704780B586B000AF78600023BB6047
:104310008E4B1B688E4AA2FB03239B0A7B617B6842
:104320009B6D3B613B691B68FB607B68DB6D082212
:104330009A40FB681340002B1AD07B681B681B68EF
:1043400003F00403002B13D07B681B681A687B689A
:104350001B6822F004021A607B68DB6D08229A4019
:104360003B699A607B685B6D43F001027B685A652C
:104370007B68DB6D774A9A40FB681340002B12D0B4
:104380007B681B685B6903F08003002B0BD07B68A4
:10439000DB6D704A9A403B699A607B685B6D43F0C5
:1043A00002027B685A657B68DB6D6B4A9A40FB684A
:1043B0001340002B12D07B681B681B6803F00203BC
:1043C000002B0BD07B68DB6D634A9A403B699A6097
:1043D0007B685B6D43F004027B685A657B68DB6D2C
:1043E00010229A40FB681340002B43D07B681B6867
:1043F0001B6803F00803002B3CD07B68DB6D1022A8
:104400009A403B699A607B681B681B6803F48023B1
:10441000002B18D07B681B681B6803F40023002B5B
:1044200008D17B681B6C002B24D07B681B6C7868E0
:1044300098471FE07B689B6C002B1BD07B689B6CB4
:104440007868984716E07B681B681B6803F48073E4
:10445000002B07D17B681B681A687B681B6822F0F9
:1044600008021A607B681B6C002B03D07B681B6CF6
:10447000786898477B68DB6D20229A40FB68134080
:10448000002B00F093807B681B681B6803F010030F
:10449000002B00F08B807B68DB6D20229A403B690B
:1044A0009A607B6893F83530DBB2052B37D17B6897
:1044B0001B681A687B681B6822F016021A607B680A
:1044C0001B685A697B681B6822F080025A617B680E
:1044D0001B6C002B03D17B689B6C002B07D07B6887
:1044E0001B681A687B681B6822F008021A607B68E8
:1044F000DB6D3F229A403B699A607B68002283F81B
:1045000034207B68012283F835207B681B6D002BEB
:1045100000F082807B681B6D786898477CE07B6840
:104520001B681B6803F48023002B20D07B681B686A
:104530001B6803F40023002B10D17B685B6C002BFD
:1045400034D07B685B6C786898472FE014000020BB
:10455000B5814E1B01008000040080007B68DB6B8E
:10456000002B23D07B68DB6B786898471EE07B6864
:104570001B681B6803F48073002B0FD17B681B68DA
:104580001A687B681B6822F010021A607B680022A0
:1045900083F834207B68012283F835207B68DB6B4D
:1045A000002B03D07B68DB6B786898477B685B6D7A
:1045B000002B32D07B685B6D03F00103002B22D00F
:1045C0007B68052283F835207B681B681A687B6846
:1045D0001B6822F001021A60BB680133BB607A6974
:1045E0009A4207D37B681B681B6803F00103002B0A
:1045F000F2D100E000BF7B68002283F834207B68A2
:10460000012283F835207B68DB6C002B05D07B68AA
:10461000DB6C7868984700E000BF1837BD4680BD66
:1046200080B489B000AF7860396000237B610023DB
:104630003B610023BB610023FB6177E10122FB6941
:1046400002FA03F37B613B681B687A6913403B61A4
:104650003A697B699A4240F066813B685B68022B4D
:1046600003D03B685B68122B23D1FB69DA087B68B7
:10467000083253F82230BB61FB6903F007039B004B
:104680000F2202FA03F3DB43BA691340BB613B68B4
:104690001A69FB6903F007039B0002FA03F3BA6986
:1046A0001343BB61FB69DA087B680832B96943F8D8
:1046B00022107B681B68BB61FB695B00032202FA66
:1046C00003F3DB43BA691340BB613B685B6803F0EB
:1046D0000302FB695B0002FA03F3BA691343BB618F
:1046E0007B68BA691A603B685B68012B0BD03B683A
:1046F0005B68022B07D03B685B68112B03D03B68DB
:104700005B68122B30D17B689B68BB61FB695B00E7
:10471000032202FA03F3DB43BA691340BB613B682F
:10472000DA68FB695B0002FA03F3BA691343BB6101
:104730007B68BA699A607B685B68BB610122FB6930
:1047400002FA03F3DB43BA691340BB613B685B6861
:104750001B0903F00102FB6902FA03F3BA69134370
:10476000BB617B68BA695A607B68DB68BB61FB69C7
:104770005B00032202FA03F3DB43BA691340BB6117
:104780003B689A68FB695B0002FA03F3BA6913435A
:10479000BB617B68BA69DA603B685B6803F0805391
:1047A000002B00F0C0800023FB60664B5B6C654A09
:1047B00043F480435364634B5B6C03F48043FB60BE
:1047C000FB68614AFB699B08023352F82330BB61E6
:1047D000FB6903F003039B000F2202FA03F3DB43A0
:1047E000BA691340BB617B68584A934237D07B68F3
:1047F000574A934231D07B68564A93422BD07B680C
:10480000554A934225D07B68544A93421FD07B6817
:10481000534A934219D07B68524A934213D07B6823
:10482000514A93420DD07B68504A934207D07B682F
:104830004F4A934201D1092312E00A2310E00823D2
:104840000EE007230CE006230AE0052308E004231A
:1048500006E0032304E0022302E0012300E000233A
:10486000FA6902F0030292009340BA691343BB61F4
:104870003549FB699B080233BA6941F823203D4B57
:104880001B68BB613B69DB43BA691340BB613B6892
:104890005B6803F48033002B03D0BA693B69134390
:1048A000BB61344ABB691360324B5B68BB613B69D7
:1048B000DB43BA691340BB613B685B6803F40033B8
:1048C000002B03D0BA693B691343BB61294ABB691A
:1048D0005360284B9B68BB613B69DB43BA6913405B
:1048E000BB613B685B6803F48013002B03D0BA699B
:1048F0003B691343BB611F4ABB6993601D4BDB6877
:10490000BB613B69DB43BA691340BB613B685B68D1
:1049100003F40013002B03D0BA693B691343BB6156
:10492000144ABB69D360FB690133FB61FB690F2B40
:104930007FF684AE00BF00BF2437BD465DF8047B20
:10494000704700BF003802400038014000000240BC
:104950000004024000080240000C02400010024027
:104960000014024000180240001C024000200240D7
:1049700000240240003C014080B483B000AF786066
:104980000B467B8013467B707B78002B03D07A88A4
:104990007B689A6103E07B881A047B689A6100BF98
:1049A0000C37BD465DF8047B7047000080B584B0CD
:1049B00000AF78600023FB600023BB607B68002BA6
:1049C00001D10123C9E07B6893F83D30DBB2002BB5
:1049D00006D17B68002283F83C20786805F0F6FC5D
:1049E0007B68242283F83D207B681B681A687B68FB
:1049F0001B6822F001021A6001F0E6FAB860BB6899
:104A0000584AA2FB03239B0CFB607B681B68FA6877
:104A10005A607B685B68544A934202D8FB68013352
:104A200009E0FB684FF4967202FB03F34F4AA2FBC6
:104A300003239B0901337A68126813627B685B6801
:104A4000494A934213D87B685B685B00BA68B2FB43
:104A5000F3F240F6FC731340002B06D07B685B68D2
:104A60005B00BA68B2FBF3F345E0042343E07B68E4
:104A70009B68002B0FD17B685A6813465B00134478
:104A8000BA68B2FBF3F3C3F30B03002B0CBF012393
:104A90000023DBB210E07B685A6813469B00134486
:104AA0009A001344BA68B2FBF3F3C3F30B03002B71
:104AB0000CBF01230023DBB2002B01D001231AE03D
:104AC0007B689B68002B0AD17B685A6813465B00A1
:104AD0001344BA68B2FBF3F343F400430BE07B6882
:104AE0005A6813469B0013449A001344BA68B2FBF9
:104AF000F3F343F440437A681268D3617B68D96961
:104B00007B681A6A7B681B680A431A607B681969AC
:104B10007B68DA687B681B680A439A607B6859691E
:104B20007B689A697B681B680A43DA607B681B684C
:104B30001A687B681B6842F001021A607B680022D9
:104B40001A647B68202283F83D207B6800221A6368
:104B50007B68002283F83E20002318461037BD46AC
:104B600080BD00BF83DE1B43A0860100D34D6210D1
:104B700080B588B002AFF8607A601A460B467B8138
:104B800013463B8100237B61FFF746FA7861FB689F
:104B900093F83D30DBB2202B40F0EE807B69009330
:104BA000192301227749F86800F06CFC0346002BBA
:104BB00001D00223E1E0FB6893F83C30012B01D1E6
:104BC0000223DAE0FB68012283F83C20FB681B68C3
:104BD0001B6803F00103012B07D0FB681B681A68F0
:104BE000FB681B6842F001021A60FB681B681A68C8
:104BF000FB681B6822F400621A60FB68212283F8BC
:104C00003D20FB68102283F83E20FB6800221A64D6
:104C1000FB687A685A62FB683A895A85FB685A4A87
:104C2000DA62FB685B8D9AB2FB681A8579897B69C9
:104C30003A6AF86800F0DCFA0346002B0FD0FB68F4
:104C40001B6C042B05D1FB68002283F83C20012358
:104C500093E0FB68002283F83C2003238DE00023CF
:104C60003B61FB681B685B693B61FB681B689B6978
:104C70003B613B6966E07A69396AF86800F0C1FC1B
:104C80000346002B0FD0FB681B6C042B09D1FB687B
:104C90001B681A68FB681B6842F400721A600123E3
:104CA0006BE0032369E0FB685B6A591CFA68516298
:104CB0001A78FB681B681A61FB685B8D9BB2013B2D
:104CC0009AB2FB685A85FB681B8D013B9AB2FB6860
:104CD0001A85FB681B685B6903F00403042B19D178
:104CE000FB681B8D002B15D0FB685B6A591CFA68AA
:104CF00051621A78FB681B681A61FB685B8D9BB276
:104D0000013B9AB2FB685A85FB681B8D013B9AB246
:104D1000FB681A857A69396AF86800F0AFFC0346C7
:104D2000002B0FD0FB681B6C042B09D1FB681B68A0
:104D30001A68FB681B6842F400721A6001231CE0C9
:104D400003231AE0FB681B8D002B94D1FB681B68C2
:104D50001A68FB681B6842F400721A60FB68202224
:104D600083F83D20FB68002283F83E20FB68002288
:104D700083F83C20002300E0022318461837BD4684
:104D800080BD00BF020010000000FFFF80B58CB0A6
:104D900002AFF8607A601A460B467B8113463B816E
:104DA00000237B62FFF738F97862FB6893F83D30A7
:104DB000DBB2202B40F015827B6A0093192301227D
:104DC0008549F86800F05EFB0346002B01D0022302
:104DD00008E2FB6893F83C30012B01D1022301E289
:104DE000FB68012283F83C20FB681B681B6803F00A
:104DF0000103012B07D0FB681B681A68FB681B685E
:104E000042F001021A60FB681B681A68FB681B68A5
:104E100022F400621A60FB68222283F83D20FB68BE
:104E2000102283F83E20FB6800221A64FB687A682F
:104E30005A62FB683A895A85FB68684ADA62FB68FD
:104E40005B8D9AB2FB681A8579897B6A3A6BF86840
:104E500000F050FA0346002B0FD0FB681B6C042BAC
:104E600005D1FB68002283F83C200123BAE1FB68EE
:104E7000002283F83C200323B4E1FB681B8D002B48
:104E800013D100233B62FB681B685B693B62FB68D4
:104E90001B689B693B623B6AFB681B681A68FB687E
:104EA0001B6842F400721A6088E1FB681B8D012BBD
:104EB0001BD1FB681B681A68FB681B6822F48062C0
:104EC0001A600023FB61FB681B685B69FB61FB6880
:104ED0001B689B69FB61FB69FB681B681A68FB68C0
:104EE0001B6842F400721A6068E1FB681B8D022B9C
:104EF0001BD1FB681B681A68FB681B6822F4806280
:104F00001A60FB681B681A68FB681B6842F4006241
:104F10001A600023BB61FB681B685B69BB61FB68AF
:104F20001B689B69BB61BB6948E1FB681B681A6829
:104F3000FB681B6842F480621A6000237B61FB6897
:104F40001B685B697B61FB681B689B697B617B6994
:104F500034E1FB681B8D032B00F2EB80FB681B8D9B
:104F6000012B27D17A6A396BF86800F0C4FB03463D
:104F7000002B07D0FB681B6C202B01D1032331E1F0
:104F800001232FE1FB681B681869FB685B6A591CE9
:104F9000FA685162C2B21A70FB681B8D013B9AB26B
:104FA000FB681A85FB685B8D9BB2013B9AB2FB687C
:104FB0005A8503E1FB681B8D022B4AD17B6A009363
:104FC0003B6B00220649F86800F05CFA0346002BB0
:104FD00008D0032306E100BF020010000000FFFF1D
:104FE00004000100FB681B681A68FB681B6842F438
:104FF00000721A60FB681B681869FB685B6A591CC1
:10500000FA685162C2B21A70FB681B8D013B9AB2FA
:10501000FB681A85FB685B8D9BB2013B9AB2FB680B
:105020005A85FB681B681869FB685B6A591CFA683B
:105030005162C2B21A70FB681B8D013B9AB2FB68C9
:105040001A85FB685B8D9BB2013B9AB2FB685A855F
:10505000B4E07B6A00933B6B00226449F86800F07F
:1050600011FA0346002B01D00323BBE0FB681B6849
:105070001A68FB681B6822F480621A60FB681B6870
:105080001869FB685B6A591CFA685162C2B21A70EF
:10509000FB681B8D013B9AB2FB681A85FB685B8D30
:1050A0009BB2013B9AB2FB685A857B6A00933B6BCB
:1050B00000224E49F86800F0E5F90346002B01D0C4
:1050C00003238FE0FB681B681A68FB681B6842F4C7
:1050D00000721A60FB681B681869FB685B6A591CE0
:1050E000FA685162C2B21A70FB681B8D013B9AB21A
:1050F000FB681A85FB685B8D9BB2013B9AB2FB682B
:105100005A85FB681B681869FB685B6A591CFA685A
:105110005162C2B21A70FB681B8D013B9AB2FB68E8
:105120001A85FB685B8D9BB2013B9AB2FB685A857E
:1051300044E07A6A396BF86800F0DDFA0346002B28
:1051400007D0FB681B6C202B01D103234AE001230D
:1051500048E0FB681B681869FB685B6A591CFA68C1
:105160005162C2B21A70FB681B8D013B9AB2FB6898
:105170001A85FB685B8D9BB2013B9AB2FB685A852E
:10518000FB681B685B6903F00403042B16D1FB6802
:105190001B681869FB685B6A591CFA685162C2B2E5
:1051A0001A70FB681B8D013B9AB2FB681A85FB687D
:1051B0005B8D9BB2013B9AB2FB685A85FB681B8DE5
:1051C000002B7FF4C6AEFB68202283F83D20FB68ED
:1051D000002283F83E20FB68002283F83C20002355
:1051E00000E0022318462837BD4680BD04000100B8
:1051F00080B588B002AFF8607A603B600B467B8177
:10520000FB68DB6A7B617B69042B06D07B69012B21
:1052100003D07B6913F5803F08D1FB681B681A68CF
:10522000FB681B6842F480721A600BE0FB681B6B22
:10523000122B07D1FB681B681A68FB681B6842F4D5
:1052400080721A603B6800937B6800224FF0011166
:10525000F86800F017F90346002B01D0032341E062
:10526000FB681B69B3F5804F08D17B89DBB21A4616
:10527000FB681B6802F0FE021A6121E07B89DB11EA
:10528000DBB203F00603DBB263F00F03DAB2FB68B4
:105290001B681A613B687A681449F86800F043F9A2
:1052A0000346002B07D0FB681B6C042B01D10123A4
:1052B00018E0032316E07B89DAB2FB681B681A61E9
:1052C0003B687A680A49F86800F02DF90346002B1C
:1052D00007D0FB681B6C042B01D1012302E00323E0
:1052E00000E0002318461837BD4680BD08000100C5
:1052F0000200010080B588B002AFF8607A603B60C0
:105300000B467B81FB68DB6A7B61FB681B681A6864
:10531000FB681B6842F480621A607B69042B06D02C
:105320007B69012B03D07B6913F5803F08D1FB68B3
:105330001B681A68FB681B6842F480721A600BE0F5
:10534000FB681B6B112B07D1FB681B681A68FB6895
:105350001B6842F480721A603B6800937B680022ED
:105360004FF00111F86800F08DF80346002B01D0D2
:1053700003237FE0FB681B69B3F5804F08D17B896D
:10538000DBB243F00103DAB2FB681B681A615FE02D
:105390007B89DB11DBB203F00603DBB263F00F03A2
:1053A000DAB2FB681B681A613B687A683349F868AF
:1053B00000F0B9F80346002B07D0FB681B6C042BE8
:1053C00001D1012356E0032354E07B89DAB2FB6864
:1053D0001B681A613B687A682949F86800F0A3F8ED
:1053E0000346002B07D0FB681B6C042B01D1012363
:1053F00040E003233EE000233B61FB681B685B69E0
:105400003B61FB681B689B693B613B69FB681B68F0
:105410001A68FB681B6842F480721A603B6800934C
:105420007B6800224FF00111F86800F02BF803466A
:10543000002B01D003231DE07B89DB11DBB203F0DD
:105440000603DBB263F00E03DAB2FB681B681A6175
:105450003B687A680A49F86800F065F80346002B53
:1054600007D0FB681B6C042B01D1012302E003234E
:1054700000E0002318461837BD4680BD0800010033
:105480000200010080B584B000AFF860B9603B60F5
:105490001346FB711FE03B68B3F1FF3F1BD03B6835
:1054A000002B07D0FEF7B8FD0246BB69D31A3A6855
:1054B0009A4210D2FB6800221A63FB68202283F80C
:1054C0003D20FB68002283F83E20FB68002283F821
:1054D0003C20032323E0BB681B0CDBB2012B0DD166
:1054E000FB681B685B69DA43BB6813409BB2002B07
:1054F0000CBF01230023DBB21A460CE0FB681B68DB
:105500009B69DA43BB6813409BB2002B0CBF01239D
:105510000023DBB21A46FB799A42BCD0002318461E
:105520001037BD4680BD80B584B000AFF860B9606B
:105530007A603B6040E0FB681B685B6903F4806352
:10554000B3F5806F1CD1FB681B681A68FB681B6889
:1055500042F400721A60FB681B686FF480625A6143
:10556000FB6804221A64FB6800221A63FB6820228D
:1055700083F83D20FB68002283F83C2001233CE0B7
:105580007B68B3F1FF3F17D07B68002B07D0FEF795
:1055900043FD02463B68D31A7A689A420CD2FB68F4
:1055A00000221A63FB68202283F83D20FB6800225A
:1055B00083F83C20032320E0BB681B0CDBB2012BEB
:1055C0000CD1FB681B685B69DA43BB6813409BB274
:1055D000002B14BF01230023DBB20BE0FB681B6828
:1055E0009B69DA43BB6813409BB2002B14BF0123B5
:1055F0000023DBB2002B9ED1002318461037BD4696
:1056000080BD80B584B000AFF860B9607A6029E0F1
:10561000F86800F0BAF80346002B01D0012329E016
:10562000BB68B3F1FF3F1DD0BB68002B07D0FEF76E
:10563000F3FC02467B68D31ABA689A4212D2FB681E
:105640001B6C43F02002FB681A64FB6800221A639B
:10565000FB68202283F83D20FB68002283F83C2071
:10566000032307E0FB681B685B6903F08003802B62
:10567000CED1002318461037BD4680BD80B584B01A
:1056800000AFF860B9607A6029E0F86800F07DF852
:105690000346002B01D0012329E0BB68B3F1FF3F93
:1056A0001DD0BB68002B07D0FEF7B6FC02467B6816
:1056B000D31ABA689A4212D2FB681B6C43F02002DC
:1056C000FB681A64FB6800221A63FB68202283F8D7
:1056D0003D20FB68002283F83C20032307E0FB68A1
:1056E0001B685B6903F00403042BCED1002318462A
:1056F0001037BD4680BD80B584B000AFF860B9609A
:105700007A6036E0FB681B685B6903F01003102BBE
:1057100014D1FB681B686FF010025A61FB6800220D
:105720001A64FB6800221A63FB68202283F83D207C
:10573000FB68002283F83C20012322E0BB68002B99
:1057400007D0FEF769FC02467B68D31ABA689A4212
:105750000FD2FB681B6C43F02002FB681A64FB68E5
:10576000202283F83D20FB68002283F83C2003239D
:1057700007E0FB681B685B6903F04003402BC1D165
:10578000002318461037BD4680BD80B483B000AFFB
:1057900078607B681B685B6903F48063B3F5806F96
:1057A00014D17B681B686FF480625A617B680422A5
:1057B0001A647B6800221A637B68202283F83D20EC
:1057C0007B68002283F83C20012300E00023184678
:1057D0000C37BD465DF8047B7047000080B58EB085
:1057E00000AF786000237B637B681B6803F00103D4
:1057F000002B75D0924B9B6803F00C03042B0CD04C
:105800008F4B9B6803F00C03082B12D18C4B5B6809
:1058100003F48003B3F5800F0BD1894B1B6803F4AD
:105820000033002B5BD07B685B68002B57D10123D2
:1058300022E27B685B68B3F5803F06D1804B1B6832
:105840007F4A43F4803313601DE07B685B68B3F5E7
:10585000A02F0CD17A4B1B68794A43F48023136044
:10586000774B1B68764A43F4803313600BE0744B2C
:105870001B68734A23F480331360714B1B68704AB2
:1058800023F4802313607B685B68002B13D0FEF742
:10589000C3FB786308E0FEF7BFFB02467B6BD31ABD
:1058A000642B01D90323E7E1654B1B6803F4003344
:1058B000002BF0D014E0FEF7AFFB786308E0FEF7B2
:1058C000ABFB02467B6BD31A642B01D90323D3E1D4
:1058D0005B4B1B6803F40033002BF0D100E000BFEA
:1058E0007B681B6803F00203002B77D0544B9B6846
:1058F00003F00C03002B0BD0514B9B6803F00C03FF
:10590000082B26D14E4B5B6803F48003002B20D17B
:105910004B4B1B6803F00203002B05D07B68DB6850
:10592000012B01D00123A7E1454B1B6823F0F802AE
:105930007B681969F8233B633B6B93FAA3F3FB6223
:10594000FB6AB3FA83F301FA03F33D4913430B6097
:1059500044E07B68DB68002B2AD03A4B01221A60B6
:10596000FEF75AFB786308E0FEF756FB02467B6BB6
:10597000D31A022B01D903237EE1314B1B6803F0BC
:105980000203002BF0D02E4B1B6823F0F8027B683B
:105990001969F823BB62BB6A93FAA3F37B627B6A43
:1059A000B3FA83F301FA03F3254913430B6015E0BF
:1059B000244B00221A60FEF72FFB786308E0FEF705
:1059C0002BFB02467B6BD31A022B01D9032353E135
:1059D0001B4B1B6803F00203002BF0D17B681B6894
:1059E00003F00803002B37D07B685B69002B16D0CF
:1059F000154B01221A60FEF70FFB786308E0FEF7F3
:105A00000BFB02467B6BD31A022B01D9032333E134
:105A10000B4B5B6F03F00203002BF0D01CE00A4B32
:105A200000221A60FEF7F8FA78630FE0FEF7F4FA46
:105A300002467B6BD31A022B08D903231CE100BF5B
:105A40000038024000004742800E47428C4B5B6F9B
:105A500003F00203002BE9D17B681B6803F0040309
:105A6000002B7DD00023BB60854B1B6C844A43F028
:105A700080531364824B1B6C03F08053BB60BB6884
:105A8000804B1B687F4A43F480731360FEF7C4FAAF
:105A9000786308E0FEF7C0FA02467B6BD31A022B4C
:105AA00001D90323E8E0774B1B6803F48073002BD4
:105AB000F0D07B689B68012B06D1714B1B6F704A3D
:105AC00043F0010313671CE07B689B68052B0CD136
:105AD0006B4B1B6F6A4A43F004031367684B1B6FE1
