:020000040800F2
:10000000000003205DC400084196000851960008D6
:100010006D960008739600087996000800000000AD
:1000200000000000000000000000000011BD0008FA
:100030007F9600080000000031BF00088D96000880
:10004000ADC40008ADC40008ADC40008ADC40008CC
:10005000ADC40008ADC40008ADC40008ADC40008BC
:10006000ADC40008ADC40008ADC40008ADC40008AC
:10007000ADC40008ADC40008ADC40008ADC400089C
:10008000ADC40008ADC40008ADC40008ADC400088C
:10009000ADC40008ADC40008ADC40008ADC400087C
:1000A000ADC40008E9960008ADC40008ADC400085E
:1000B000ADC40008ADC40008ADC40008ADC400085C
:1000C000ADC40008ADC40008ADC40008ADC400084C
:1000D000ADC40008AD960008ADC40008ADC400086A
:1000E000ADC40008ADC40008ADC40008ADC400082C
:1000F000ADC40008ADC40008ADC40008ADC400081C
:10010000ADC4000899960008ADC40008ADC400084D
:10011000C1960008ADC40008ADC40008ADC4000815
:10012000ADC40008ADC40008ADC40008FD960008C9
:10013000ADC40008ADC40008ADC40008ADC40008DB
:10014000ADC40008ADC40008ADC40008ADC40008CB
:10015000ADC4000811970008ADC40008D59600088A
:10016000ADC40008ADC40008ADC40008ADC40008AB
:10017000ADC40008ADC40008ADC400080000000014
:10018000ADC40008ADC40008ADC40008ADC400088B
:10019000ADC40008ADC40008ADC40008ADC400087B
:0C01A0000000000000000000ADC40008DA
:1001B00010B5054C237833B9044B13B10448AFF3A1
:1001C00000800123237010BDEC010020000000001E
:1001D000B0F3000808B5034B1BB103490348AFF364
:1001E000008008BD00000000F0010020B0F300080E
:1001F000034613F8012B002AFBD1181A0138704767
:1002000001F0FF01102A2BDB10F0070F08D010F8C7
:10021000013B013A8B422DD010F0070F42B3F6D1CB
:10022000F0B441EA012141EA014122F007047FF0E4
:1002300000070023F0E80256083C85EA010586EA3B
:10024000010685FA47F5A3FA87F586FA47F6A5FA77
:1002500087F68EB9EED1F0BC01F0FF0102F0070283
:1002600032B110F8013B013A83EA010313B1F8D12E
:100270000020704701387047002D06BF354603380F
:10028000073815F0010F07D1013015F4807F02BF48
:10029000013015F4C03F0130F0BC0138704700BF99
:1002A00081F0004102E000BF83F0004330B54FEA27
:1002B00041044FEA430594EA050F08BF90EA020F94
:1002C0001FBF54EA000C55EA020C7FEA645C7FEA27
:1002D000655C00F0E2804FEA5454D4EB5555B8BF4A
:1002E0006D420CDD2C4480EA020281EA030382EABB
:1002F000000083EA010180EA020281EA0303362D4D
:1003000088BF30BD11F0004F4FEA01314FF4801C1F
:100310004CEA113102D0404261EB410113F0004F31
:100320004FEA03334CEA133302D0524263EB4303E8
:1003300094EA050F00F0A780A4F10104D5F1200E86
:100340000DDB02FA0EFC22FA05F2801841F10001E1
:1003500003FA0EF2801843FA05F359410EE0A5F1B5
:1003600020050EF1200E012A03FA0EFC28BF4CF0E6
:10037000020C43FA05F3C01851EBE37101F000459C
:1003800007D54FF0000EDCF1000C7EEB00006EEBA9
:100390000101B1F5801F1BD3B1F5001F0CD3490833
:1003A0005FEA30004FEA3C0C04F101044FEA44528A
:1003B00012F5800F80F09A80BCF1004F08BF5FEA11
:1003C000500C50F1000041EB045141EA050130BDF1
:1003D0005FEA4C0C404141EB0101013C28BFB1F503
:1003E000801FE9D291F0000F04BF01460020B1FA4E
:1003F00081F308BF2033A3F10B03B3F120020CDA21
:100400000C3208DD02F1140CC2F10C0201FA0CF0FE
:1004100021FA02F10CE002F11402D8BFC2F1200C63
:1004200001FA02F120FA0CFCDCBF41EA0C01904019
:10043000E41AA2BF01EB0451294330BD6FEA040462
:100440001F3C1CDA0C340EDC04F11404C4F120024D
:1004500020FA04F001FA02F340EA030021FA04F35F
:1004600045EA030130BDC4F10C04C4F1200220FAB6
:1004700002F001FA04F340EA0300294630BD21FAF4
:1004800004F0294630BD94F0000F83F4801306BFBA
:1004900081F480110134013D4EE77FEA645C18BFAE
:1004A0007FEA655C29D094EA050F08BF90EA020F45
:1004B00005D054EA000C04BF1946104630BD91EA3D
:1004C000030F1EBF0021002030BD5FEA545C05D140
:1004D0004000494128BF41F0004130BD14F580047F
:1004E0003CBF01F5801130BD01F0004545F0FE41F3
:1004F00041F470014FF0000030BD7FEA645C1ABF28
:10050000194610467FEA655C1CBF0B46024650EA5E
:10051000013406BF52EA033591EA030F41F400218A
:1005200030BD00BF90F0000F04BF0021704730B510
:100530004FF4806404F132044FF000054FF00001E5
:1005400050E700BF90F0000F04BF0021704730B5A6
:100550004FF4806404F1320410F0004548BF40427B
:100560004FF000013EE700BF42004FEAE2014FEAD0
:1005700031014FEA02701FBF12F07F4393F07F4FAB
:1005800081F06051704732F07F4208BF704793F0AE
:100590007F4F04BF41F40021704730B54FF46074C1
:1005A00001F0004521F000411CE700BF50EA0102C4
:1005B00008BF704730B54FF000050AE050EA01026D
:1005C00008BF704730B511F0004502D5404261EBDD
:1005D00041014FF4806404F132045FEA915C3FF41E
:1005E000D8AE4FF003025FEADC0C18BF03325FEABB
:1005F000DC0C18BF033202EBDC02C2F1200300FA6C
:1006000003FC20FA02F001FA03FE40EA0E0021FA90
:1006100002F11444BDE600BF70B54FF0FF0C4CF47E
:10062000E06C1CEA11541DBF1CEA135594EA0C0F30
:1006300095EA0C0F00F0DEF82C4481EA030621EA6B
:100640004C5123EA4C5350EA013518BF52EA0335A6
:1006500041F4801143F4801338D0A0FB02CE4FF058
:100660000005E1FB02E506F00042E0FB03E54FF088
:100670000006E1FB03569CF0000F18BF4EF0010E80
:10068000A4F1FF04B6F5007F64F5407404D25FEA7C
:100690004E0E6D4146EB060642EAC62141EA55512F
:1006A0004FEAC52040EA5E504FEACE2EB4F1FD0C71
:1006B00088BFBCF5E06F1ED8BEF1004F08BF5FEAEF
:1006C000500E50F1000041EB045170BD06F00046A1
:1006D00046EA010140EA020081EA0301B4EB5C044E
:1006E000C2BFD4EB0C0541EA045170BD41F4801146
:1006F0004FF0000E013C00F3AB8014F1360FDEBF6B
:10070000002001F0004170BDC4F10004203C35DA46
:100710000C341BDC04F11404C4F1200500FA05F3C9
:1007200020FA04F001FA05F240EA020001F000426A
:1007300021F0004110EBD37021FA04F642EB0601E0
:100740005EEA430E08BF20EAD37070BDC4F10C040A
:10075000C4F1200500FA04F320FA05F001FA04F2CE
:1007600040EA020001F0004110EBD37041F10001BA
:100770005EEA430E08BF20EAD37070BDC4F12005C5
:1007800000FA05F24EEA020E20FA04F301FA05F22D
:1007900043EA020321FA04F001F0004121FA04F2D5
:1007A00020EA020000EBD3705EEA430E08BF20EAA5
:1007B000D37070BD94F0000F0FD101F000464000DF
:1007C00041EB010111F4801F08BF013CF7D041EA61
:1007D000060195F0000F18BF704703F00046520065
:1007E00043EB030313F4801F08BF013DF7D043EA36
:1007F0000603704794EA0C0F0CEA135518BF95EAEC
:100800000C0F0CD050EA410618BF52EA4306D1D172
:1008100081EA030101F000414FF0000070BD50EA91
:10082000410606BF1046194652EA430619D094EA1B
:100830000C0F02D150EA013613D195EA0C0F05D105
:1008400052EA03361CBF104619460AD181EA030159
:1008500001F0004141F0FE4141F470014FF0000011
:1008600070BD41F0FE4141F4780170BD70B54FF0AC
:10087000FF0C4CF4E06C1CEA11541DBF1CEA13552C
:1008800094EA0C0F95EA0C0F00F0A7F8A4EB05040E
:1008900081EA030E52EA03354FEA013100F0888005
:1008A0004FEA03334FF0805545EA131343EA1263CE
:1008B0004FEA022245EA111545EA10654FEA002683
:1008C0000EF000419D4208BF964244F1FD0404F53C
:1008D000407402D25B084FEA3202B61A65EB030598
:1008E0005B084FEA32024FF480104FF4002CB6EB55
:1008F000020E75EB030E22BFB61A754640EA0C00D5
:100900005B084FEA3202B6EB020E75EB030E22BF14
:10091000B61A754640EA5C005B084FEA3202B6EB55
:10092000020E75EB030E22BFB61A754640EA9C0014
:100930005B084FEA3202B6EB020E75EB030E22BFE4
:10094000B61A754640EADC0055EA060E18D04FEAA2
:10095000051545EA16754FEA06164FEAC30343EA42
:1009600052734FEAC2025FEA1C1CC0D111F4801F0F
:100970000BD141EA00014FF000004FF0004CB6E708
:1009800011F4801F04BF01430020B4F1FD0C88BFA7
:10099000BCF5E06F3FF6AFAEB5EB030C04BFB6EBB2
:1009A000020C5FEA500C50F1000041EB045170BDA5
:1009B0000EF0004E4EEA113114EB5C04C2BFD4EBD2
:1009C0000C0541EA045170BD41F480114FF0000E56
:1009D000013C90E645EA060E8DE60CEA135594EAD2
:1009E0000C0F08BF95EA0C0F3FF43BAF94EA0C0FD5
:1009F0000AD150EA01347FF434AF95EA0C0F7FF44A
:100A000025AF104619462CE795EA0C0F06D152EA9D
:100A100003353FF4FDAE1046194622E750EA410681
:100A200018BF52EA43067FF4C5AE50EA41047FF492
:100A30000DAF52EA43057FF4EBAE12E74FF0FF3CF7
:100A400006E000BF4FF0010C02E000BF4FF0010CC8
:100A50004DF804CD4FEA410C7FEA6C5C4FEA430C41
:100A600018BF7FEA6C5C1BD001B050EA410C0CBF90
:100A700052EA430C91EA030F02BF90EA020F0020F2
:100A8000704710F1000F91EA030F58BF994208BF59
:100A900090422CBFD8176FEAE37040F00100704716
:100AA0004FEA410C7FEA6C5C02D150EA013C07D16D
:100AB0004FEA430C7FEA6C5CD6D152EA033CD3D0B8
:100AC0005DF8040B704700BF8446104662468C46B2
:100AD0001946634600E000BF01B5FFF7B7FF0028E5
:100AE00048BF10F1000F01BD4DF808EDFFF7F4FF0E
:100AF0000CBF012000205DF808FB00BF4DF808ED99
:100B0000FFF7EAFF34BF012000205DF808FB00BFBB
:100B10004DF808EDFFF7E0FF94BF012000205DF8DD
:100B200008FB00BF4DF808EDFFF7CEFF94BF012092
:100B300000205DF808FB00BF4DF808EDFFF7C4FF8B
:100B400034BF012000205DF808FB00BF4FEA410CD4
:100B50007FEA6C5C02D150EA013C0AD14FEA430CB7
:100B60007FEA6C5C02D152EA033C02D14FF00000F4
:100B700070474FF0010070474FEA410212F5001232
:100B800015D211D56FF47873B3EB625212D94FEAD4
:100B9000C12343F0004343EA505311F0004F23FABE
:100BA00002F018BF404270474FF00000704750EA13
:100BB000013005D111F0004008BF6FF000407047D0
:100BC0004FF00000704700BF80B582B000AF786082
:100BD000034802F01DF842F2107008F09CFEFAE79C
:100BE000CCF3000880B582B000AF7860034802F013
:100BF0000FF842F2107008F08EFEFAE7E8F30008F2
:100C000080B582B000AF78600B4802F001F80B4B62
:100C10001B684FF4FA71184608F09EFE084B01223B
:100C20001A70064B1B68184608F0E6FE42F2107078
:100C300008F071FEFAE700BF04F400083802002053
:100C40000C02002080B592B000AF7860884801F0B7
:100C5000DFFF08F029FE0346FB6007F13603184664
:100C600000F0C4FDFB8E03F02003002B0FD0814B5E
:100C70001B684FF4FA71184608F06EFE7E4A7F4BEF
:100C80001A607C4B1B68184608F0B6FE33E007F18B
:100C90003C03184600F072FC07F13803184600F0D8
:100CA0003BFCD7ED0F7AB1EE047A27EE877AD7EDC9
:100CB0000E7AF0EE086A67EEA67A77EE277AC7ED2D
:100CC000117A6C4B1B684FF4FA71184608F044FE19
:100CD0006A4B93ED007AD7ED116A9FED696AC6EE13
:100CE000867A77EE677A654BC3ED007A614B1B68B5
:100CF000184608F081FEFB8E03F04003002B72D0F3
:100D000007F13003184600F045FA07F12C031846A6
:100D100000F072FA07F12803184600F09FFA07F175
:100D20002403184600F0CCFA07F12003184600F01F
:100D3000F9FA07F11C03184600F026FB07F1180327
:100D4000184600F053FB07F11403184600F080FB2F
:100D500007F11003184600F0ADFB97ED0B7AD7EDC5
:100D60000A7A37EE277AD7ED0C7A67EE277AC7ED45
:100D7000107A97ED087AD7ED077A37EE277AD7ED14
:100D8000097A67EE277A97ED107A77EE277AC7ED22
:100D9000107A97ED057AD7ED047A37EE277AD7EDFA
:100DA000067A67EE277A97ED107A77EE277AC7ED05
:100DB000107A304B1B684FF4FA71184608F0CCFDDE
:100DC000D7ED107ADFED2E6A87EEA67A2B4BD3EDA6
:100DD000007A77EE277A294BC3ED007A254B1B6802
:100DE000184608F009FE234B1B684FF4FA711846A9
:100DF00008F0B2FD234B1B684FF4FA71184608F057
:100E0000ABFD1E4BD3ED007AB0EE087AF4EEC77A54
:100E1000F1EE10FA03D51C4B01221A7015E01A4BA3
:100E20001A78164BD3ED007AB2EE007AF4EEC77A58
:100E3000F1EE10FACCBF01230023DBB21340DBB28A
:100E4000002B02D0104B00221A700E4B1B68184664
:100E500008F0D2FD074B1B68184608F0CDFD07F1DE
:100E60000C034FF47A71184608F007FEF5E600BF50
:100E700020F40008340200202E108F4100000020D2
:100E8000000061453C0200200D02002090B587B0B3
:100E900000AF786039603B685B783B733B689B7858
:100EA0007B733B68DB78BB73BB7B18460BF02AFB7C
:100EB00003463B6138693B680433BA7B19460BF043
:100EC00031FBBB7B04333A6813441B783B757B686A
:100ED0001C4607F10C0393E8070084E807007868D4
:100EE0001C37BD4690BD00002DE9F04389B000AF2E
:100EF0003B1D83E807006B461E46BB79591D4B1E00
:100F00007B610A460023904699464FF000024FF05D
:100F100000034FEAC90343EA58734FEAC8020A467E
:100F2000002314461D464FF000024FF00003EB0073
:100F300043EA5473E2000B460733DB08DB00ADEBFA
:100F4000030D6B4600333B613B69FF221A703A790F
:100F50003B695A707A793B699A70BA793B69DA7061
:100F60000023BB610AE0BA68BB691A44BB69043359
:100F700011783A69D154BB690133BB61BB791A4618
:100F8000BB699342EFDBBB790433397B3A69D154B7
:100F90000123FB773B790A2B0CD1BB799BB205333C
:100FA0009AB24FF47A7339690D4806F0F2F80346A5
:100FB000FB770EE03B79282B0BD1BB799BB2053335
:100FC0009AB24FF47A733969064806F0E2F803469C
:100FD000FB77FB7FB54618462437BD46BDE8F08356
:100FE000B4060020F406002080B489B000AF3B1D99
:100FF00083E807000023BB613B791A46BB691344B1
:10100000BB617B791A46BB691344BB61BB791A4645
:10101000BB691344BB610023FB610AE0BA68FB694A
:1010200013441B781A46BB691344BB61FB69013347
:10103000FB61BB791A46FB699342EFDBBB69FB7529
:10104000FB7DDB43DBB218462437BD465DF8047BED
:10105000704780B487B000AF3B1D83E807000023D2
:101060003B613B791A463B6913443B617B791A46E5
:101070003B6913443B61BB791A463B6913443B61AE
:1010800000237B610AE0BA687B6913441B781A4627
:101090003B6913443B617B6901337B61BB791A4631
:1010A0007B699342EFDB3B7B1A463B6913443B6110
:1010B0003B69DBB2FF2B01D1012300E0002318467E
:1010C0001C37BD465DF8047B7047000080B584B0D6
:1010D00000AF78600123FB730123BB7307F10802A3
:1010E000BB7B1146184600F0CBFD0346FB73FB7B30
:1010F000002B01D0FB7B14E03B7A9BB21B029AB21F
:101100007B7A9BB21344BB81BB8907EE903AF8EE21
:10111000677A9FED067A67EE877A7B68C3ED007A7F
:10112000FB7B18461037BD4680BD00BFEB51193B15
:1011300080B584B000AF78600123FB730223BB73DA
:1011400007F10802BB7B1146184600F099FD0346E3
:10115000FB73FB7B002B01D0FB7B14E03B7A9BB243
:101160001B029AB27B7A9BB21344BB81BB8907EE08
:10117000903AF8EE677A9FED067A67EE877A7B6899
:10118000C3ED007AFB7B18461037BD4680BD00BF1B
:101190000000483B80B584B000AF78600123FB734A
:1011A0000523BB7307F10802BB7B1146184600F00C
:1011B00067FD0346FB73FB7B002B01D0FB7B14E038
:1011C0003B7A9BB21B029AB27B7A9BB21344BB81DF
:1011D000BB8907EE903AF8EE677A9FED067A67EEE4
:1011E000877A7B68C3ED007AFB7B18461037BD46D3
:1011F00080BD00BF0000203B80B584B000AF7860A8
:101200000123FB730623BB7307F10802BB7B114666
:10121000184600F035FD0346FB73FB7B002B01D025
:10122000FB7B14E03B7A9BB21B029AB27B7A9BB2A7
:101230001344BB81BB8907EE903AF8EE677A9FEDC5
:10124000067A67EE877A7B68C3ED007AFB7B1846E7
:101250001037BD4680BD00BF0100203A80B584B084
:1012600000AF78600123FB730723BB7307F108020B
:10127000BB7B1146184600F003FD0346FB73FB7B66
:10128000002B01D0FB7B14E03B7A9BB21B029AB28D
:101290007B7A9BB21344BB81BB8907EE903AF8EE90
:1012A000677A9FED067A67EE877A7B68C3ED007AEE
:1012B000FB7B18461037BD4680BD00BF0100203AB9
:1012C00080B584B000AF78600123FB730823BB7343
:1012D00007F10802BB7B1146184600F0D1FC03461B
:1012E000FB73FB7B002B01D0FB7B14E03B7A9BB2B2
:1012F0001B029AB27B7A9BB21344BB81BB8907EE77
:10130000903AF8EE677A9FED067A67EE877A7B6807
:10131000C3ED007AFB7B18461037BD4680BD00BF89
:101320000000203B80B584B000AF78600123FB73E0
:101330000923BB7307F10802BB7B1146184600F076
:101340009FFC0346FB73FB7B002B01D0FB7B14E06F
:101350003B7A9BB21B029AB27B7A9BB21344BB814D
:10136000BB8907EE903AF8EE677A9FED067A67EE52
:10137000877A7B68C3ED007AFB7B18461037BD4641
:1013800080BD00BF0100203A80B584B000AF786016
:101390000123FB730A23BB7307F10802BB7B1146D1
:1013A000184600F06DFC0346FB73FB7B002B01D05D
:1013B000FB7B14E03B7A9BB21B029AB27B7A9BB216
:1013C0001344BB81BB8907EE903AF8EE677A9FED34
:1013D000067A67EE877A7B68C3ED007AFB7B184656
:1013E0001037BD4680BD00BF0100203A80B584B0F3
:1013F00000AF78600123FB730B23BB7307F1080276
:10140000BB7B1146184600F03BFC0346FB73FB7B9D
:10141000002B01D0FB7B14E03B7A9BB21B029AB2FB
:101420007B7A9BB21344BB81BB8907EE903AF8EEFE
:10143000677A9FED067A67EE877A7B68C3ED007A5C
:10144000FB7B18461037BD4680BD00BF0000203B27
:1014500080B584B000AF78600123FB730C23BB73AD
:1014600007F10802BB7B1146184600F009FC034651
:10147000FB73FB7B002B01D0FB7B14E03B7A9BB220
:101480001B029AB27B7A9BB21344BB81BB8907EEE5
:10149000903AF8EE677A9FED067A67EE877A7B6876
:1014A000C3ED007AFB7B18461037BD4680BD00BFF8
:1014B0000100203A80B584B000AF78600123FB734F
:1014C0000D23BB7307F10802BB7B1146184600F0E1
:1014D000D7FB0346FB73FB7B002B01D0FB7B14E0A7
:1014E0003B7A9BB21B029AB27B7A9BB21344BB81BC
:1014F000BB8907EE903AF8EE677A9FED067A67EEC1
:10150000877A7B68C3ED007AFB7B18461037BD46AF
:1015100080BD00BF0100203A80B584B000AF786084
:101520000123FB730E23BB7307F10802BB7B11463B
:10153000184600F0A5FB0346FB73FB7B002B01D094
:10154000FB7B14E03B7A9BB21B029AB27B7A9BB284
:101550001344BB81BB8907EE903AF8EE677A9FEDA2
:10156000067A67EE877A7B68C3ED007AFB7B1846C4
:101570001037BD4680BD00BF5555053B80B584B0D2
:1015800000AF78600123FB730F23BB7307F10802E0
:10159000BB7B1146184600F073FB0346FB73FB7BD5
:1015A000002B01D0FB7B14E03B7A9BB21B029AB26A
:1015B0007B7A9BB21344BB81BB8907EE903AF8EE6D
:1015C000677A9FED067A67EE877A7B68C3ED007ACB
:1015D000FB7B18461037BD4680BD00BF5555053B07
:1015E00080B584B000AF78600123FB731223BB7316
:1015F00007F10802BB7B1146184600F041FB034689
:10160000FB73FB7B002B01D0FB7B1CE03B7A9BB286
:101610001B029AB27B7A9BB21344BB81BB8907EE53
:10162000903AF8EE677A9FED0A7A67EE877A9FED37
:10163000097A37EEC77ADFED086AC7EE267A7B684B
:10164000C3ED007AFB7B18461037BD4680BD00BF56
:101650000100203A7F6A7C3F1EA7683B80B584B0BA
:1016600000AF78600123FB731323BB7307F10802FB
:10167000BB7B1146184600F003FB0346FB73FB7B64
:10168000002B01D0FB7B14E03B7A9BB21B029AB289
:101690007B7A9BB21344BB81BB8907EE903AF8EE8C
:1016A000677A9FED067A67EE877A7B68C3ED007AEA
:1016B000FB7B18461037BD4680BD00BF0000803B55
:1016C00080B584B000AF78600123FB731423BB7333
:1016D00007F10802BB7B1146184600F0D1FA034619
:1016E000FB73FB7B002B01D0FB7B14E03B7A9BB2AE
:1016F0001B029AB27B7A9BB21344BB81BB8907EE73
:10170000903AF8EE677A9FED067A67EE877A7B6803
:10171000C3ED007AFB7B18461037BD4680BD00BF85
:101720000000803B80B584B000AF78600123FB737C
:101730001523BB7307F10802BB7B1146184600F066
:101740009FFA0346FB73FB7B002B01D0FB7B14E06D
:101750003B7A9BB21B029AB27B7A9BB21344BB8149
:10176000BB8907EE903AF8EE677A9FED067A67EE4E
:10177000877A7B68C3ED007AFB7B18461037BD463D
:1017800080BD00BF0000803B80B584B000AF7860B2
:101790000123FB731623BB7307F10802BB7B1146C1
:1017A000184600F06DFA0346FB73FB7B002B01D05B
:1017B000FB7B14E03B7A9BB21B029AB27B7A9BB212
:1017C0001344BB81BB8907EE903AF8EE677A9FED30
:1017D000067A67EE877A7B68C3ED007AFB7B184652
:1017E0001037BD4680BD00BF0000803B80B584B08F
:1017F00000AF78600123FB731723BB7307F10C0262
:10180000BB7B1146184600F03BFA0346FB73FB7B9B
:10181000002B01D0FB7B0AE03B7B9BB21B029AB200
:101820007B7B9BB213449AB27B681A80FB7B184681
:101830001037BD4680BD80B584B000AF786001230D
:10184000FB731823BB7307F10C02BB7B11461846D0
:1018500000F016FA0346FB73FB7B002B01D0FB7BE9
:101860000AE03B7B9BB21B029AB27B7B9BB2134488
:101870009AB27B681A80FB7B18461037BD4680BD44
:1018800080B584B000AF78600123FB731823BB736D
:1018900007F10C02BB7B1146184600F0F1F9034634
:1018A000FB73FB7B002B01D0FB7B0AE03B7B9BB2F5
:1018B0001B029AB27B7B9BB213449AB27B681A805C
:1018C000FB7B18461037BD4680BD80B584B000AFA5
:1018D00078600123FB731A23BB7307F10C02BB7BF7
:1018E0001146184600F0CCF90346FB73FB7B002B36
:1018F00001D0FB7B0AE03B7B9BB21B029AB27B7B55
:101900009BB213449AB27B681A80FB7B184610374F
:10191000BD4680BD80B584B000AF78600123FB7305
:101920001B23BB7307F10C02BB7B1146184600F06A
:10193000A7F90346FB73FB7B002B01D0FB7B0AE07E
:101940003B7B9BB21B029AB27B7B9BB213449AB245
:101950007B681A80FB7B18461037BD4680BD80B57A
:1019600084B000AF78600123FB731C23BB7307F1C5
:101970000C02BB7B1146184600F082F90346FB734C
:10198000FB7B002B01D0FB7B0AE03B7B9BB21B0265
:101990009AB27B7B9BB213449AB27B681A80FB7B22
:1019A00018461037BD4680BD80B584B000AF786062
:1019B0000123FB731D23BB7307F10C02BB7B114694
:1019C000184600F05DF90346FB73FB7B002B01D04A
:1019D000FB7B0AE03B7B9BB21B029AB27B7B9BB2F8
:1019E00013449AB27B681A80FB7B18461037BD46B9
:1019F00080BD80B584B000AF78600123FB733023D5
:101A0000BB7307F10C02BB7B1146184600F038F996
:101A10000346FB73FB7B002B01D0FB7B0AE03B7B87
:101A20009BB21B029AB27B7B9BB213449AB27B6837
:101A30001A80FB7B18461037BD4680BD80B584B048
:101A400000AF78600123FB732B23BB7307F10C02FB
:101A5000BB7B1146184600F013F90346FB73FB7B72
:101A6000002B01D0FB7B0AE03B7B9BB21B029AB2AE
:101A70007B7B9BB213449AB27B681A80FB7B18462F
:101A80001037BD4680BD80B584B000AF78600123BB
:101A9000FB732C23BB7307F10C02BB7B114618466A
:101AA00000F0EEF80346FB73FB7B002B01D0FB7BC1
:101AB0000AE03B7B9BB21B029AB27B7B9BB2134436
:101AC0009AB27B681A80FB7B18461037BD4680BDF2
:101AD00080B500AF0121012000F036F90346184619
:101AE00080BD80B500AF0221012000F02DF9034632
:101AF000184680BD80B500AF0121042000F024F914
:101B00000346184680BD80B500AF0221042000F0D6
:101B10001BF90346184680BD80B500AF012108209F
:101B200000F012F90346184680BD80B500AF0021D1
:101B3000082000F009F90346184680BD80B500AFC3
:101B40000121092000F000F90346184680BD80B548
:101B500000AF0021092000F0F7F80346184680BDC9
:101B600080B500AF01210A2000F0EEF803461846C8
:101B700080BD80B500AF00210A2000F0E5F80346E3
:101B8000184680BD80B500AF01210B2000F0DCF8C5
:101B90000346184680BD80B500AF00210B2000F041
:101BA000D3F80346184680BD80B500AF01210C2054
:101BB00000F0CAF80346184680BD80B500AF00218A
:101BC0000C2000F0C1F80346184680BD80B500AF78
:101BD00001210E2000F0B8F80346184680BD80B5FC
:101BE00000AF00210E2000F0AFF80346184680BD7C
:101BF00080B500AF01210F2000F0A6F8034618467B
:101C000080BD80B500AF00210F2000F09DF8034695
:101C1000184680BD80B500AF0121102000F094F877
:101C20000346184680BD80B500AF0021102000F0AB
:101C30008BF80346184680BD80B500AF0121112006
:101C400000F082F80346184680BD80B500AF002141
:101C5000112000F079F80346184680BD80B500AF2A
:101C60000121122000F070F80346184680BD80B5AF
:101C700000AF0021122000F067F80346184680BD2F
:101C800080B586B002AF03463960FB712A4B1B68F2
:101C900040F6C411184607F05FFE0123FB73FA1DDE
:101CA0006423009301233021244801F043FF0346BD
:101CB000FB73FB7B002B17D0214B1B684FF4FA7191
:101CC000184607F049FE1F4B1B6801331D4A13607D
:101CD0001B4B1B68184607F08FFE174B1B681846F6
:101CE00007F08AFEFB7B23E06423009302233A681B
:101CF0003021124802F02CF80346FB73FB7B002BCB
:101D000010D00F4B1B684FF4FA71184607F024FEF1
:101D10000C4B1B6801330B4A1360094B1B681846B8
:101D200007F06AFE044B1B68184607F065FEFB7B54
:101D300018461037BD4680BD2802002098020020BA
:101D4000300200200802002080B586B002AF0346B2
:101D50000A46FB711346BB711A4B1B6840F2DC51FB
:101D6000184607F0F9FD0123FB73FB793B73BB7940
:101D70007B7307F10C026423009302233021124885
:101D800001F0D8FE0346FB73FB7B002B10D00F4BFA
:101D90001B684FF4FA71184607F0DEFD0C4B1B6808
:101DA00001330B4A1360094B1B68184607F024FEE9
:101DB000044B1B68184607F01FFEFB7B18461037C4
:101DC000BD4680BD2802002098020020300200207D
:101DD0000802002080B584B000AF0A233B71FF23C6
:101DE0007B710223BB7102200AF08CFB0346BB60AF
:101DF000BB68FF221A70BB680133FF221A703B1DBB
:101E000093E80700FFF7F0F803463B733B1D93E8A8
:101E10000700FFF769F8034618461037BD4680BD36
:101E200090B5A9B000AF3B1D83E807003B79282B94
:101E300048DC0A2BC0F2DF860A3B1E2B00F2DB8651
:101E400001A252F823F000BFFD2B0008F72B000879
:101E5000F72B0008F72B0008F72B0008F72B0008DA
:101E6000F72B0008F72B0008F72B0008F72B0008CA
:101E7000FD2B0008F72B0008F72B0008F72B0008B4
:101E8000F72B0008F72B0008F72B0008F72B0008AA
:101E9000F72B0008F72B0008CF1E0008F72B0008CF
:101EA000F72B0008F72B0008F72B0008F72B00088A
:101EB000F72B0008F72B0008F72B0008F72B00087A
:101EC000FD2B00085A2B00F09B8600F094BE7B7916
:101ED000013B102B00F2968601A252F823F000BFBE
:101EE000251F0008052C0008FF1F0008052C00080E
:101EF00037210008052C00086F220008052C000877
:101F0000A7230008052C00088F240008052C0008D2
:101F100057260008052C000879270008052C000822
:101F2000D328000807F168031846FFF7CFF80346E7
:101F300087F89F3097F89F30002B03D04FF0FF3386
:101F400000F062BE07F164031846FFF7F1F803469C
:101F500087F89F3097F89F30002B03D04FF0FF3366
:101F600000F052BED7ED1A7AB0EE670A00F0B6FE66
:101F70000346A7F87C30D7ED197AB0EE670A00F077
:101F8000ADFE0346A7F87A301E2387F86C30002395
:101F900087F86D30042387F86E3004200AF0B2FA17
:101FA00003463B67B7F87C301B0A9AB23B6FD2B24C
:101FB0001A703B6F0133B7F87C20D2B21A70B7F8B1
:101FC0007A301B0A9AB23B6F0233D2B21A703B6F5F
:101FD0000333B7F87A20D2B21A7007F16C0393E892
:101FE0000700FFF701F8034687F8743007F16C0328
:101FF00093E80700FEF778FF034600F005BE07F1FF
:1020000060031846FFF7C6F8034687F89F3097F835
:102010009F30002B03D04FF0FF3300F0F5BD07F1E8
:102020005C031846FFF7E8F8034687F89F3097F8F7
:102030009F30002B03D04FF0FF3300F0E5BD07F1D8
:1020400058031846FFF70AF9034687F89F3097F8B8
:102050009F30002B03D04FF0FF3300F0D5BDD7EDFC
:10206000187AB0EE670A00F039FE0346A7F882300E
:10207000D7ED177AB0EE670A00F030FE0346A7F8F6
:102080008030D7ED167AB0EE670A00F027FE0346DF
:10209000A7F87E301E2387F86C30022387F86D3056
:1020A000062387F86E3006200AF02CFA03463B67B9
:1020B000B7F882301B0A9AB23B6FD2B21A703B6FEC
:1020C0000133B7F88220D2B21A70B7F880301B0AF9
:1020D0009AB23B6F0233D2B21A703B6F0333B7F838
:1020E0008020D2B21A70B7F87E301B0A9AB23B6FCA
:1020F0000433D2B21A703B6F0533B7F87E20D2B2E8
:102100001A7007F16C0393E80700FEF76DFF0346B2
:1021100087F8743007F16C0393E80700FEF7E4FEDC
:10212000034687F89F303B6F18460AF0F3F997F89B
:102130009F3000F069BD07F154031846FFF7C0F85F
:10214000034687F89F3097F89F30002B03D04FF05D
:10215000FF3300F059BD07F150031846FFF7E2F8CE
:10216000034687F89F3097F89F30002B03D04FF03D
:10217000FF3300F049BD07F14C031846FFF704F99F
:10218000034687F89F3097F89F30002B03D04FF01D
:10219000FF3300F039BDD7ED157AB0EE670A00F0D5
:1021A0009DFD0346A7F88830D7ED147AB0EE670A94
:1021B00000F094FD0346A7F88630D7ED137AB0EE11
:1021C000670A00F08BFD0346A7F884301E2387F8CA
:1021D0006C30042387F86D30062387F86E300620B4
:1021E0000AF090F903463B67B7F888301B0A9AB2A9
:1021F0003B6FD2B21A703B6F0133B7F88820D2B26E
:102200001A70B7F886301B0A9AB23B6F0233D2B20B
:102210001A703B6F0333B7F88620D2B21A70B7F842
:1022200084301B0A9AB23B6F0433D2B21A703B6FF0
:102230000533B7F88420D2B21A7007F16C0393E823
:102240000700FEF7D1FE034687F8743007F16C03F0
:1022500093E80700FEF748FE034687F89F303B6F80
:1022600018460AF057F997F89F3000F0CDBC07F1F7
:1022700048031846FFF7BAF8034687F89F3097F8E7
:102280009F30002B03D04FF0FF3300F0BDBC07F1AF
:1022900044031846FFF7DCF8034687F89F3097F8A9
:1022A0009F30002B03D04FF0FF3300F0ADBC07F19F
:1022B00040031846FFF7FEF8034687F89F3097F86B
:1022C0009F30002B03D04FF0FF3300F09DBCD7EDC3
:1022D000127AB0EE670A00F001FD0346A7F88E30CF
:1022E000D7ED117AB0EE670A00F0F8FC0346A7F8C4
:1022F0008C30D7ED107AB0EE670A00F0EFFC0346A1
:10230000A7F88A301E2387F86C30062387F86D30D3
:10231000062387F86E3006200AF0F4F803463B6780
:10232000B7F88E301B0A9AB23B6FD2B21A703B6F6D
:102330000133B7F88E20D2B21A70B7F88C301B0A6E
:102340009AB23B6F0233D2B21A703B6F0333B7F8C5
:102350008C20D2B21A70B7F88A301B0A9AB23B6F3F
:102360000433D2B21A703B6F0533B7F88A20D2B269
:102370001A7007F16C0393E80700FEF735FE034679
:1023800087F8743007F16C0393E80700FEF7ACFDA3
:10239000034687F89F303B6F18460AF0BBF897F862
:1023A0009F3000F031BC07F13C031846FFF7B4F84A
:1023B000034687F89F3097F89F30002B03D04FF0EB
:1023C000FF3300F021BC07F138031846FFF7D6F8B9
:1023D000034687F89F3097F89F30002B03D04FF0CB
:1023E000FF3300F011BCD7ED0F7AB0EE670A00F0B2
:1023F00075FC0346A7F89230D7ED0E7AB0EE670A67
:1024000000F06CFC0346A7F890301E2387F86C3070
:10241000082387F86D30042387F86E3004200AF013
:1024200071F803463B67B7F892301B0A9AB23B6FCC
:10243000D2B21A703B6F0133B7F89220D2B21A7041
:10244000B7F890301B0A9AB23B6F0233D2B21A70BF
:102450003B6F0333B7F89020D2B21A7007F16C03C8
:1024600093E80700FEF7C0FD034687F8743007F1D4
:102470006C0393E80700FEF737FD034687F89F30AB
:102480003B6F18460AF046F897F89F30BCE307F117
:1024900034031846FFF7A4F8034687F89F3097F8EF
:1024A0009F30002B02D04FF0FF33ADE307F1300334
:1024B0001846FFF7D3F8034687F89F3097F89F3008
:1024C000002B02D04FF0FF339EE307F12C03184698
:1024D000FFF7F6F8034687F89F3097F89F30002BF8
:1024E00002D04FF0FF338FE307F128031846FFF7C0
:1024F00019F9034687F89F3097F89F30002B02D0D8
:102500004FF0FF3380E307F124031846FFF73CF94F
:10251000034687F89F3097F89F30002B02D04FF08A
:10252000FF3371E3D7ED0D7AB0EE670A00F0D6FB0A
:102530000346A7F89C30D7ED0C7AB0EE670A00F09E
:10254000CDFB0346A7F89A30D7ED0B7AB0EE670AB9
:1025500000F0C4FB0346A7F89830D7ED0A7AB0EE36
:10256000670A00F0BBFB0346A7F89630D7ED097A5F
:10257000B0EE670A00F0B2FB0346A7F894301E23C2
:1025800087F86C300A2387F86D300A2387F86E309D
:102590000A2009F0B7FF03463B67B7F89C301B0AD7
:1025A0009AB23B6FD2B21A703B6F0133B7F89C20DE
:1025B000D2B21A70B7F89A301B0A9AB23B6F023344
:1025C000D2B21A703B6F0333B7F89A20D2B21A70A6
:1025D000B7F898301B0A9AB23B6F0433D2B21A7024
:1025E0003B6F0533B7F89820D2B21A70B7F896301F
:1025F0001B0A9AB23B6F0633D2B21A703B6F073395
:10260000B7F89620D2B21A70B7F894301B0A9AB273
:102610003B6F0833D2B21A703B6F0933B7F894207E
:10262000D2B21A7007F16C0393E80700FEF7DCFCE6
:10263000034687F8743007F16C0393E80700FEF750
:1026400053FC034687F89F303B6F184609F062FF42
:1026500097F89F30D8E207F122031846FFF7C6F833
:10266000034687F89F3097F89F30002B02D04FF039
:10267000FF33C9E207F120031846FFF7DCF80346F1
:1026800087F89F3097F89F30002B02D04FF0FF3330
:10269000BAE207F11E031846FFF7F2F8034687F87F
:1026A0009F3097F89F30002B02D04FF0FF33ABE202
:1026B00007F11C031846FFF7C1F9034687F89F305E
:1026C00097F89F30002B02D04FF0FF339CE207F1C8
:1026D0001A031846FFF7D7F9034687F89F3097F893
:1026E0009F30002B02D04FF0FF338DE21E2387F87E
:1026F0006C300C2387F86D30062387F86E30062087
:1027000009F000FF03463B677A8C3B6FD2B21A7028
:102710003B8C1B0A9AB23B6F0133D2B21A703A8CCF
:102720003B6F0233D2B21A70FA8B3B6F0333D2B2D3
:102730001A70BA8B3B6F0433D2B21A707A8B3B6F2C
:102740000533D2B21A7007F16C0393E80700FEF765
:102750004BFC034687F8743007F16C0393E80700DD
:10276000FEF7C2FB034687F89F303B6F184609F01F
:10277000D1FE97F89F3047E207F118031846FFF79C
:10278000A4F8034687F89F3097F89F30002B02D0BB
:102790004FF0FF3338E207F116031846FFF7BAF897
:1027A000034687F89F3097F89F30002B02D04FF0F8
:1027B000FF3329E207F114031846FFF7D0F8034668
:1027C00087F89F3097F89F30002B02D04FF0FF33EF
:1027D0001AE207F112031846FFF7E6F8034687F8F6
:1027E0009F3097F89F30002B02D04FF0FF330BE261
:1027F00007F110031846FFF7FCF8034687F89F30EF
:1028000097F89F30002B02D04FF0FF33FCE11E23DE
:1028100087F86C300E2387F86D300A2387F86E3006
:102820000A2009F06FFE03463B673B8B1B0A9AB2F6
:102830003B6FD2B21A703A8B3B6F0133D2B21A702F
:10284000FB8A1B0A9AB23B6F0233D2B21A70FA8A21
:102850003B6F0333D2B21A70BB8A1B0A9AB23B6F2A
:102860000433D2B21A70BA8A3B6F0533D2B21A70EF
:102870007B8A1B0A9AB23B6F0633D2B21A707A8AED
:102880003B6F0733D2B21A703B8A1B0A9AB23B6F76
:102890000833D2B21A703A8A3B6F0933D2B21A7037
:1028A00007F16C0393E80700FEF79EFB034687F8E9
:1028B000743007F16C0393E80700FEF715FB03463D
:1028C00087F89F303B6F184609F024FE97F89F3039
:1028D0009AE11E2387F86C30102387F86D300123AE
:1028E00087F86E30012009F00DFE03463B673B1D63
:1028F00093E80700FEF7ADFB0346002B03D13B6FC7
:1029000000221A705EE1BB681B78013B0E2B00F2BF
:10291000598101A252F823F055290008C52B00085F
:10292000C52B000889290008C52B0008BD2900080F
:10293000F1290008252A0008592A00088D2A0008D4
:10294000C12A0008F52A0008292B00085D2B000881
:10295000912B0008BB6801331B78002B05D13C6F1D
:10296000FFF7BFF8034623702CE1BB6801331B78E7
:10297000012B05D13C6FFFF7ABF80346237021E133
:102980003B6F00221A701DE1BB6801331B78002BDE
:1029900005D13C6FFFF7B7F80346237012E1BB681F
:1029A00001331B78012B05D13C6FFFF7A3F80346D9
:1029B000237007E13B6F00221A7003E1BB6801330B
:1029C0001B78002B05D13C6FFFF7AFF8034623704F
:1029D000F8E0BB6801331B78012B05D13C6FFFF792
:1029E0009BF803462370EDE03B6F00221A70E9E08C
:1029F000BB6801331B78002B05D13C6FFFF7A7F8AC
:102A000003462370DEE0BB6801331B78012B05D140
:102A10003C6FFFF793F803462370D3E03B6F00222F
:102A20001A70CFE0BB6801331B78002B05D13C6FD7
:102A3000FFF79FF803462370C4E0BB6801331B789F
:102A4000012B05D13C6FFFF78BF803462370B9E0EB
:102A50003B6F00221A70B5E0BB6801331B78002B76
:102A600005D13C6FFFF797F803462370AAE0BB68D7
:102A700001331B78012B05D13C6FFFF783F8034628
:102A800023709FE03B6F00221A709BE0BB6801330C
:102A90001B78002B05D13C6FFFF78FF8034623709E
:102AA00090E0BB6801331B78012B05D13C6FFFF729
:102AB0007BF80346237085E03B6F00221A7081E0AB
:102AC000BB6801331B78002B05D13C6FFFF787F8FB
:102AD0000346237076E0BB6801331B78012B05D1D8
:102AE0003C6FFFF773F8034623706BE03B6F0022E7
:102AF0001A7067E0BB6801331B78002B05D13C6F6F
:102B0000FFF77FF8034623705CE0BB6801331B7856
:102B1000012B05D13C6FFFF76BF80346237051E0A2
:102B20003B6F00221A704DE0BB6801331B78002B0D
:102B300005D13C6FFFF777F80346237042E0BB688E
:102B400001331B78012B05D13C6FFFF763F8034677
:102B5000237037E03B6F00221A7033E0BB6801330B
:102B60001B78002B05D13C6FFFF76FF803462370ED
:102B700028E0BB6801331B78012B05D13C6FFFF7C0
:102B80005BF8034623701DE03B6F00221A7019E0CA
:102B9000BB6801331B78002B05D13C6FFFF767F84A
:102BA000034623700DE0BB6801331B78012B05D170
:102BB0003C6FFFF753F80346237002E03B6F00229F
:102BC0001A7000BF07F16C0393E80700FEF70CFAD8
:102BD000034687F8743007F16C0393E80700FEF7AB
:102BE00083F9034687F89F303B6F184609F092FC43
:102BF00097F89F3008E04FF0FF3305E000BF02E098
:102C000000BF00E000BF00231846A437BD4690BDBA
:102C10000FB42DE9F04188B000AF6B4698464FF4F1
:102C20000073BB61BE693346013B7B6100233446C0
:102C30001D464FF000024FF00003EB0043EA5473CF
:102C4000E2000023304619464FF000024FF0000327
:102C5000CB0043EA5073C200F31DDB08DB00ADEB91
:102C6000030D6B4600333B6107F13C03BB60BB685F
:102C7000BA6BB96938690AF0F1F9F8600123FB779A
:102C8000FB68002B1BDDFB689AB24FF47A7339693D
:102C9000104804F07EFA0346FB770F4A3B1D12688A
:102CA000114619800233120C1A70391D4FF47A73D1
:102CB0000222084804F06DFA0346FB7701E0012385
:102CC000FB77FB7FC54618462037BD46BDE8F0417F
:102CD00004B07047F406002048F4000880B485B0C2
:102CE00000AF87ED010A3B1D1B68FB60FB681B0CF6
:102CF0009BB223F4FF4323F07F039AB2FB6803F0F7
:102D0000FF4303F148435B0B9BB203F4F8439BB2D0
:102D100013439AB2FB685B0B9BB2C3F309039BB2EC
:102D200013439BB218461437BD465DF8047B7047C9
:102D3000B0B59CB000AF00F021F905F06DFD05F0D5
:102D4000EDFD05F087FF05F0FDFF05F0D1FF06F072
:102D500023F805F0ADFF06F025F90023FB6616E029
:102D60004A4B5B69494A43F0100353614FF4FA70D0
:102D700000F040F9454B5B69444A23F0100353616E
:102D80004FF4FA7000F036F9FB6E0133FB66FB6E10
:102D9000042BE5DD3E48FFF73BFF0023BB6607F150
:102DA0006803184606F0CBFD03463A4A1360002339
:102DB0007B6607F16403184606F0C1FD0346364AF8
:102DC000136000233B6607F16003184606F0B7FD69
:102DD0000346324A13600023FB6507F15C03184683
:102DE00006F0ADFD03462E4A13600023BB6507F1D4
:102DF0005803184606F0A3FD03462A4A1360002331
:102E00007B6507F15403184606F099FD0346264AF0
:102E10001360264B07F140041D460FCD0FC42B68ED
:102E2000236007F140030021184606F04DFD204BBA
:102E300007F12C041D460FCD0FC42B68236007F14A
:102E40002C030021184606F03FFD1A4B07F1180429
:102E50001D460FCD0FC42B68236007F11803002116
:102E6000184606F031FD144B3C1D1D460FCD0FC416
:102E70002B6823603B1D0021184606F025FD06F057
:102E80000CFD002318467037BD46B0BD0008024057
:102E9000E0F40008280200202C020020300200206C
:102EA00034020020380200203C020020E4F4000834
:102EB000F8F400080CF5000820F5000880B582B091
:102EC00000AF78607B681B68044A934201D100F030
:102ED00077F800BF0837BD4680BD00BF0000014045
:102EE00080B500AF104B5B690F4A43F0100353618C
:102EF0000D4B5B690C4A43F0200353614FF4FA60B9
:102F000000F078F8084B5B69074A23F0100353611F
:102F1000054B5B69044A23F0200353614FF4FA60C8
:102F200000F068F8DEE700BF0008024080B586B018
:102F300000AF78607B680F4A934216D107F10C030B
:102F40000D491846FDF7A2FF07F10C0393E80700AF
:102F5000FEF766FF0346B3F1FF3F01D1FEF73AFFEC
:102F600004220549034804F0ADF900BF1837BD46F7
:102F700080BD00BFF40600201402002080B500AF21
:102F80000E4B1B680D4A43F4007313600B4B1B6818
:102F90000A4A43F480631360084B1B68074A43F4F2
:102FA00080731360032000F00FF90F2006F0EEFA93
:102FB00006F010F90023184680BD00BF003C024017
:102FC00080B400AF044B1B680133034A136000BF99
:102FD000BD465DF8047B70474C02002080B400AF12
:102FE000034B1B681846BD465DF8047B704700BF65
:102FF0004C02002080B584B000AF7860FFF7EEFF90
:10300000B8607B68FB60FB68B3F1FF3F02D0FB68F0
:103010000133FB6000BFFFF7E1FF0246BB68D31A34
:10302000FA689A42F7D800BF00BF1037BD4680BD8E
:1030300080B485B000AF78607B6803F00703FB6065
:103040000C4BDB68BB60BA684FF6FF031340BB60F4
:10305000FB681A02BB68134343F0BF6343F40033B9
:10306000BB60044ABB68D36000BF1437BD465DF83F
:10307000047B704700ED00E080B400AF044BDB68D8
:103080001B0A03F007031846BD465DF8047B704732
:1030900000ED00E080B483B000AF0346FB71FB7924
:1030A00003F01F02074997F907305B09012000FA76
:1030B00002F241F8232000BF0C37BD465DF8047BC7
:1030C000704700BF00E100E080B483B000AF03466A
:1030D0003960FB7197F90730002B0BDA3B68DAB2E5
:1030E0000C49FB7903F00F03043B1201D2B20B44ED
:1030F0001A7609E03B68DAB2074997F907301201FE
:10310000D2B20B4483F8002300BF0C37BD465DF8F4
:10311000047B704700ED00E000E100E080B489B07E
:1031200000AFF860B9607A60FB6803F00703FB61E9
:10313000FB69C3F10703042B28BF0423BB61FB69B0
:103140000433062B02D9FB69033B00E000237B61BB
:103150004FF0FF32BB6902FA03F3DA43BB681A404F
:103160007B699A404FF0FF317B6901FA03F3D94341
:103170007B680B40134318462437BD465DF8047B3B
:103180007047000080B582B000AF78607B68013B7B
:10319000B3F1807F01D301230FE00A4A7B68013B32
:1031A00053600F214FF0FF30FFF78EFF054B0022D9
:1031B0009A60044B07221A60002318460837BD4660
:1031C00080BD00BF10E000E080B582B000AF786045
:1031D0007868FFF72DFF00BF0837BD4680BD80B57A
:1031E00086B000AF0346B9607A60FB7300237B6151
:1031F000FFF742FF78617A68B9687869FFF78EFF58
:10320000024697F90F3011461846FFF75DFF00BFE1
:103210001837BD4680BD80B582B000AF0346FB7154
:1032200097F907301846FFF735FF00BF0837BD464E
:1032300080BD80B582B000AF78607868FFF7A2FFEC
:10324000034618460837BD4680BD000080B483B0F1
:1032500000AF78607B68042B06D1094B1B68084AD5
:1032600043F00403136005E0054B1B68044A23F098
:103270000403136000BF0C37BD465DF8047B704744
:1032800010E000E080B483B000AF78607B6893F812
:103290003530DBB2022B04D07B6880225A650123D3
:1032A0000CE07B68052283F835207B681B681A6870
:1032B0007B681B6822F001021A60002318460C3755
:1032C000BD465DF8047B704780B586B000AF78607E
:1032D0000023BB608E4B1B688E4AA2FB03239B0A14
:1032E0007B617B689B6D3B613B691B68FB607B6816
:1032F000DB6D08229A40FB681340002B1AD07B68D4
:103300001B681B6803F00403002B13D07B681B6849
:103310001A687B681B6822F004021A607B68DB6D08
:1033200008229A403B699A607B685B6D43F001021A
:103330007B685A657B68DB6D774A9A40FB6813406F
:10334000002B12D07B681B685B6903F08003002BA5
:103350000BD07B68DB6D704A9A403B699A607B6852
:103360005B6D43F002027B685A657B68DB6D6B4ADC
:103370009A40FB681340002B12D07B681B681B68C7
:1033800003F00203002B0BD07B68DB6D634A9A408D
:103390003B699A607B685B6D43F004027B685A6509
:1033A0007B68DB6D10229A40FB681340002B43D0F2
:1033B0007B681B681B6803F00803002B3CD07B680C
:1033C000DB6D10229A403B699A607B681B681B6822
:1033D00003F48023002B18D07B681B681B6803F460
:1033E0000023002B08D17B681B6C002B24D07B684A
:1033F0001B6C786898471FE07B689B6C002B1BD088
:103400007B689B6C7868984716E07B681B681B6834
:1034100003F48073002B07D17B681B681A687B68F4
:103420001B6822F008021A607B681B6C002B03D01B
:103430007B681B6C786898477B68DB6D20229A401C
:10344000FB681340002B00F093807B681B681B68AF
:1034500003F01003002B00F08B807B68DB6D2022D3
:103460009A403B699A607B6893F83530DBB2052B54
:1034700037D17B681B681A687B681B6822F01602CC
:103480001A607B681B685A697B681B6822F080029F
:103490005A617B681B6C002B03D17B689B6C002BF3
:1034A00007D07B681B681A687B681B6822F00802DB
:1034B0001A607B68DB6D3F229A403B699A607B68AB
:1034C000002283F834207B68012283F835207B6852
:1034D0001B6D002B00F082807B681B6D786898471D
:1034E0007CE07B681B681B6803F48023002B20D0E2
:1034F0007B681B681B6803F40023002B10D17B68DA
:103500005B6C002B34D07B685B6C786898472FE04D
:1035100014000020B5814E1B0100800004008000D3
:103520007B68DB6B002B23D07B68DB6B786898476C
:103530001EE07B681B681B6803F48073002B0FD1AF
:103540007B681B681A687B681B6822F010021A608F
:103550007B68002283F834207B68012283F83520C1
:103560007B68DB6B002B03D07B68DB6B786898474C
:103570007B685B6D002B32D07B685B6D03F00103D1
:10358000002B22D07B68052283F835207B681B68DE
:103590001A687B681B6822F001021A60BB6801335D
:1035A000BB607A699A4207D37B681B681B6803F08B
:1035B0000103002BF2D100E000BF7B68002283F8FA
:1035C00034207B68012283F835207B68DB6C002B7C
:1035D00005D07B68DB6C7868984700E000BF18373F
:1035E000BD4680BD80B489B000AF786039600023EB
:1035F0007B6100233B610023BB610023FB6177E11A
:103600000122FB6902FA03F37B613B681B687A695C
:1036100013403B613A697B699A4240F066813B689E
:103620005B68022B03D03B685B68122B23D1FB69DC
:10363000DA087B68083253F82230BB61FB6903F07B
:1036400007039B000F2202FA03F3DB43BA6913401E
:10365000BB613B681A69FB6903F007039B0002FA30
:1036600003F3BA691343BB61FB69DA087B6808326C
:10367000B96943F822107B681B68BB61FB695B007A
:10368000032202FA03F3DB43BA691340BB613B68D0
:103690005B6803F00302FB695B0002FA03F3BA699B
:1036A0001343BB617B68BA691A603B685B68012B96
:1036B0000BD03B685B68022B07D03B685B68112B23
:1036C00003D03B685B68122B30D17B689B68BB6181
:1036D000FB695B00032202FA03F3DB43BA69134080
:1036E000BB613B68DA68FB695B0002FA03F3BA6905
:1036F0001343BB617B68BA699A607B685B68BB6196
:103700000122FB6902FA03F3DB43BA691340BB6190
:103710003B685B681B0903F00102FB6902FA03F3D3
:10372000BA691343BB617B68BA695A607B68DB681E
:10373000BB61FB695B00032202FA03F3DB43BA6956
:103740001340BB613B689A68FB695B0002FA03F3B4
:10375000BA691343BB617B68BA69DA603B685B682E
:1037600003F08053002B00F0C0800023FB60664B09
:103770005B6C654A43F480435364634B5B6C03F4B6
:103780008043FB60FB68614AFB699B08023352F887
:103790002330BB61FB6903F003039B000F2202FA95
:1037A00003F3DB43BA691340BB617B68584A934219
:1037B00037D07B68574A934231D07B68564A934250
:1037C0002BD07B68554A934225D07B68544A93425C
:1037D0001FD07B68534A934219D07B68524A934268
:1037E00013D07B68514A93420DD07B68504A934274
:1037F00007D07B684F4A934201D1092312E00A2384
:1038000010E008230EE007230CE006230AE005235E
:1038100008E0042306E0032304E0022302E001237E
:1038200000E00023FA6902F0030292009340BA69B3
:103830001343BB613549FB699B080233BA6941F800
:1038400023203D4B1B68BB613B69DB43BA691340D6
:10385000BB613B685B6803F48033002B03D0BA691B
:103860003B691343BB61344ABB691360324B5B68ED
:10387000BB613B69DB43BA691340BB613B685B6872
:1038800003F40033002B03D0BA693B691343BB61D7
:10389000294ABB695360284B9B68BB613B69DB438A
:1038A000BA691340BB613B685B6803F48013002B6B
:1038B00003D0BA693B691343BB611F4ABB6993607C
:1038C0001D4BDB68BB613B69DB43BA691340BB61DD
:1038D0003B685B6803F40013002B03D0BA693B69B3
:1038E0001343BB61144ABB69D360FB690133FB61BD
:1038F000FB690F2B7FF684AE00BF00BF2437BD46A7
:103900005DF8047B704700BF00380240003801407A
:10391000000002400004024000080240000C024087
:10392000001002400014024000180240001C024037
:103930000020024000240240003C014080B483B0DB
:1039400000AF78600B467B8013467B707B78002B42
:1039500003D07A887B689A6103E07B881A047B68CD
:103960009A6100BF0C37BD465DF8047B70470000CC
:1039700080B584B000AF78600023FB600023BB609B
:103980007B68002B01D10123C9E07B6893F83D30AF
:10399000DBB2002B06D17B68002283F83C207868DC
:1039A00005F04AFC7B68242283F83D207B681B6875
:1039B0001A687B681B6822F001021A6001F0E6FABF
:1039C000B860BB68584AA2FB03239B0CFB607B6872
:1039D0001B68FA685A607B685B68544A934202D855
:1039E000FB68013309E0FB684FF4967202FB03F3B6
:1039F0004F4AA2FB03239B0901337A6812681362C2
:103A00007B685B68494A934213D87B685B685B00BC
:103A1000BA68B2FBF3F240F6FC731340002B06D0F9
:103A20007B685B685B00BA68B2FBF3F345E0042394
:103A300043E07B689B68002B0FD17B685A68134674
:103A40005B001344BA68B2FBF3F3C3F30B03002B20
:103A50000CBF01230023DBB210E07B685A681346D9
:103A60009B0013449A001344BA68B2FBF3F3C3F308
:103A70000B03002B0CBF01230023DBB2002B01D072
:103A800001231AE07B689B68002B0AD17B685A6887
:103A900013465B001344BA68B2FBF3F343F40043EC
:103AA0000BE07B685A6813469B0013449A0013444A
:103AB000BA68B2FBF3F343F440437A681268D36107
:103AC0007B68D9697B681A6A7B681B680A431A603D
:103AD0007B6819697B68DA687B681B680A439A60AF
:103AE0007B6859697B689A697B681B680A43DA605E
:103AF0007B681B681A687B681B6842F001021A60C9
:103B00007B6800221A647B68202283F83D207B6852
:103B100000221A637B68002283F83E2000231846A7
:103B20001037BD4680BD00BF83DE1B43A086010069
:103B3000D34D621080B588B002AFF8607A601A4643
:103B40000B467B8113463B8100237B61FFF746FADE
:103B50007861FB6893F83D30DBB2202B40F0EE80BB
:103B60007B690093192301227749F86800F06CFC07
:103B70000346002B01D00223E1E0FB6893F83C30C0
:103B8000012B01D10223DAE0FB68012283F83C20FB
:103B9000FB681B681B6803F00103012B07D0FB685F
:103BA0001B681A68FB681B6842F001021A60FB6818
:103BB0001B681A68FB681B6822F400621A60FB68C5
:103BC000212283F83D20FB68102283F83E20FB6809
:103BD00000221A64FB687A685A62FB683A895A853F
:103BE000FB685A4ADA62FB685B8D9AB2FB681A85F9
:103BF00079897B693A6AF86800F0DCFA0346002BA1
:103C00000FD0FB681B6C042B05D1FB68002283F8E6
:103C10003C20012393E0FB68002283F83C2003232F
:103C20008DE000233B61FB681B685B693B61FB68BF
:103C30001B689B693B613B6966E07A69396AF86891
:103C400000F0C1FC0346002B0FD0FB681B6C042B5B
:103C500009D1FB681B681A68FB681B6842F4007294
:103C60001A6001236BE0032369E0FB685B6A591C5F
:103C7000FA6851621A78FB681B681A61FB685B8DF1
:103C80009BB2013B9AB2FB685A85FB681B8D013BD6
:103C90009AB2FB681A85FB681B685B6903F0040332
:103CA000042B19D1FB681B8D002B15D0FB685B6AB8
:103CB000591CFA6851621A78FB681B681A61FB6824
:103CC0005B8D9BB2013B9AB2FB685A85FB681B8DEA
:103CD000013B9AB2FB681A857A69396AF86800F084
:103CE000AFFC0346002B0FD0FB681B6C042B09D1E3
:103CF000FB681B681A68FB681B6842F400721A6054
:103D000001231CE003231AE0FB681B8D002B94D1D8
:103D1000FB681B681A68FB681B6842F400721A6033
:103D2000FB68202283F83D20FB68002283F83E20B8
:103D3000FB68002283F83C20002300E002231846A1
:103D40001837BD4680BD00BF020010000000FFFF15
:103D500080B58CB002AFF8607A601A460B467B8162
:103D600013463B8100237B62FFF738F97862FB68DA
:103D700093F83D30DBB2202B40F015827B6A009334
:103D8000192301228549F86800F05EFB0346002BE9
:103D900001D0022308E2FB6893F83C30012B01D1EB
:103DA000022301E2FB68012283F83C20FB681B68C8
:103DB0001B6803F00103012B07D0FB681B681A681E
:103DC000FB681B6842F001021A60FB681B681A68F6
:103DD000FB681B6822F400621A60FB68222283F8E9
:103DE0003D20FB68102283F83E20FB6800221A6405
:103DF000FB687A685A62FB683A895A85FB68684AA8
:103E0000DA62FB685B8D9AB2FB681A8579897B6AF6
:103E10003A6BF86800F050FA0346002B0FD0FB68AD
:103E20001B6C042B05D1FB68002283F83C20012386
:103E3000BAE1FB68002283F83C200323B4E1FB686D
:103E40001B8D002B13D100233B62FB681B685B6951
:103E50003B62FB681B689B693B623B6AFB681B68B3
:103E60001A68FB681B6842F400721A6088E1FB68FC
:103E70001B8D012B1BD1FB681B681A68FB681B6834
:103E800022F480621A600023FB61FB681B685B6997
:103E9000FB61FB681B689B69FB61FB69FB681B6836
:103EA0001A68FB681B6842F400721A6068E1FB68DC
:103EB0001B8D022B1BD1FB681B681A68FB681B68F3
:103EC00022F480621A60FB681B681A68FB681B6832
:103ED00042F400621A600023BB61FB681B685B69E7
:103EE000BB61FB681B689B69BB61BB6948E1FB6800
:103EF0001B681A68FB681B6842F480621A60002322
:103F00007B61FB681B685B697B61FB681B689B6965
:103F10007B617B6934E1FB681B8D032B00F2EB8036
:103F2000FB681B8D012B27D17A6A396BF86800F08A
:103F3000C4FB0346002B07D0FB681B6C202B01D170
:103F4000032331E101232FE1FB681B681869FB683B
:103F50005B6A591CFA685162C2B21A70FB681B8D09
:103F6000013B9AB2FB681A85FB685B8D9BB2013BF3
:103F70009AB2FB685A8503E1FB681B8D022B4AD17C
:103F80007B6A00933B6B00220649F86800F05CFAFC
:103F90000346002B08D0032306E100BF02001000F7
:103FA0000000FFFF04000100FB681B681A68FB6843
:103FB0001B6842F400721A60FB681B681869FB6892
:103FC0005B6A591CFA685162C2B21A70FB681B8D99
:103FD000013B9AB2FB681A85FB685B8D9BB2013B83
:103FE0009AB2FB685A85FB681B681869FB685B6AB4
:103FF000591CFA685162C2B21A70FB681B8D013BF2
:104000009AB2FB681A85FB685B8D9BB2013B9AB242
:10401000FB685A85B4E07B6A00933B6B00226449DD
:10402000F86800F011FA0346002B01D00323BBE02F
:10403000FB681B681A68FB681B6822F480621A60C0
:10404000FB681B681869FB685B6A591CFA68516257
:10405000C2B21A70FB681B8D013B9AB2FB681A85CD
:10406000FB685B8D9BB2013B9AB2FB685A857B6A09
:1040700000933B6B00224E49F86800F0E5F90346D7
:10408000002B01D003238FE0FB681B681A68FB68D4
:104090001B6842F400721A60FB681B681869FB68B1
:1040A0005B6A591CFA685162C2B21A70FB681B8DB8
:1040B000013B9AB2FB681A85FB685B8D9BB2013BA2
:1040C0009AB2FB685A85FB681B681869FB685B6AD3
:1040D000591CFA685162C2B21A70FB681B8D013B11
:1040E0009AB2FB681A85FB685B8D9BB2013B9AB262
:1040F000FB685A8544E07A6A396BF86800F0DDFAAB
:104100000346002B07D0FB681B6C202B01D1032337
:104110004AE0012348E0FB681B681869FB685B6A9A
:10412000591CFA685162C2B21A70FB681B8D013BC0
:104130009AB2FB681A85FB685B8D9BB2013B9AB211
:10414000FB685A85FB681B685B6903F00403042B5A
:1041500016D1FB681B681869FB685B6A591CFA6812
:104160005162C2B21A70FB681B8D013B9AB2FB68A8
:104170001A85FB685B8D9BB2013B9AB2FB685A853E
:10418000FB681B8D002B7FF4C6AEFB68202283F8F2
:104190003D20FB68002283F83E20FB68002283F864
:1041A0003C20002300E0022318462837BD4680BD8E
:1041B0000400010080B588B002AFF8607A603B600F
:1041C0000B467B81FB68DB6A7B617B69042B06D035
:1041D0007B69012B03D07B6913F5803F08D1FB6815
:1041E0001B681A68FB681B6842F480721A600BE057
:1041F000FB681B6B122B07D1FB681B681A68FB68F6
:104200001B6842F480721A603B6800937B6800224E
:104210004FF00111F86800F017F90346002B01D0A8
:10422000032341E0FB681B69B3F5804F08D17B890C
:10423000DBB21A46FB681B6802F0FE021A6121E03D
:104240007B89DB11DBB203F00603DBB263F00F0303
:10425000DAB2FB681B681A613B687A681449F8682F
:1042600000F043F90346002B07D0FB681B6C042BBE
:1042700001D1012318E0032316E07B89DAB2FB6841
:104280001B681A613B687A680A49F86800F02DF9E2
:104290000346002B07D0FB681B6C042B01D10123C4
:1042A00002E0032300E0002318461837BD4680BD16
:1042B000080001000200010080B588B002AFF8607C
:1042C0007A603B600B467B81FB68DB6A7B61FB6845
:1042D0001B681A68FB681B6842F480621A607B697D
:1042E000042B06D07B69012B03D07B6913F5803F3B
:1042F00008D1FB681B681A68FB681B6842F480726F
:104300001A600BE0FB681B6B112B07D1FB681B6865
:104310001A68FB681B6842F480721A603B6800935D
:104320007B6800224FF00111F86800F08DF8034619
:10433000002B01D003237FE0FB681B69B3F5804F9E
:1043400008D17B89DBB243F00103DAB2FB681B685A
:104350001A615FE07B89DB11DBB203F00603DBB29D
:1043600063F00F03DAB2FB681B681A613B687A6876
:104370003349F86800F0B9F80346002B07D0FB6812
:104380001B6C042B01D1012356E0032354E07B89ED
:10439000DAB2FB681B681A613B687A682949F868D9
:1043A00000F0A3F80346002B07D0FB681B6C042B1E
:1043B00001D1012340E003233EE000233B61FB6881
:1043C0001B685B693B61FB681B689B693B613B69E0
:1043D000FB681B681A68FB681B6842F480721A60ED
:1043E0003B6800937B6800224FF00111F86800F0F1
:1043F0002BF80346002B01D003231DE07B89DB1142
:10440000DBB203F00603DBB263F00E03DAB2FB6843
:104410001B681A613B687A680A49F86800F065F819
:104420000346002B07D0FB681B6C042B01D1012332
:1044300002E0032300E0002318461837BD4680BD84
:10444000080001000200010080B584B000AFF860F0
:10445000B9603B601346FB711FE03B68B3F1FF3F5F
:104460001BD03B68002B07D0FEF7B8FD0246BB69A6
:10447000D31A3A689A4210D2FB6800221A63FB688A
:10448000202283F83D20FB68002283F83E20FB6851
:10449000002283F83C20032323E0BB681B0CDBB223
:1044A000012B0DD1FB681B685B69DA43BB681340C5
:1044B0009BB2002B0CBF01230023DBB21A460CE099
:1044C000FB681B689B69DA43BB6813409BB2002BF7
:1044D0000CBF01230023DBB21A46FB799A42BCD001
:1044E000002318461037BD4680BD80B584B000AFAC
:1044F000F860B9607A603B6040E0FB681B685B690C
:1045000003F48063B3F5806F1CD1FB681B681A68E5
:10451000FB681B6842F400721A60FB681B686FF44A
:1045200080625A61FB6804221A64FB6800221A63E5
:10453000FB68202283F83D20FB68002283F83C20A2
:1045400001233CE07B68B3F1FF3F17D07B68002B71
:1045500007D0FEF743FD02463B68D31A7A689A42B9
:104560000CD2FB6800221A63FB68202283F83D20EE
:10457000FB68002283F83C20032320E0BB681B0C6F
:10458000DBB2012B0CD1FB681B685B69DA43BB68AB
:1045900013409BB2002B14BF01230023DBB20BE0BE
:1045A000FB681B689B69DA43BB6813409BB2002B16
:1045B00014BF01230023DBB2002B9ED10023184639
:1045C0001037BD4680BD80B584B000AFF860B960DB
:1045D0007A6029E0F86800F0BAF80346002B01D0B1
:1045E000012329E0BB68B3F1FF3F1DD0BB68002B5E
:1045F00007D0FEF7F3FC02467B68D31ABA689A42EA
:1046000012D2FB681B6C43F02002FB681A64FB6843
:1046100000221A63FB68202283F83D20FB680022F9
:1046200083F83C20032307E0FB681B685B6903F009
:104630008003802BCED1002318461037BD4680BDA5
:1046400080B584B000AFF860B9607A6029E0F8689E
:1046500000F07DF80346002B01D0012329E0BB6860
:10466000B3F1FF3F1DD0BB68002B07D0FEF7B6FCAF
:1046700002467B68D31ABA689A4212D2FB681B6C56
:1046800043F02002FB681A64FB6800221A63FB688F
:10469000202283F83D20FB68002283F83C2003237E
:1046A00007E0FB681B685B6903F00403042BCED1B1
:1046B000002318461037BD4680BD80B584B000AFDA
:1046C000F860B9607A6036E0FB681B685B6903F0EC
:1046D0001003102B14D1FB681B686FF010025A6195
:1046E000FB6800221A64FB6800221A63FB68202220
:1046F00083F83D20FB68002283F83C20012322E060
:10470000BB68002B07D0FEF769FC02467B68D31A12
:10471000BA689A420FD2FB681B6C43F02002FB6818
:104720001A64FB68202283F83D20FB68002283F88E
:104730003C20032307E0FB681B685B6903F0400330
:10474000402BC1D1002318461037BD4680BD80B430
:1047500083B000AF78607B681B685B6903F480639B
:10476000B3F5806F14D17B681B686FF480625A6167
:104770007B6804221A647B6800221A637B6820220B
:1047800083F83D207B68002283F83C20012300E071
:10479000002318460C37BD465DF8047B70470000C7
:1047A00080B58EB000AF786000237B637B681B68A8
:1047B00003F00103002B75D0924B9B6803F00C03B0
:1047C000042B0CD08F4B9B6803F00C03082B12D1E9
:1047D0008C4B5B6803F48003B3F5800F0BD1894BDE
:1047E0001B6803F40033002B5BD07B685B68002BF5
:1047F00057D1012322E27B685B68B3F5803F06D185
:10480000804B1B687F4A43F4803313601DE07B6854
:104810005B68B3F5A02F0CD17A4B1B68794A43F43F
:1048200080231360774B1B68764A43F48033136010
:104830000BE0744B1B68734A23F480331360714B95
:104840001B68704A23F4802313607B685B68002B2D
:1048500013D0FEF7C3FB786308E0FEF7BFFB024608
:104860007B6BD31A642B01D90323E7E1654B1B68EB
:1048700003F40033002BF0D014E0FEF7AFFB7863B5
:1048800008E0FEF7ABFB02467B6BD31A642B01D921
:104890000323D3E15B4B1B6803F40033002BF0D1FF
:1048A00000E000BF7B681B6803F00203002B77D099
:1048B000544B9B6803F00C03002B0BD0514B9B68AF
:1048C00003F00C03082B26D14E4B5B6803F48003E6
:1048D000002B20D14B4B1B6803F00203002B05D0AB
:1048E0007B68DB68012B01D00123A7E1454B1B68E6
:1048F00023F0F8027B681969F8233B633B6B93FA5A
:10490000A3F3FB62FB6AB3FA83F301FA03F33D49B5
:1049100013430B6044E07B68DB68002B2AD03A4BE2
:1049200001221A60FEF75AFB786308E0FEF756FB97
:1049300002467B6BD31A022B01D903237EE1314B54
:104940001B6803F00203002BF0D02E4B1B6823F0F2
:10495000F8027B681969F823BB62BB6A93FAA3F378
:104960007B627B6AB3FA83F301FA03F325491343AD
:104970000B6015E0244B00221A60FEF72FFB7863D2
:1049800008E0FEF72BFB02467B6BD31A022B01D902
:10499000032353E11B4B1B6803F00203002BF0D1F0
:1049A0007B681B6803F00803002B37D07B685B69CA
:1049B000002B16D0154B01221A60FEF70FFB78630F
:1049C00008E0FEF70BFB02467B6BD31A022B01D9E2
:1049D000032333E10B4B5B6F03F00203002BF0D09A
:1049E0001CE00A4B00221A60FEF7F8FA78630FE029
:1049F000FEF7F4FA02467B6BD31A022B08D9032385
:104A00001CE100BF0038024000004742800E4742D0
:104A10008C4B5B6F03F00203002BE9D17B681B68B2
:104A200003F00403002B7DD00023BB60854B1B6C7F
:104A3000844A43F080531364824B1B6C03F0805311
:104A4000BB60BB68804B1B687F4A43F48073136074
:104A5000FEF7C4FA786308E0FEF7C0FA02467B6B03
:104A6000D31A022B01D90323E8E0774B1B6803F428
:104A70008073002BF0D07B689B68012B06D1714BB3
:104A80001B6F704A43F0010313671CE07B689B684F
:104A9000052B0CD16B4B1B6F6A4A43F00403136761
:104AA000684B1B6F674A43F0010313670BE0654BCC
:104AB0001B6F644A23F001031367624B1B6F614A4B
:104AC00023F0040313677B689B68002B15D0FEF767
:104AD00085FA78630AE0FEF781FA02467B6BD31A07
:104AE00041F28832934201D90323A7E0554B1B6F53
:104AF00003F00203002BEED014E0FEF76FFA7863A8
:104B00000AE0FEF76BFA02467B6BD31A41F2883259
:104B1000934201D9032391E04A4B1B6F03F0020338
:104B2000002BEED17B689B69002B00F08680454B03
:104B30009B6803F00C03082B7DD07B689B69022BDC
:104B400062D1424B00221A60FEF748FA786308E00F
:104B5000FEF744FA02467B6BD31A022B01D90323DA
:104B60006CE0384B1B6803F00073002BF0D17B68BE
:104B7000DA697B681B6A1A437B68596A47F6C07317
:104B80003B613B6993FAA3F3FB60FB68B3FA83F3E1
:104B900001FA03F31A437B689B6A5B08591E4FF4C2
:104BA0004033BB61BB6993FAA3F37B617B69B3FAC2
:104BB00083F301FA03F31A437B68D96A4FF07063F9
:104BC0003B623B6A93FAA3F3FB61FB69B3FA83F39D
:104BD00001FA03F31B4913434B601C4B01221A607B
:104BE000FEF7FCF9786308E0FEF7F8F902467B6B04
:104BF000D31A022B01D9032320E0124B1B6803F0C8
:104C00000073002BF0D018E0104B00221A60FEF762
:104C1000E5F9786308E0FEF7E1F902467B6BD31A09
:104C2000022B01D9032309E0064B1B6803F0007334
:104C3000002BF0D101E0012300E0002318463837B3
:104C4000BD4680BD00380240007000406000474211
:104C500080B586B000AF7860396000237B61814BFE
:104C60001B6803F00F033A689A420CD97D4B3A68EF
:104C7000D2B21A707B4B1B6803F00F033A689A425A
:104C800001D00123EAE07B681B6803F00203002BDC
:104C900008D0754B9B6823F0F0027B689B687249D3
:104CA00013438B607B681B6803F00103002B00F04B
:104CB00086807B685B68012B07D16B4B1B6803F414
:104CC0000033002B19D10123C8E07B685B68022BFD
:104CD00003D07B685B68032B07D1634B1B6803F031
:104CE0000073002B09D10123B8E05F4B1B6803F070
:104CF0000203002B01D10123B0E05B4B9B6823F042
:104D000003027B685B68584913438B60FEF766F9C2
:104D100078617B685B68012B12D10AE0FEF75EF9CF
:104D200002467B69D31A41F28832934201D90323A8
:104D300094E04D4B9B6803F00C03042BEED13EE056
:104D40007B685B68022B12D10AE0FEF747F9024646
:104D50007B69D31A41F28832934201D903237DE063
:104D6000414B9B6803F00C03082BEED127E07B68D6
:104D70005B68032B1DD10AE0FEF730F902467B6920
:104D8000D31A41F28832934201D9032366E0364BAD
:104D90009B6803F00C030C2BEED110E0FEF71EF91C
:104DA00002467B69D31A41F28832934201D9032328
:104DB00054E02D4B9B6803F00C03002BEED1294BE4
:104DC0001B6803F00F033A689A420CD2254B3A68ED
:104DD000D2B21A70234B1B6803F00F033A689A4251
:104DE00001D001233AE07B681B6803F00403002B29
:104DF00008D01D4B9B6823F4E0527B68DB681A499E
:104E000013438B607B681B6803F00803002B09D0F9
:104E1000154B9B6823F460427B681B69DB001249D9
:104E200013438B6000F026F801460F4B9B6803F09C
:104E3000F002F0233B613B6993FAA3F3FB60FB684C
:104E4000B3FA83F322FA03F3084AD35C21FA03F39B
:104E5000074A13600F2004F099FB00231846183707
:104E6000BD4680BD003C0240003802405CF50008B1
:104E70001400002080B48BB000AF0023FB6100233E
:104E80007B620023BB6100233B62384B9B6803F0CD
:104E90000C03082B0CD0082B5DD8002B02D0042B60
:104EA00003D058E0324B3B6258E0314B3B6255E057
:104EB0002E4B5B6803F03F03FB612C4B5B6803F4F4
:104EC0008003002B17D02A4AFB69B2FBF3F2274B71
:104ED000596847F6C0730B4047F6C071796179692C
:104EE00091FAA1F139613969B1FA81F1CB4002FB44
:104EF00003F37B6216E01E4AFB69B2FBF3F21B4B25
:104F0000596847F6C0730B4047F6C071F960F968FD
:104F100091FAA1F1B960B968B1FA81F1CB4002FB15
:104F200003F37B62114B5B6803F440324FF4403370
:104F30007B607B6893FAA3F33B603B68B3FA83F32F
:104F400022FA03F301335B00BB617A6ABB69B2FBEF
:104F5000F3F33B6202E0064B3B6200BF3B6A18463C
:104F60002C37BD465DF8047B704700BF0038024017
:104F70000024F40080B400AF034B1B681846BD4604
:104F80005DF8047B704700BF1400002080B582B03C
:104F900000AFFFF7EFFF01460B4B9B6803F4E052B5
:104FA0004FF4E0537B607B6893FAA3F33B603B686C
:104FB000B3FA83F322FA03F3044AD35C21FA03F32E
:104FC00018460837BD4680BD003802406CF5000821
:104FD00080B582B000AFFFF7CDFF01460B4B9B6859
:104FE00003F460424FF460437B607B6893FAA3F361
:104FF0003B603B68B3FA83F322FA03F3044AD35CC1
:1050000021FA03F318460837BD4680BD0038024038
:105010006CF5000880B483B000AF786039607B68BD
:105020000F221A60124B9B6803F003027B685A60E0
:105030000F4B9B6803F0F0027B689A600C4B9B68F7
:1050400003F4E0527B68DA60094B9B68DB0803F4E9
:10505000E0527B681A61074B1B6803F00F023B6844
:105060001A6000BF0C37BD465DF8047B704700BF77
:1050700000380240003C024080B59CB000AF786030
:105080000023FB660023BB667B681B6803F00103FB
:10509000002B06D17B681B6803F00203002B00F095
:1050A0008280AC4B00221A60FDF798FFF86608E09A
:1050B000FDF794FF0246FB6ED31A022B01D903239E
:1050C000EBE1A54B1B6803F00063002BF0D17B687C
:1050D0001B6803F00103002B1ED07B685A6847F65B
:1050E000C073FB65FB6D93FAA3F3BB65BB6DB3FAAD
:1050F00083F39A407B6899684FF0E0437B667B6E50
:1051000093FAA3F33B663B6EB3FA83F301FA03F31E
:1051100091491343C1F884307B681B6803F0020394
:10512000002B2AD08C4BD3F8843003F0E0424FF0B0
:10513000E0437B657B6D93FAA3F33B653B6DB3FA6C
:1051400083F322FA03F3BB667B685B689A017B6892
:10515000DB681B061A43BB6E1B077F491343C1F86C
:1051600084307D4BD3F88C3023F01F027B68DB69E1
:10517000013B79491343C1F88C30764B01221A6008
:10518000FDF72CFFF86608E0FDF728FF0246FB6EEE
:10519000D31A022B01D903237FE16F4B1B6803F065
:1051A0000063002BF0D07B681B6803F00403002B26
:1051B00006D17B681B6803F00803002B00F0D78042
:1051C000664B00221A60FDF709FFF86608E0FDF75C
:1051D00005FF0246FB6ED31A022B01D903235CE1C3
:1051E0005D4B1B6803F00053B3F1005FEFD07B68A9
:1051F0001B6803F00403002B4BD0574BD3F88830C7
:1052000003F0E0424FF0E0437B637B6B93FAA3F340
:105210003B633B6BB3FA83F322FA03F3BB667B6811
:105220001A6947F6C073FB63FB6B93FAA3F3BB6386
:10523000BB6BB3FA83F39A407B6859694FF0706394
:105240007B647B6C93FAA3F33B643B6CB3FA83F30C
:1052500001FA03F31A434FF0E043FB64FB6C93FA4B
:10526000A3F3BB64BB6CB3FA83F3B96E01FA03F327
:1052700039491343C1F88830374BD3F88C3023F4C5
:10528000F8527B681B6A013B1B0233491343C1F888
:105290008C307B681B6803F00803002B49D02E4B31
:1052A000D3F8883003F070624FF070637B617B69E4
:1052B00093FAA3F33B613B69B3FA83F322FA03F356
:1052C000BB667B681A6947F6C073FB61FB6993FA9A
:1052D000A3F3BB61BB69B3FA83F39A404FF07063E9
:1052E0007B627B6A93FAA3F33B623B6AB3FA83F374
:1052F000B96E01FA03F31A437B6899694FF0E043F2
:10530000FB62FB6A93FAA3F3BB62BB6AB3FA83F353
:1053100001FA03F310491343C1F888300E4BD3F858
:105320008C3023F440327B685B6A0B491343C1F82D
:105330008C300A4B01221A60FDF750FEF8660FE030
:10534000FDF74CFE0246FB6ED31A022B08D903234D
:10535000A3E000BF680047420038024070004742A7
:10536000504B1B6803F00053B3F1005FE8D17B683A
:105370001B6803F02003002B00F083800023FB60F8
:10538000484B1B6C474A43F080531364454B1B6CDE
:1053900003F08053FB60FB68434B1B68424A43F4B5
:1053A00080731360FDF71AFEF86608E0FDF716FE3D
:1053B0000246FB6ED31A022B01D903236DE03A4B50
:1053C0001B6803F48073002BF0D0364B1B6F03F483
:1053D0004073BB66BB6E002B2FD07B689B6A03F4C7
:1053E0004073BA6E9A4228D02E4B1B6F23F4407341
:1053F000BB662E4B01221A602C4B00221A60294AF0
:10540000BB6E1367274B1B6F03F00103002B14D0F7
:10541000FDF7E4FDF8660AE0FDF7E0FD0246FB6EED
:10542000D31A41F28832934201D9032335E01D4B50
:105430001B6F03F00203002BEED07B689B6A03F422
:105440004073B3F5407F0DD1164B9B6823F4F812DF
:105450007B689B6A23F0704323F440731149134324
:105460008B6005E00F4B9B680E4A23F4F8139360A2
:105470000C4B1A6F7B689B6AC3F30B0309491343F8
:105480000B677B681B6803F01003002B04D07B685C
:1054900093F82C20064B1A60002318467037BD463F
:1054A00080BD00BF0038024000700040400E4742FF
:1054B000E011474280B582B000AF78607B68002B76
:1054C00001D101231DE07B6893F83430DBB2002B5F
:1054D00005D17B6800221A77786803F02FFF7B687C
:1054E000032283F83420786800F010F87B680022EB
:1054F0009A637B6800221A637B68012283F8342058
:10550000002318460837BD4680BD0000B0B58EB0F8
:1055100004AF786000237B620023FB6000233B61C3
:1055200000237B610023BB610023FB6176233B6288
:105530007B681D686C4607F1180393E8070084E850
:10554000070007F10C030ECB284602F0D9FB1C4BD9
:1055500000221A607B681B68184602F01AFC184B80
:1055600001221A600220FDF745FD786801F00CF970
:1055700078627B6A002B0BD07B68012283F8342091
:105580007B689A6B7B6A1A437B689A63012313E0FA
:10559000786801F02FF878627B6A002B0BD07B686B
:1055A000012283F834207B689A6B7B6A1A437B68FC
:1055B0009A63012300E0002318462837BD46B0BD9A
:1055C000A080254290B58FB000AFF860B9607A60D6
:1055D0003B6000237B63FDF701FDB86200233B6362
:1055E000BB68FB62BB68002B07D1FB689B6B43F079
:1055F0000062FB689A63012377E1FB6893F834301B
:10560000DBB2012B40F06A81FB6800229A637A6862
:105610003B681A44FB68DB6D9A4207D9FB689B6BB9
:1056200043F00072FB689A6301235EE1FB6803228A
:1056300083F83420FB681B680022DA62FB685B6C2D
:10564000012B02D07B685B027B60FB681B684FF418
:105650000071184602F031FC78637B6B002B10D090
:10566000FB681B6840F2FF529A63FB689A6B7B6B86
:105670001A43FB689A63FB68012283F834200123F4
:1056800033E14FF0FF333B613B685B027B6190236A
:10569000BB610223FB6100233B6201237B62FB6849
:1056A0001B6807F110021146184602F0DAFB3B684E
:1056B000012B0AD9FB6802221A63FB681B68796810
:1056C000184602F042FC786309E0FB6801221A6385
:1056D000FB681B687968184602F013FC78637B6BE3
:1056E000002B4AD0FB681B6840F2FF529A63FB68AC
:1056F0009A6B7B6B1A43FB689A63FB68012283F801
:1057000034200123F1E0FB681B685B6B03F400436A
:10571000002B16D000233B630DE0FB6819683B6B40
:105720009B00FA6AD418084602F015FB0346236072
:105730003B6B01333B633B6B072BEED9FB6A20339A
:10574000FB62BB6C002B07D0FDF748FC0246BB6A2E
:10575000D31ABA6C9A4210D8FB681B6840F2FF5209
:105760009A63FB689B6B43F00042FB689A63FB689B
:10577000012283F834200323B7E0FB681B685A6BCF
:1057800040F22A331340002BBDD0FB681B685B6BD3
:1057900003F48073002B20D03B68012B1DD9FB68DC
:1057A0005B6C032B19D0FB681B68184602F03AFCAF
:1057B00078637B6B002B10D0FB681B6840F2FF52B4
:1057C0009A63FB689A6B7B6B1A43FB689A63FB686E
:1057D000012283F83420012387E0FB681B685B6BA0
:1057E00003F00803002B10D0FB681B6840F2FF5247
:1057F0009A63FB689B6B43F00802FB689A63FB6843
:10580000012283F8342001236FE0FB681B685B6B87
:1058100003F00203002B10D0FB681B6840F2FF521C
:105820009A63FB689B6B43F00202FB689A63FB6818
:10583000012283F83420012357E0FB681B685B6B6F
:1058400003F02003002B37D0FB681B6840F2FF52A7
:105850009A63FB689B6B43F02002FB689A63FB68CA
:10586000012283F8342001233FE0FB681B681846BF
:1058700002F071FA0246FB6A1A60FB6A0433FB62AB
:10588000BB6C002B07D0FDF7A9FB0246BB6AD31AFD
:10589000BA6C9A4210D8FB681B6840F2FF529A63B8
:1058A000FB689B6B43F00042FB689A63FB68012234
:1058B00083F83420012318E0FB681B685B6B03F45A
:1058C0000013002BD1D1FB681B6840F2FF529A6392
:1058D000FB68012283F83420002306E0FB689B6B01
:1058E00043F00052FB689A63012318463C37BD46DB
:1058F00090BD80B58EB000AFF860B9607A603B6053
:1059000000237B63FDF76AFBB86200233B63BB683F
:10591000FB62BB68002B07D1FB689B6B43F0006206
:10592000FB689A63012360E1FB6893F83430DBB2D3
:10593000012B40F05381FB6800229A637A683B6830
:105940001A44FB68DB6D9A4207D9FB689B6B43F0F6
:105950000072FB689A63012347E1FB68032283F826
:105960003420FB681B680022DA62FB685B6C012B49
:1059700002D07B685B027B60FB681B684FF40071A0
:10598000184602F09AFA78637B6B002B10D0FB6804
:105990001B6840F2FF529A63FB689A6B7B6B1A4359
:1059A000FB689A63FB68012283F8342001231CE121
:1059B0003B68012B0AD9FB6820221A63FB681B682D
:1059C0007968184602F009FB786309E0FB68102249
:1059D0001A63FB681B687968184602F0DAFA786384
:1059E0007B6B002B10D0FB681B6840F2FF529A6360
:1059F000FB689A6B7B6B1A43FB689A63FB68012216
:105A000083F834200123F0E04FF0FF333B613B6823
:105A10005B027B619023BB610023FB6100233B623F
:105A200001237B62FB681B6807F1100211461846D0
:105A300002F017FA37E0FB681B685B6B03F48043E6
:105A4000002B14D000233B630BE0FB6818683B6B12
:105A50009B00FA6A1344194602F08AF93B6B013342
:105A60003B633B6B072BF0D9FB6A2033FB623B6C3B
:105A7000002B07D0FDF7B2FA0246BB6AD31A3A6C84
:105A80009A4210D8FB681B6840F2FF529A63FB6889
:105A90009A6B7B6B1A43FB689A63FB68012283F85D
:105AA00034200323A1E0FB681B685A6B40F21A33D1
:105AB0001340002BBFD0FB681B685B6B03F4807343
:105AC000002B20D03B68012B1DD9FB685B6C032B9E
:105AD00019D0FB681B68184602F0A4FA78637B6B48
