:020000040800F2
:10000000000003208DD0000875A2000885A200081A
:10001000A1A20008A7A20008ADA2000800000000ED
:1000200000000000000000000000000041C90008BE
:10003000B3A200080000000061CB0008C1A20008C4
:10004000DDD00008DDD00008DDD00008DDD00008DC
:10005000DDD00008DDD00008DDD00008DDD00008CC
:10006000DDD00008DDD00008DDD00008DDD00008BC
:10007000DDD00008DDD00008DDD00008DDD00008AC
:10008000DDD00008DDD00008DDD00008DDD000089C
:10009000DDD00008DDD00008DDD00008DDD000088C
:1000A000DDD000081DA30008DDD00008DDD0000869
:1000B000DDD00008DDD00008DDD00008DDD000086C
:1000C000DDD00008DDD00008DDD00008DDD000085C
:1000D000DDD00008E1A20008DDD00008DDD0000876
:1000E000DDD00008DDD00008DDD00008DDD000083C
:1000F000DDD00008DDD00008DDD00008DDD000082C
:10010000DDD00008CDA20008DDD00008DDD0000859
:10011000F5A20008DDD00008DDD00008DDD0000821
:10012000DDD00008DDD00008DDD0000831A30008D4
:10013000DDD00008DDD00008DDD00008DDD00008EB
:10014000DDD00008DDD00008DDD00008DDD00008DB
:10015000DDD0000845A30008DDD0000809A3000891
:10016000DDD00008DDD00008DDD00008DDD00008BB
:10017000DDD00008DDD00008DDD000080000000060
:10018000DDD00008DDD00008DDD00008DDD000089B
:10019000DDD00008DDD00008DDD00008DDD000088B
:0C01A0000000000000000000DDD000089E
:1001B00010B5054C237833B9044B13B10448AFF3A1
:1001C00000800123237010BDEC010020000000001E
:1001D0002000010808B5034B1BB103490348AFF3E6
:1001E000008008BD00000000F00100202000010890
:1001F000034613F8012B002AFBD1181A0138704767
:1002000001F0FF01102A2BDB10F0070F08D010F8C7
:10021000013B013A8B422DD010F0070F42B3F6D1CB
:10022000F0B441EA012141EA014122F007047FF0E4
:1002300000070023F0E80256083C85EA010586EA3B
:10024000010685FA47F5A3FA87F586FA47F6A5FA77
:1002500087F68EB9EED1F0BC01F0FF0102F0070283
:1002600032B110F8013B013A83EA010313B1F8D12E
:100270000020704701387047002D06BF354603380F
:10028000073815F0010F07D1013015F4807F02BF48
:10029000013015F4C03F0130F0BC0138704700BF99
:1002A00081F0004102E000BF83F0004330B54FEA27
:1002B00041044FEA430594EA050F08BF90EA020F94
:1002C0001FBF54EA000C55EA020C7FEA645C7FEA27
:1002D000655C00F0E2804FEA5454D4EB5555B8BF4A
:1002E0006D420CDD2C4480EA020281EA030382EABB
:1002F000000083EA010180EA020281EA0303362D4D
:1003000088BF30BD11F0004F4FEA01314FF4801C1F
:100310004CEA113102D0404261EB410113F0004F31
:100320004FEA03334CEA133302D0524263EB4303E8
:1003300094EA050F00F0A780A4F10104D5F1200E86
:100340000DDB02FA0EFC22FA05F2801841F10001E1
:1003500003FA0EF2801843FA05F359410EE0A5F1B5
:1003600020050EF1200E012A03FA0EFC28BF4CF0E6
:10037000020C43FA05F3C01851EBE37101F000459C
:1003800007D54FF0000EDCF1000C7EEB00006EEBA9
:100390000101B1F5801F1BD3B1F5001F0CD3490833
:1003A0005FEA30004FEA3C0C04F101044FEA44528A
:1003B00012F5800F80F09A80BCF1004F08BF5FEA11
:1003C000500C50F1000041EB045141EA050130BDF1
:1003D0005FEA4C0C404141EB0101013C28BFB1F503
:1003E000801FE9D291F0000F04BF01460020B1FA4E
:1003F00081F308BF2033A3F10B03B3F120020CDA21
:100400000C3208DD02F1140CC2F10C0201FA0CF0FE
:1004100021FA02F10CE002F11402D8BFC2F1200C63
:1004200001FA02F120FA0CFCDCBF41EA0C01904019
:10043000E41AA2BF01EB0451294330BD6FEA040462
:100440001F3C1CDA0C340EDC04F11404C4F120024D
:1004500020FA04F001FA02F340EA030021FA04F35F
:1004600045EA030130BDC4F10C04C4F1200220FAB6
:1004700002F001FA04F340EA0300294630BD21FAF4
:1004800004F0294630BD94F0000F83F4801306BFBA
:1004900081F480110134013D4EE77FEA645C18BFAE
:1004A0007FEA655C29D094EA050F08BF90EA020F45
:1004B00005D054EA000C04BF1946104630BD91EA3D
:1004C000030F1EBF0021002030BD5FEA545C05D140
:1004D0004000494128BF41F0004130BD14F580047F
:1004E0003CBF01F5801130BD01F0004545F0FE41F3
:1004F00041F470014FF0000030BD7FEA645C1ABF28
:10050000194610467FEA655C1CBF0B46024650EA5E
:10051000013406BF52EA033591EA030F41F400218A
:1005200030BD00BF90F0000F04BF0021704730B510
:100530004FF4806404F132044FF000054FF00001E5
:1005400050E700BF90F0000F04BF0021704730B5A6
:100550004FF4806404F1320410F0004548BF40427B
:100560004FF000013EE700BF42004FEAE2014FEAD0
:1005700031014FEA02701FBF12F07F4393F07F4FAB
:1005800081F06051704732F07F4208BF704793F0AE
:100590007F4F04BF41F40021704730B54FF46074C1
:1005A00001F0004521F000411CE700BF50EA0102C4
:1005B00008BF704730B54FF000050AE050EA01026D
:1005C00008BF704730B511F0004502D5404261EBDD
:1005D00041014FF4806404F132045FEA915C3FF41E
:1005E000D8AE4FF003025FEADC0C18BF03325FEABB
:1005F000DC0C18BF033202EBDC02C2F1200300FA6C
:1006000003FC20FA02F001FA03FE40EA0E0021FA90
:1006100002F11444BDE600BF70B54FF0FF0C4CF47E
:10062000E06C1CEA11541DBF1CEA135594EA0C0F30
:1006300095EA0C0F00F0DEF82C4481EA030621EA6B
:100640004C5123EA4C5350EA013518BF52EA0335A6
:1006500041F4801143F4801338D0A0FB02CE4FF058
:100660000005E1FB02E506F00042E0FB03E54FF088
:100670000006E1FB03569CF0000F18BF4EF0010E80
:10068000A4F1FF04B6F5007F64F5407404D25FEA7C
:100690004E0E6D4146EB060642EAC62141EA55512F
:1006A0004FEAC52040EA5E504FEACE2EB4F1FD0C71
:1006B00088BFBCF5E06F1ED8BEF1004F08BF5FEAEF
:1006C000500E50F1000041EB045170BD06F00046A1
:1006D00046EA010140EA020081EA0301B4EB5C044E
:1006E000C2BFD4EB0C0541EA045170BD41F4801146
:1006F0004FF0000E013C00F3AB8014F1360FDEBF6B
:10070000002001F0004170BDC4F10004203C35DA46
:100710000C341BDC04F11404C4F1200500FA05F3C9
:1007200020FA04F001FA05F240EA020001F000426A
:1007300021F0004110EBD37021FA04F642EB0601E0
:100740005EEA430E08BF20EAD37070BDC4F10C040A
:10075000C4F1200500FA04F320FA05F001FA04F2CE
:1007600040EA020001F0004110EBD37041F10001BA
:100770005EEA430E08BF20EAD37070BDC4F12005C5
:1007800000FA05F24EEA020E20FA04F301FA05F22D
:1007900043EA020321FA04F001F0004121FA04F2D5
:1007A00020EA020000EBD3705EEA430E08BF20EAA5
:1007B000D37070BD94F0000F0FD101F000464000DF
:1007C00041EB010111F4801F08BF013CF7D041EA61
:1007D000060195F0000F18BF704703F00046520065
:1007E00043EB030313F4801F08BF013DF7D043EA36
:1007F0000603704794EA0C0F0CEA135518BF95EAEC
:100800000C0F0CD050EA410618BF52EA4306D1D172
:1008100081EA030101F000414FF0000070BD50EA91
:10082000410606BF1046194652EA430619D094EA1B
:100830000C0F02D150EA013613D195EA0C0F05D105
:1008400052EA03361CBF104619460AD181EA030159
:1008500001F0004141F0FE4141F470014FF0000011
:1008600070BD41F0FE4141F4780170BD70B54FF0AC
:10087000FF0C4CF4E06C1CEA11541DBF1CEA13552C
:1008800094EA0C0F95EA0C0F00F0A7F8A4EB05040E
:1008900081EA030E52EA03354FEA013100F0888005
:1008A0004FEA03334FF0805545EA131343EA1263CE
:1008B0004FEA022245EA111545EA10654FEA002683
:1008C0000EF000419D4208BF964244F1FD0404F53C
:1008D000407402D25B084FEA3202B61A65EB030598
:1008E0005B084FEA32024FF480104FF4002CB6EB55
:1008F000020E75EB030E22BFB61A754640EA0C00D5
:100900005B084FEA3202B6EB020E75EB030E22BF14
:10091000B61A754640EA5C005B084FEA3202B6EB55
:10092000020E75EB030E22BFB61A754640EA9C0014
:100930005B084FEA3202B6EB020E75EB030E22BFE4
:10094000B61A754640EADC0055EA060E18D04FEAA2
:10095000051545EA16754FEA06164FEAC30343EA42
:1009600052734FEAC2025FEA1C1CC0D111F4801F0F
:100970000BD141EA00014FF000004FF0004CB6E708
:1009800011F4801F04BF01430020B4F1FD0C88BFA7
:10099000BCF5E06F3FF6AFAEB5EB030C04BFB6EBB2
:1009A000020C5FEA500C50F1000041EB045170BDA5
:1009B0000EF0004E4EEA113114EB5C04C2BFD4EBD2
:1009C0000C0541EA045170BD41F480114FF0000E56
:1009D000013C90E645EA060E8DE60CEA135594EAD2
:1009E0000C0F08BF95EA0C0F3FF43BAF94EA0C0FD5
:1009F0000AD150EA01347FF434AF95EA0C0F7FF44A
:100A000025AF104619462CE795EA0C0F06D152EA9D
:100A100003353FF4FDAE1046194622E750EA410681
:100A200018BF52EA43067FF4C5AE50EA41047FF492
:100A30000DAF52EA43057FF4EBAE12E74FF0FF3CF7
:100A400006E000BF4FF0010C02E000BF4FF0010CC8
:100A50004DF804CD4FEA410C7FEA6C5C4FEA430C41
:100A600018BF7FEA6C5C1BD001B050EA410C0CBF90
:100A700052EA430C91EA030F02BF90EA020F0020F2
:100A8000704710F1000F91EA030F58BF994208BF59
:100A900090422CBFD8176FEAE37040F00100704716
:100AA0004FEA410C7FEA6C5C02D150EA013C07D16D
:100AB0004FEA430C7FEA6C5CD6D152EA033CD3D0B8
:100AC0005DF8040B704700BF8446104662468C46B2
:100AD0001946634600E000BF01B5FFF7B7FF0028E5
:100AE00048BF10F1000F01BD4DF808EDFFF7F4FF0E
:100AF0000CBF012000205DF808FB00BF4DF808ED99
:100B0000FFF7EAFF34BF012000205DF808FB00BFBB
:100B10004DF808EDFFF7E0FF94BF012000205DF8DD
:100B200008FB00BF4DF808EDFFF7CEFF94BF012092
:100B300000205DF808FB00BF4DF808EDFFF7C4FF8B
:100B400034BF012000205DF808FB00BF4FEA410CD4
:100B50007FEA6C5C02D150EA013C0AD14FEA430CB7
:100B60007FEA6C5C02D152EA033C02D14FF00000F4
:100B700070474FF0010070474FEA410212F5001232
:100B800015D211D56FF47873B3EB625212D94FEAD4
:100B9000C12343F0004343EA505311F0004F23FABE
:100BA00002F018BF404270474FF00000704750EA13
:100BB000013005D111F0004008BF6FF000407047D0
:100BC0004FF00000704700BFB0B594B000AF786040
:100BD0005E4802F02FFD0023BB6407F1480318466E
:100BE00009F0C7FC03465A4A136000237B6407F1EF
:100BF0004403184609F0BDFC0346564A136000231F
:100C00003B6407F14003184609F0B3FC0346524A1F
:100C100013600023FB6307F13C03184609F0A9FCAD
:100C200003464E4A13600023BB6307F1380318469E
:100C300009F09FFC03464A4A136000237B6307F1D7
:100C40003403184609F095FC0346464A1360002316
:100C50003B6307F13003184609F08BFC0346424A18
:100C60001360002387F84F3001F0C2F8034687F87D
:100C70004F3097F84F30002B04D04FF47A71052095
:100C800002F03EFD01F0C6F8034687F84F3097F8B2
:100C90004F30002B04D04FF47A71052002F05AFD3A
:100CA000324802F0C7FC01F07FF8314802F0C2FC84
:100CB00001F068F82F4802F0BDFC2F4802F0BAFCA2
:100CC0002E4B07F108041D460FCD0FC40FCD0FC4E6
:100CD00095E80300206004342170FA21052002F019
:100CE00039FD022002F0CEFAFA21052002F008FDBB
:100CF00007F108032321184602F008FBFA2105201A
:100D000002F028FD02F016FAFA21052002F0F8FCA4
:100D10001B4802F08FFC32210A2002F0F1FC322144
:100D20000A2002F017FD174B5B69164A43F01003C7
:100D30005361962009F009FC124B5B69114A23F0BC
:100D400010035361962009F000FCECE73C00010819
:100D5000280200202C020020300200203402002053
:100D6000380200203C020020400200205800010808
:100D7000780001089C000108C40001080C0101086A
:100D8000EC0001080008024080B582B000AF786036
:100D9000034802F04FFC42F2107009F0D6FBFAE76C
:100DA0003401010880B582B000AF7860044802F0D9
:100DB00041FC02F03DFB41F2883009F0C6FBFAE746
:100DC0005801010880B584B000AF7860194802F07E
:100DD00031FC00F08FFF0346FB7300F09DFF0346DC
:100DE000FB7300F0A2FF0346FB73134B1B684FF429
:100DF000FA71184609F0CAFB104B01221A700E4B0B
:100E00001B68184609F012FC0D4B5B690C4A43F055
:100E1000100353614FF47A7009F097FB084B5B693C
:100E2000074A23F0100353614FF47A7009F08DFBE9
:100E3000EAE700BF74010108380200200C0200201C
:100E40000008024080B592B000AF7860884802F098
:100E5000F1FB09F043FB0346FB6007F1360318463C
:100E600000F0C4FDFB8E03F02003002B0FD0814B5C
:100E70001B684FF4FA71184609F088FB7E4A7F4BD5
:100E80001A607C4B1B68184609F0D0FB33E007F171
:100E90003C03184600F072FC07F13803184600F0D6
:100EA0003BFCD7ED0F7AB1EE047A27EE877AD7EDC7
:100EB0000E7AF0EE086A67EEA67A77EE277AC7ED2B
:100EC000117A6C4B1B684FF4FA71184609F05EFBFF
:100ED0006A4B93ED007AD7ED116A9FED696AC6EE11
:100EE000867A77EE677A654BC3ED007A614B1B68B3
:100EF000184609F09BFBFB8E03F04003002B72D0D9
:100F000007F13003184600F045FA07F12C031846A4
:100F100000F072FA07F12803184600F09FFA07F173
:100F20002403184600F0CCFA07F12003184600F01D
:100F3000F9FA07F11C03184600F026FB07F1180325
:100F4000184600F053FB07F11403184600F080FB2D
:100F500007F11003184600F0ADFB97ED0B7AD7EDC3
:100F60000A7A37EE277AD7ED0C7A67EE277AC7ED43
:100F7000107A97ED087AD7ED077A37EE277AD7ED12
:100F8000097A67EE277A97ED107A77EE277AC7ED20
:100F9000107A97ED057AD7ED047A37EE277AD7EDF8
:100FA000067A67EE277A97ED107A77EE277AC7ED03
:100FB000107A304B1B684FF4FA71184609F0E6FAC4
:100FC000D7ED107ADFED2E6A87EEA67A2B4BD3EDA4
:100FD000007A77EE277A294BC3ED007A254B1B6800
:100FE000184609F023FB234B1B684FF4FA7118468F
:100FF00009F0CCFA234B1B684FF4FA71184609F03C
:10100000C5FA1E4BD3ED007AB0EE087AF4EEC77A3B
:10101000F1EE10FA03D51C4B01221A7015E01A4BA1
:101020001A78164BD3ED007AB2EE007AF4EEC77A56
:10103000F1EE10FACCBF01230023DBB21340DBB288
:10104000002B02D0104B00221A700E4B1B68184662
:1010500009F0ECFA074B1B68184609F0E7FA07F1AC
:101060000C034FF47A71184609F021FBF5E600BF36
:1010700090010108340200202E108F410000002052
:10108000000061453C0200200D02002090B587B0B1
:1010900000AF786039603B685B783B733B689B7856
:1010A0007B733B68DB78BB73BB7B18460CF042F864
:1010B00003463B6138693B680433BA7B19460CF040
:1010C00049F8BB7B04333A6813441B783B757B6853
:1010D0001C4607F10C0393E8070084E807007868D2
:1010E0001C37BD4690BD00002DE9F04389B000AF2C
:1010F0003B1D83E807006B461E46BB79591D4B1EFE
:101100007B610A460023904699464FF000024FF05B
:1011100000034FEAC90343EA58734FEAC8020A467C
:10112000002314461D464FF000024FF00003EB0071
:1011300043EA5473E2000B460733DB08DB00ADEBF8
:10114000030D6B4600333B613B69FF221A703A790D
:101150003B695A707A793B699A70BA793B69DA705F
:101160000023BB610AE0BA68BB691A44BB69043357
:1011700011783A69D154BB690133BB61BB791A4616
:10118000BB699342EFDBBB790433397B3A69D154B5
:101190000123FB773B790A2B0CD1BB799BB205333A
:1011A0009AB24FF47A7339690D4806F066FD03462A
:1011B000FB770EE03B79282B0BD1BB799BB2053333
:1011C0009AB24FF47A733969064806F056FD034621
:1011D000FB77FB7FB54618462437BD46BDE8F08354
:1011E000BC060020FC06002080B489B000AF3B1D87
:1011F00083E807000023BB613B791A46BB691344AF
:10120000BB617B791A46BB691344BB61BB791A4643
:10121000BB691344BB610023FB610AE0BA68FB6948
:1012200013441B781A46BB691344BB61FB69013345
:10123000FB61BB791A46FB699342EFDBBB69FB7527
:10124000FB7DDB43DBB218462437BD465DF8047BEB
:10125000704780B487B000AF3B1D83E807000023D0
:101260003B613B791A463B6913443B617B791A46E3
:101270003B6913443B61BB791A463B6913443B61AC
:1012800000237B610AE0BA687B6913441B781A4625
:101290003B6913443B617B6901337B61BB791A462F
:1012A0007B699342EFDB3B7B1A463B6913443B610E
:1012B0003B69DBB2FF2B01D1012300E0002318467C
:1012C0001C37BD465DF8047B7047000080B584B0D4
:1012D00000AF78600123FB730123BB7307F10802A1
:1012E000BB7B1146184600F0DDFD0346FB73FB7B1C
:1012F000002B01D0FB7B14E03B7A9BB21B029AB21D
:101300007B7A9BB21344BB81BB8907EE903AF8EE1F
:10131000677A9FED067A67EE877A7B68C3ED007A7D
:10132000FB7B18461037BD4680BD00BFEB51193B13
:1013300080B584B000AF78600123FB730223BB73D8
:1013400007F10802BB7B1146184600F0ABFD0346CF
:10135000FB73FB7B002B01D0FB7B14E03B7A9BB241
:101360001B029AB27B7A9BB21344BB81BB8907EE06
:10137000903AF8EE677A9FED067A67EE877A7B6897
:10138000C3ED007AFB7B18461037BD4680BD00BF19
:101390000000483B80B584B000AF78600123FB7348
:1013A0000523BB7307F10802BB7B1146184600F00A
:1013B00079FD0346FB73FB7B002B01D0FB7B14E024
:1013C0003B7A9BB21B029AB27B7A9BB21344BB81DD
:1013D000BB8907EE903AF8EE677A9FED067A67EEE2
:1013E000877A7B68C3ED007AFB7B18461037BD46D1
:1013F00080BD00BF0000203B80B584B000AF7860A6
:101400000123FB730623BB7307F10802BB7B114664
:10141000184600F047FD0346FB73FB7B002B01D011
:10142000FB7B14E03B7A9BB21B029AB27B7A9BB2A5
:101430001344BB81BB8907EE903AF8EE677A9FEDC3
:10144000067A67EE877A7B68C3ED007AFB7B1846E5
:101450001037BD4680BD00BF0100203A80B584B082
:1014600000AF78600123FB730723BB7307F1080209
:10147000BB7B1146184600F015FD0346FB73FB7B52
:10148000002B01D0FB7B14E03B7A9BB21B029AB28B
:101490007B7A9BB21344BB81BB8907EE903AF8EE8E
:1014A000677A9FED067A67EE877A7B68C3ED007AEC
:1014B000FB7B18461037BD4680BD00BF0100203AB7
:1014C00080B584B000AF78600123FB730823BB7341
:1014D00007F10802BB7B1146184600F0E3FC034607
:1014E000FB73FB7B002B01D0FB7B14E03B7A9BB2B0
:1014F0001B029AB27B7A9BB21344BB81BB8907EE75
:10150000903AF8EE677A9FED067A67EE877A7B6805
:10151000C3ED007AFB7B18461037BD4680BD00BF87
:101520000000203B80B584B000AF78600123FB73DE
:101530000923BB7307F10802BB7B1146184600F074
:10154000B1FC0346FB73FB7B002B01D0FB7B14E05B
:101550003B7A9BB21B029AB27B7A9BB21344BB814B
:10156000BB8907EE903AF8EE677A9FED067A67EE50
:10157000877A7B68C3ED007AFB7B18461037BD463F
:1015800080BD00BF0100203A80B584B000AF786014
:101590000123FB730A23BB7307F10802BB7B1146CF
:1015A000184600F07FFC0346FB73FB7B002B01D049
:1015B000FB7B14E03B7A9BB21B029AB27B7A9BB214
:1015C0001344BB81BB8907EE903AF8EE677A9FED32
:1015D000067A67EE877A7B68C3ED007AFB7B184654
:1015E0001037BD4680BD00BF0100203A80B584B0F1
:1015F00000AF78600123FB730B23BB7307F1080274
:10160000BB7B1146184600F04DFC0346FB73FB7B89
:10161000002B01D0FB7B14E03B7A9BB21B029AB2F9
:101620007B7A9BB21344BB81BB8907EE903AF8EEFC
:10163000677A9FED067A67EE877A7B68C3ED007A5A
:10164000FB7B18461037BD4680BD00BF0000203B25
:1016500080B584B000AF78600123FB730C23BB73AB
:1016600007F10802BB7B1146184600F01BFC03463D
:10167000FB73FB7B002B01D0FB7B14E03B7A9BB21E
:101680001B029AB27B7A9BB21344BB81BB8907EEE3
:10169000903AF8EE677A9FED067A67EE877A7B6874
:1016A000C3ED007AFB7B18461037BD4680BD00BFF6
:1016B0000100203A80B584B000AF78600123FB734D
:1016C0000D23BB7307F10802BB7B1146184600F0DF
:1016D000E9FB0346FB73FB7B002B01D0FB7B14E093
:1016E0003B7A9BB21B029AB27B7A9BB21344BB81BA
:1016F000BB8907EE903AF8EE677A9FED067A67EEBF
:10170000877A7B68C3ED007AFB7B18461037BD46AD
:1017100080BD00BF0100203A80B584B000AF786082
:101720000123FB730E23BB7307F10802BB7B114639
:10173000184600F0B7FB0346FB73FB7B002B01D080
:10174000FB7B14E03B7A9BB21B029AB27B7A9BB282
:101750001344BB81BB8907EE903AF8EE677A9FEDA0
:10176000067A67EE877A7B68C3ED007AFB7B1846C2
:101770001037BD4680BD00BF5555053B80B584B0D0
:1017800000AF78600123FB730F23BB7307F10802DE
:10179000BB7B1146184600F085FB0346FB73FB7BC1
:1017A000002B01D0FB7B14E03B7A9BB21B029AB268
:1017B0007B7A9BB21344BB81BB8907EE903AF8EE6B
:1017C000677A9FED067A67EE877A7B68C3ED007AC9
:1017D000FB7B18461037BD4680BD00BF5555053B05
:1017E00080B584B000AF78600123FB731223BB7314
:1017F00007F10802BB7B1146184600F053FB034675
:10180000FB73FB7B002B01D0FB7B1CE03B7A9BB284
:101810001B029AB27B7A9BB21344BB81BB8907EE51
:10182000903AF8EE677A9FED0A7A67EE877A9FED35
:10183000097A37EEC77ADFED086AC7EE267A7B6849
:10184000C3ED007AFB7B18461037BD4680BD00BF54
:101850000100203A7F6A7C3F1EA7683B80B584B0B8
:1018600000AF78600123FB731323BB7307F10802F9
:10187000BB7B1146184600F015FB0346FB73FB7B50
:10188000002B01D0FB7B14E03B7A9BB21B029AB287
:101890007B7A9BB21344BB81BB8907EE903AF8EE8A
:1018A000677A9FED067A67EE877A7B68C3ED007AE8
:1018B000FB7B18461037BD4680BD00BF0000803B53
:1018C00080B584B000AF78600123FB731423BB7331
:1018D00007F10802BB7B1146184600F0E3FA034605
:1018E000FB73FB7B002B01D0FB7B14E03B7A9BB2AC
:1018F0001B029AB27B7A9BB21344BB81BB8907EE71
:10190000903AF8EE677A9FED067A67EE877A7B6801
:10191000C3ED007AFB7B18461037BD4680BD00BF83
:101920000000803B80B584B000AF78600123FB737A
:101930001523BB7307F10802BB7B1146184600F064
:10194000B1FA0346FB73FB7B002B01D0FB7B14E059
:101950003B7A9BB21B029AB27B7A9BB21344BB8147
:10196000BB8907EE903AF8EE677A9FED067A67EE4C
:10197000877A7B68C3ED007AFB7B18461037BD463B
:1019800080BD00BF0000803B80B584B000AF7860B0
:101990000123FB731623BB7307F10802BB7B1146BF
:1019A000184600F07FFA0346FB73FB7B002B01D047
:1019B000FB7B14E03B7A9BB21B029AB27B7A9BB210
:1019C0001344BB81BB8907EE903AF8EE677A9FED2E
:1019D000067A67EE877A7B68C3ED007AFB7B184650
:1019E0001037BD4680BD00BF0000803B80B584B08D
:1019F00000AF78600123FB731723BB7307F10C0260
:101A0000BB7B1146184600F04DFA0346FB73FB7B87
:101A1000002B01D0FB7B0AE03B7B9BB21B029AB2FE
:101A20007B7B9BB213449AB27B681A80FB7B18467F
:101A30001037BD4680BD80B584B000AF786001230B
:101A4000FB731823BB7307F10C02BB7B11461846CE
:101A500000F028FA0346FB73FB7B002B01D0FB7BD5
:101A60000AE03B7B9BB21B029AB27B7B9BB2134486
:101A70009AB27B681A80FB7B18461037BD4680BD42
:101A800080B584B000AF78600123FB731823BB736B
:101A900007F10C02BB7B1146184600F003FA03461F
:101AA000FB73FB7B002B01D0FB7B0AE03B7B9BB2F3
:101AB0001B029AB27B7B9BB213449AB27B681A805A
:101AC000FB7B18461037BD4680BD80B584B000AFA3
:101AD00078600123FB731A23BB7307F10C02BB7BF5
:101AE0001146184600F0DEF90346FB73FB7B002B22
:101AF00001D0FB7B0AE03B7B9BB21B029AB27B7B53
:101B00009BB213449AB27B681A80FB7B184610374D
:101B1000BD4680BD80B584B000AF78600123FB7303
:101B20001B23BB7307F10C02BB7B1146184600F068
:101B3000B9F90346FB73FB7B002B01D0FB7B0AE06A
:101B40003B7B9BB21B029AB27B7B9BB213449AB243
:101B50007B681A80FB7B18461037BD4680BD80B578
:101B600084B000AF78600123FB731C23BB7307F1C3
:101B70000C02BB7B1146184600F094F90346FB7338
:101B8000FB7B002B01D0FB7B0AE03B7B9BB21B0263
:101B90009AB27B7B9BB213449AB27B681A80FB7B20
:101BA00018461037BD4680BD80B584B000AF786060
:101BB0000123FB731D23BB7307F10C02BB7B114692
:101BC000184600F06FF90346FB73FB7B002B01D036
:101BD000FB7B0AE03B7B9BB21B029AB27B7B9BB2F6
:101BE00013449AB27B681A80FB7B18461037BD46B7
:101BF00080BD80B584B000AF78600123FB733023D3
:101C0000BB7307F10C02BB7B1146184600F04AF982
:101C10000346FB73FB7B002B01D0FB7B0AE03B7B85
:101C20009BB21B029AB27B7B9BB213449AB27B6835
:101C30001A80FB7B18461037BD4680BD80B584B046
:101C400000AF78600123FB732B23BB7307F10C02F9
:101C5000BB7B1146184600F025F90346FB73FB7B5E
:101C6000002B01D0FB7B0AE03B7B9BB21B029AB2AC
:101C70007B7B9BB213449AB27B681A80FB7B18462D
:101C80001037BD4680BD80B584B000AF78600123B9
:101C9000FB732C23BB7307F10C02BB7B1146184668
:101CA00000F000F90346FB73FB7B002B01D0FB7BAC
:101CB0000AE03B7B9BB21B029AB27B7B9BB2134434
:101CC0009AB27B681A80FB7B18461037BD4680BDF0
:101CD00080B500AF0121012000F048F90346184605
:101CE00080BD80B500AF0221012000F03FF903461E
:101CF000184680BD80B500AF0121042000F036F900
:101D00000346184680BD80B500AF0221042000F0D4
:101D10002DF90346184680BD80B500AF002105208F
:101D200000F024F90346184680BD80B500AF0021BD
:101D3000062000F01BF90346184680BD80B500AFB1
:101D40000121082000F012F90346184680BD80B535
:101D500000AF0021082000F009F90346184680BDB5
:101D600080B500AF0121092000F000F903461846B4
:101D700080BD80B500AF0021092000F0F7F80346D0
:101D8000184680BD80B500AF01210A2000F0EEF8B2
:101D90000346184680BD80B500AF00210A2000F040
:101DA000E5F80346184680BD80B500AF01210B2041
:101DB00000F0DCF80346184680BD80B500AF002176
:101DC0000B2000F0D3F80346184680BD80B500AF65
:101DD00001210C2000F0CAF80346184680BD80B5EA
:101DE00000AF00210C2000F0C1F80346184680BD6A
:101DF00080B500AF01210E2000F0B8F80346184668
:101E000080BD80B500AF00210E2000F0AFF8034682
:101E1000184680BD80B500AF01210F2000F0A6F864
:101E20000346184680BD80B500AF00210F2000F0AA
:101E30009DF80346184680BD80B500AF01211020F3
:101E400000F094F80346184680BD80B500AF00212D
:101E5000102000F08BF80346184680BD80B500AF17
:101E60000121112000F082F80346184680BD80B59C
:101E700000AF0021112000F079F80346184680BD1C
:101E800080B500AF0121122000F070F8034618461B
:101E900080BD80B500AF0021122000F067F8034636
:101EA000184680BD80B586B002AF03463960FB712D
:101EB0002A4B1B6840F6C411184608F067FB012343
:101EC000FB73FA1D6423009301233021244802F0A0
:101ED000A5FB0346FB73FB7B002B17D0214B1B6834
:101EE0004FF4FA71184608F051FB1F4B1B68013381
:101EF0001D4A13601B4B1B68184608F097FB174BD5
:101F00001B68184608F092FBFB7B23E064230093D8
:101F100002233A683021124802F08EFC0346FB731C
:101F2000FB7B002B10D00F4B1B684FF4FA71184647
:101F300008F02CFB0C4B1B6801330B4A1360094B58
:101F40001B68184608F072FB044B1B68184608F023
:101F50006DFBFB7B18461037BD4680BD2802002074
:101F6000A0020020300200200802002080B586B0C8
:101F700002AF03460A46FB711346BB711A4B1B683E
:101F800040F2DC51184608F001FB0023FB73FB799B
:101F90003B73BB797B7307F10C026423009302232C
:101FA0003021124802F03AFB0346FB73FB7B002B07
:101FB00010D00F4B1B684FF4FA71184608F0E6FA80
:101FC0000C4B1B6801330B4A1360094B1B68184606
:101FD00008F02CFB044B1B68184608F027FBFB7B22
:101FE00018461037BD4680BD28020020A002002000
:101FF000300200200802002080B584B000AF0A2320
:102000003B71FF237B710223BB7102200BF092F81E
:102010000346BB60BB68FF221A70BB680133FF2216
:102020001A703B1D93E80700FFF7DEF803463B7389
:102030003B1D93E80700FFF757F803461846103793
:10204000BD4680BDF0B5B9B000AF3B1D83E80700C9
:102050003B79282B48DC0A2BC1F25C800A3B1E2B03
:1020600001F2588001A252F823F000BFF3200008CB
:102070001531000815310008153100081531000828
:102080001531000815310008153100081531000818
:10209000153100081B310008153100081531000802
:1020A00015310008153100081531000815310008F8
:1020B000153100081531000815310008EF2200081D
:1020C00015310008153100081531000815310008D8
:1020D00015310008153100081531000815310008C8
:1020E000153100081B3100085A2B01F0188001F04F
:1020F00011B87B79013B0B2B01F2138001A252F83E
:1021000023F000BF3521000823310008C721000853
:10211000233100085B220008233100085B220008FD
:10212000233100085B2200085B22000823310008ED
:102130005B220008D44B07F110041D460FCD0FC4DD
:102140000FCD0FC40FCD0FC495E8070003C4228044
:102150000A2387F8A830002387F8A9303A2387F8A4
:10216000AA303A200AF0E6FF0346C7F8AC30D7F8A9
:10217000AC3007F110049C4604F1300E654626464B
:102180000FCE28606960AA60EB6010340CF1100C6F
:102190007445F3D16246234603CB106051601B881F
:1021A000138107F1A80393E80700FFF71DF8034622
:1021B00087F8B03007F1A80393E80700FEF794FF13
:1021C000034600F0B2BF01F00AF8034687F8DF309B
:1021D00097F8DF30002B03D04FF0FF3300F0A5BF9E
:1021E00097F8DF3007EE903AF8EE677AB0EE670ABC
:1021F00001F0DAFA0346A7F8B6300A2387F8A830C8
:10220000022387F8A930022387F8AA3002200AF0B7
:1022100091FF0346C7F8AC30B7F8B6301B0A9AB244
:10222000D7F8AC30D2B21A70D7F8AC300133B7F867
:10223000B620D2B21A7007F1A80393E80700FEF7A0
:10224000D3FF034687F8B03007F1A80393E80700EF
:10225000FEF74AFF034600F068BF00F06BFF03463D
:1022600087F8DF3097F8DF30002B03D04FF0FF33D3
:1022700000F05BBF97F8DF3007EE903AF8EE677A30
:10228000B0EE670A01F090FA0346A7F8B8300A23C7
:1022900087F8A8300B2387F8A930022387F8AA30E3
:1022A00002200AF047FF0346C7F8AC30B7F8B83051
:1022B0001B0A9AB2D7F8AC30D2B21A70D7F8AC3049
:1022C0000133B7F8B820D2B21A7007F1A80393E827
:1022D0000700FEF789FF034687F8B03007F1A8032F
:1022E00093E80700FEF700FF034600F01EBF7B796E
:1022F000013B102B00F2178701A252F823F000BF18
:102300004523000827310008292400082731000848
:102310007525000827310008BD2600082731000870
:102320000528000827310008FB280008273100088D
:10233000DD2A0008273100081B2C0008273100087F
:10234000A12D000807F1A4031846FEF7BFFF0346BE
:1023500087F8DF3097F8DF30002B03D04FF0FF33E2
:1023600000F0E3BE07F1A0031846FEF7E1FF0346C5
:1023700087F8DF3097F8DF30002B03D04FF0FF33C2
:1023800000F0D3BED7ED297AB0EE670A01F00CFA5F
:102390000346A7F8BC30D7ED287AB0EE670A01F003
:1023A00003FA0346A7F8BA301E2387F8A8300023A3
:1023B00087F8A930042387F8AA3004200AF0BAFE6F
:1023C0000346C7F8AC30B7F8BC301B0A9AB2D7F84E
:1023D000AC30D2B21A70D7F8AC300133B7F8BC20A9
:1023E000D2B21A70B7F8BA301B0A9AB2D7F8AC302A
:1023F0000233D2B21A70D7F8AC300333B7F8BA2030
:10240000D2B21A7007F1A80393E80700FEF7ECFEBA
:10241000034687F8B03007F1A80393E80700FEF7FA
:1024200063FE034600F081BE07F19C031846FEF7E9
:10243000B1FF034687F8DF3097F8DF30002B03D079
:102440004FF0FF3300F071BE07F198031846FEF716
:10245000D3FF034687F8DF3097F8DF30002B03D037
:102460004FF0FF3300F061BE07F194031846FEF70A
:10247000F5FF034687F8DF3097F8DF30002B05D0F3
:102480004FF0FF3300F051BEB8010108D7ED277AB5
:10249000B0EE670A01F088F90346A7F8C230D7ED1D
:1024A000267AB0EE670A01F07FF90346A7F8C0303C
:1024B000D7ED257AB0EE670A01F076F90346A7F862
:1024C000BE301E2387F8A830022387F8A9300623E0
:1024D00087F8AA3006200AF02DFE0346C7F8AC3074
:1024E000B7F8C2301B0A9AB2D7F8AC30D2B21A7021
:1024F000D7F8AC300133B7F8C220D2B21A70B7F8AF
:10250000C0301B0A9AB2D7F8AC300233D2B21A707C
:10251000D7F8AC300333B7F8C020D2B21A70B7F88E
:10252000BE301B0A9AB2D7F8AC300433D2B21A705C
:10253000D7F8AC300533B7F8BE20D2B21A7007F125
:10254000A80393E80700FEF74FFE034687F8B03074
:1025500007F1A80393E80700FEF7C6FD034687F8D6
:10256000DF30D7F8AC3018460AF0ECFD97F8DF30D2
:1025700000F0DBBD07F190031846FEF7A1FF03460C
:1025800087F8DF3097F8DF30002B03D04FF0FF33B0
:1025900000F0CBBD07F18C031846FEF7C3FF0346DE
:1025A00087F8DF3097F8DF30002B03D04FF0FF3390
:1025B00000F0BBBD07F188031846FEF7E5FF0346B0
:1025C00087F8DF3097F8DF30002B03D04FF0FF3370
:1025D00000F0ABBDD7ED247AB0EE670A01F0E4F865
:1025E0000346A7F8C830D7ED237AB0EE670A01F0AA
:1025F000DBF80346A7F8C630D7ED227AB0EE670ABB
:1026000001F0D2F80346A7F8C4301E2387F8A8309B
:10261000042387F8A930062387F8AA3006200AF099
:1026200089FD0346C7F8AC30B7F8C8301B0A9AB228
:10263000D7F8AC30D2B21A70D7F8AC300133B7F853
:10264000C820D2B21A70B7F8C6301B0A9AB2D7F8AF
:10265000AC300233D2B21A70D7F8AC300333B7F8CB
:10266000C620D2B21A70B7F8C4301B0A9AB2D7F893
:10267000AC300433D2B21A70D7F8AC300533B7F8A7
:10268000C420D2B21A7007F1A80393E80700FEF73E
:10269000ABFD034687F8B03007F1A80393E80700C5
:1026A000FEF722FD034687F8DF30D7F8AC30184636
:1026B0000AF048FD97F8DF3000F037BD07F18403DA
:1026C0001846FEF793FF034687F8DF3097F8DF30B0
:1026D000002B03D04FF0FF3300F027BD07F180033C
:1026E0001846FEF7B5FF034687F8DF3097F8DF306E
:1026F000002B03D04FF0FF3300F017BD07F17C0330
:102700001846FEF7D7FF034687F8DF3097F8DF302B
:10271000002B03D04FF0FF3300F007BDD7ED217A37
:10272000B0EE670A01F040F80346A7F8CE30D7EDC7
:10273000207AB0EE670A01F037F80346A7F8CC30EC
:10274000D7ED1F7AB0EE670A01F02EF80346A7F81E
:10275000CA301E2387F8A830062387F8A93006233D
:1027600087F8AA3006200AF0E5FC0346C7F8AC302B
:10277000B7F8CE301B0A9AB2D7F8AC30D2B21A7082
:10278000D7F8AC300133B7F8CE20D2B21A70B7F810
:10279000CC301B0A9AB2D7F8AC300233D2B21A70DE
:1027A000D7F8AC300333B7F8CC20D2B21A70B7F8F0
:1027B000CA301B0A9AB2D7F8AC300433D2B21A70BE
:1027C000D7F8AC300533B7F8CA20D2B21A7007F187
:1027D000A80393E80700FEF707FD034687F8B0302B
:1027E00007F1A80393E80700FEF77EFC034687F88D
:1027F000DF30D7F8AC3018460AF0A4FC97F8DF3089
:1028000000F093BC07F178031846FEF785FF0346F6
:1028100087F8DF3097F8DF30002B03D04FF0FF331D
:1028200000F083BC07F174031846FEF7A7FF0346C8
:1028300087F8DF3097F8DF30002B03D04FF0FF33FD
:1028400000F073BCD7ED1E7AB0EE670A00F0ACFF63
:102850000346A7F8D230D7ED1D7AB0EE670A00F034
:10286000A3FF0346A7F8D0301E2387F8A83008231B
:1028700087F8A930042387F8AA3004200AF05AFC0C
:102880000346C7F8AC30B7F8D2301B0A9AB2D7F873
:10289000AC30D2B21A70D7F8AC300133B7F8D220CE
:1028A000D2B21A70B7F8D0301B0A9AB2D7F8AC304F
:1028B0000233D2B21A70D7F8AC300333B7F8D02055
:1028C000D2B21A7007F1A80393E80700FEF78CFC58
:1028D000034687F8B03007F1A80393E80700FEF736
:1028E00003FC034687F8DF30D7F8AC3018460AF00F
:1028F00029FC97F8DF3000F018BC07F17003184688
:10290000FEF76EFF034687F8DF3097F8DF30002BC5
:1029100003D04FF0FF3300F008BC07F16C031846FA
:10292000FEF79CFF034687F8DF3097F8DF30002B77
:1029300002D04FF0FF33F8E307F168031846FEF7C3
:10294000BFFF034687F8DF3097F8DF30002B02D057
:102950004FF0FF33E9E307F164031846FEF7E2FFA7
:10296000034687F8DF3097F8DF30002B02D04FF0B6
:10297000FF33DAE307F160031846FFF705F8034673
:1029800087F8DF3097F8DF30002B02D04FF0FF33AD
:10299000CBE3D7ED1C7AB0EE670A00F005FF0346E3
:1029A000A7F8DC30D7ED1B7AB0EE670A00F0FCFE2A
:1029B0000346A7F8DA30D7ED1A7AB0EE670A00F0CE
:1029C000F3FE0346A7F8D830D7ED197AB0EE670AC0
:1029D00000F0EAFE0346A7F8D630D7ED187AB0EE3D
:1029E000670A00F0E1FE0346A7F8D4301E2387F8FB
:1029F000A8300A2387F8A9300A2387F8AA300A20CA
:102A00000AF098FB0346C7F8AC30B7F8DC301B0A75
:102A10009AB2D7F8AC30D2B21A70D7F8AC300133D2
:102A2000B7F8DC20D2B21A70B7F8DA301B0A9AB2C3
:102A3000D7F8AC300233D2B21A70D7F8AC300333C7
:102A4000B7F8DA20D2B21A70B7F8D8301B0A9AB2A7
:102A5000D7F8AC300433D2B21A70D7F8AC300533A3
:102A6000B7F8D820D2B21A70B7F8D6301B0A9AB28B
:102A7000D7F8AC300633D2B21A70D7F8AC3007337F
:102A8000B7F8D620D2B21A70B7F8D4301B0A9AB26F
:102A9000D7F8AC300833D2B21A70D7F8AC3009335B
:102AA000B7F8D420D2B21A7007F1A80393E8070050
:102AB000FEF79AFB034687F8B03007F1A80393E8C6
:102AC0000700FEF711FB034687F8DF30D7F8AC307C
:102AD00018460AF037FB97F8DF3026E307F15E036C
:102AE0001846FEF783FF034687F8DF3097F8DF309C
:102AF000002B02D04FF0FF3317E307F15C031846B9
:102B0000FEF799FF034687F8DF3097F8DF30002B98
:102B100002D04FF0FF3308E307F15A031846FEF7DF
:102B2000AFFF034687F8DF3097F8DF30002B02D085
:102B30004FF0FF33F9E207F158031846FFF77EF82C
:102B4000034687F8DF3097F8DF30002B02D04FF0D4
:102B5000FF33EAE207F156031846FFF794F80346FD
:102B600087F8DF3097F8DF30002B02D04FF0FF33CB
:102B7000DBE21E2387F8A8300C2387F8A930062350
:102B800087F8AA3006200AF0D5FA0346C7F8AC3019
:102B9000B7F85E20D7F8AC30D2B21A70B7F85C3014
:102BA0001B0A9AB2D7F8AC300133D2B21A70B7F818
:102BB0005C20D7F8AC300233D2B21A70B7F85A2082
:102BC000D7F8AC300333D2B21A70B7F85820D7F820
:102BD000AC300433D2B21A70B7F85620D7F8AC3004
:102BE0000533D2B21A7007F1A80393E80700FEF785
:102BF000FBFA034687F8B03007F1A80393E8070013
:102C0000FEF772FA034687F8DF30D7F8AC30184683
:102C10000AF098FA97F8DF3087E207F15403184674
:102C2000FEF753FF034687F8DF3097F8DF30002BBD
:102C300002D04FF0FF3378E207F152031846FEF757
:102C400069FF034687F8DF3097F8DF30002B02D0AA
:102C50004FF0FF3369E207F150031846FEF77FFF9C
:102C6000034687F8DF3097F8DF30002B02D04FF0B3
:102C7000FF335AE207F14E031846FEF795FF03466D
:102C800087F8DF3097F8DF30002B02D04FF0FF33AA
:102C90004BE207F14C031846FEF7ABFF034687F8FB
:102CA000DF3097F8DF30002B02D04FF0FF333CE2EB
:102CB0001E2387F8A8300E2387F8A9300A2387F847
:102CC000AA300A200AF036FA0346C7F8AC30B7F843
:102CD00054301B0A9AB2D7F8AC30D2B21A70B7F897
:102CE0005420D7F8AC300133D2B21A70B7F8523052
:102CF0001B0A9AB2D7F8AC300233D2B21A70B7F8C6
:102D00005220D7F8AC300333D2B21A70B7F8503033
:102D10001B0A9AB2D7F8AC300433D2B21A70B7F8A3
:102D20005020D7F8AC300533D2B21A70B7F84E3015
:102D30001B0A9AB2D7F8AC300633D2B21A70B7F881
:102D40004E20D7F8AC300733D2B21A70B7F84C30F7
:102D50001B0A9AB2D7F8AC300833D2B21A70B7F85F
:102D60004C20D7F8AC300933D2B21A7007F1A8035F
:102D700093E80700FEF738FA034687F8B03007F10A
:102D8000A80393E80700FEF7AFF9034687F8DF30A2
:102D9000D7F8AC3018460AF0D5F997F8DF30C4E11F
:102DA0001E2387F8A830102387F8A930012387F85D
:102DB000AA3001200AF0BEF90346C7F8AC303B1D2B
:102DC00093E80700FEF745FA0346002B04D1D7F835
:102DD000AC3000221A7083E1BB681B78013B0E2BDC
:102DE00000F27E8101A252F823F000BF292E0008D4
:102DF000E1300008E1300008632E0008E1300008EF
:102E00009D2E0008D72E0008112F00084B2F000818
:102E1000852F0008BF2F0008F92F00083330000865
:102E20006D300008A7300008BB6801331B78002B09
:102E300006D1D7F8AC40FEF754FF034623704FE1AC
:102E4000BB6801331B78012B06D1D7F8AC40FEF7E5
:102E50003FFF0346237043E1D7F8AC3000221A70DD
:102E60003EE1BB6801331B78002B06D1D7F8AC409C
:102E7000FEF749FF0346237032E1BB6801331B783C
:102E8000012B06D1D7F8AC40FEF734FF0346237080
:102E900026E1D7F8AC3000221A7021E1BB6801337B
:102EA0001B78002B06D1D7F8AC40FEF750FF034645
:102EB000237015E1BB6801331B78012B06D1D7F8CD
:102EC000AC40FEF73BFF0346237009E1D7F8AC3076
:102ED00000221A7004E1BB6801331B78002B06D175
:102EE000D7F8AC40FEF745FF03462370F8E0BB6817
:102EF00001331B78012B06D1D7F8AC40FEF730FF29
:102F000003462370ECE0D7F8AC3000221A70E7E0FB
:102F1000BB6801331B78002B06D1D7F8AC40FEF715
:102F20003AFF03462370DBE0BB6801331B78012BBB
:102F300006D1D7F8AC40FEF725FF03462370CFE05B
:102F4000D7F8AC3000221A70CAE0BB6801331B7896
:102F5000002B06D1D7F8AC40FEF72FFF03462370B5
:102F6000BEE0BB6801331B78012B06D1D7F8AC401B
:102F7000FEF71AFF03462370B2E0D7F8AC30002208
:102F80001A70ADE0BB6801331B78002B06D1D7F86F
:102F9000AC40FEF724FF03462370A1E0BB68013379
:102FA0001B78012B06D1D7F8AC40FEF70FFF034684
:102FB000237095E0D7F8AC3000221A7090E0BB681F
:102FC00001331B78002B06D1D7F8AC40FEF719FF70
:102FD0000346237084E0BB6801331B78012B06D1C4
:102FE000D7F8AC40FEF704FF0346237078E0D7F82B
:102FF000AC3000221A7073E0BB6801331B78002BE1
:1030000006D1D7F8AC40FEF70EFF0346237067E009
:10301000BB6801331B78012B06D1D7F8AC40FEF713
:10302000F9FE034623705BE0D7F8AC3000221A703B
:1030300056E0BB6801331B78002B06D1D7F8AC40B3
:10304000FEF703FF034623704AE0BB6801331B7899
:10305000012B06D1D7F8AC40FEF7EEFE03462370F5
:103060003EE0D7F8AC3000221A7039E0BB6801337B
:103070001B78002B06D1D7F8AC40FEF7F8FE0346CC
:1030800023702DE0BB6801331B78012B06D1D7F8E4
:10309000AC40FEF7E3FE0346237021E0D7F8AC30E6
:1030A00000221A701CE0BB6801331B78002B06D18C
:1030B000D7F8AC40FEF7EDFE034623700FE0BB6887
:1030C00001331B78012B06D1D7F8AC40FEF7D8FEB0
:1030D0000346237003E0D7F8AC3000221A7000BF1B
:1030E00007F1A80393E80700FEF77EF8034687F888
:1030F000B03007F1A80393E80700FDF7F5FF03469A
:1031000087F8DF30D7F8AC3018460AF01BF897F88C
:10311000DF300AE04FF0FF3307E000BF04E000BFFC
:1031200002E000BF00E000BF00231846E437BD46C0
:10313000F0BD00BF80B58EB000AF07F12003184688
:1031400000F0CCF9034687F8373097F83730002B7A
:1031500002D097F837303EE097F829303B7797F860
:103160002A307B7797F82B30303BDBB25BB243F0F1
:1031700004035BB2DBB23033DBB2BB7797F82D30A0
:10318000FB7745233B7153237B712B23BB71572363
:10319000FB7132233B7232237B723023BB723023AC
:1031A000FB723B7F3B737B7F7B73BB7FBB73FB7F80
:1031B000FB7320233B743B1D03F10D023B1D0C21CF
:1031C000184600F01BFB0D237B763B1D162118468D
:1031D00000F0EEF9034618463837BD4680BD80B58D
:1031E0008EB000AF07F12003184600F077F90346D0
:1031F00087F8373097F83730002B02D097F8373000
:103200003CE097F829303B7797F82A307B7797F89E
:103210002B30303BDBB223F00403DBB23033DBB2C4
:10322000BB7797F82D30FB7745233B7153237B7198
:103230002B23BB715723FB7132233B7232237B72EA
:103240003023BB723023FB723B7F3B737B7F7B73EE
:10325000BB7FBB73FB7FFB7320233B743B1D03F1E0
:103260000D023B1D0C21184600F0C8FA0D237B7699
:103270003B1D1621184600F09BF9034618463837C7
:10328000BD4680BD80B58CB000AF0346FB804523B2
:103290003B7553237B752B23BB755723FB7532235B
:1032A0003B7632237B763023BB763723FB76302385
:1032B0003B7730237B773023BB773023FB77FA884B
:1032C00007F10C03104918460AF0B4FCFB683B6296
:1032D000202387F8243007F1140303F1110207F1CA
:1032E00014031021184600F089FA0D2387F82D30B9
:1032F00007F114031A21184600F05AF9034618463C
:103300003037BD4680BD00BFF40101082DE9F04310
:1033100087B000AF78600B46FB706B461E46FB78AB
:10332000612B01D901237BE0FB7803F114014B1ED3
:103330003B610A460023904699464FF000024FF049
:1033400000034FEAC90343EA58734FEAC8020A462A
:10335000002314461D464FF000024FF00003EB001F
:1033600043EA5473E2000B460733DB08DB00ADEBA6
:10337000030D6B460033FB60FB6845221A70FB6847
:1033800053225A70FB682B229A70FB685722DA701E
:10339000FB6832221A71FB6832225A71FB6846229E
:1033A0009A71FB684222DA71FA7807F108031F4923
:1033B00018460AF03FFCFB6808333A891A8000235C
:1033C0007B610AE07B697A681A447B690A33117869
:1033D000FA68D1547B6901337B617B697A68134455
:1033E0001B78002BEED17B690A33FA682021D15477
:1033F0007B6903F10A017B690B33FA6813441A46AF
:10340000F86800F0FBF9FB781333FA680D21D1540A
:10341000FB781433DBB21946F86800F0C9F80346AC
:10342000B54618461C37BD46BDE8F083FC010108CF
:1034300080B58EB000AF07F12003184600F04EF8BB
:10344000034687F8373097F83730002B02D097F8CB
:1034500037303EE097F829303B7797F82A307B7772
:1034600097F82B30303BDBB25BB243F002035BB228
:10347000DBB23033DBB2BB7797F82D30FB774523D7
:103480003B7153237B712B23BB715723FB71322379
:103490003B7232237B723023BB723023FB723B7F43
:1034A0003B737B7F7B73BB7FBB73FB7FFB732023F3
:1034B0003B743B1D03F10D023B1D0C21184600F02F
:1034C0009DF90D237B763B1D1621184600F070F800
:1034D000034618463837BD4680BD0000B0B588B0F9
:1034E00000AF7860124B07F10C041D460FCD0FC4DE
:1034F0002B681A46228002341B0C237007F10C0043
:1035000017231222796800F015F80346FB777B68D1
:103510001B784F2B04D17B6801331B784B2B01D0D8
:10352000012300E0FB7F18462037BD46B0BD00BF39
:103530000402010880B586B000AFF860B96011469A
:103540001A460B46FB711346BB71174B1B6840F6BE
:10355000C411184607F01AF8FB799AB24FF47A733F
:10356000F968124804F089FB0346FB75FB7D002BCC
:1035700006D00D4B1B68184607F058F8FB7D0FE08E
:10358000BB799AB24FF47A73B968084804F00EFC1C
:103590000346FB75044B1B68184607F047F8FB7D94
:1035A00018461837BD4680BD2C020020BC060020FE
:1035B00080B584B000AF78600B46FB701B4B1B6876
:1035C00040F6C411184606F0E1FFFB789AB24FF4BA
:1035D0007A737968164804F050FB0346FB73FB7B53
:1035E000002B06D0114B1B68184607F01FF8FB7B19
:1035F00017E007F10C014FF47A7302220C4804F033
:10360000D5FB0346FB73094B1B68184607F00EF801
:103610003B7B4F2B02D17B7B4B2B01D0012300E066
:10362000FB7B18461037BD4680BD00BF2C02002032
:10363000BC0600200FB42DE9F04188B000AF6B4606
:1036400098464FF40073BB61BE693346013B7B6112
:10365000002334461D464FF000024FF00003EB00FC
:1036600043EA5473E2000023304619464FF000024B
:103670004FF00003CB0043EA5073C200F31DDB0898
:10368000DB00ADEB030D6B4600333B6107F13C0300
:10369000BB60BB68BA6BB96938690AF017FBF860A0
:1036A0000123FB77FB68002B1BDDFB689AB24FF40C
:1036B0007A733969104804F0E0FA0346FB770F4A41
:1036C0003B1D1268114619800233120C1A70391D05
:1036D0004FF47A730222084804F0CFFA0346FB77CE
:1036E00001E00123FB77FB7FC54618462037BD4626
:1036F000BDE8F04104B07047FC060020D00201088C
:1037000080B584B000AF786039600023FB6016E0BC
:103710000F4B5B690E4A43F0100353613B68184638
:1037200000F0DCF90A4B5B69094A23F0100353618E
:103730003B68184600F0D2F9FB680133FB60FA6879
:103740007B689A42E4DB00BF00BF1037BD4680BDF6
:103750000008024080B584B000AF78603960002373
:10376000FB6016E00F4B5B690E4A43F02003536188
:103770003B68184600F0B2F90A4B5B69094A23F02E
:10378000200353613B68184600F0A8F9FB68013339
:10379000FB60FA687B689A42E4DB00BF00BF103729
:1037A000BD4680BD0008024080B485B000AF87ED03
:1037B000010A3B1D1B68FB60FB681B0C9BB223F4DA
:1037C000FF4323F07F039AB2FB6803F0FF4303F14A
:1037D00048435B0B9BB203F4F8439BB213439AB28A
:1037E000FB685B0B9BB2C3F309039BB213439BB211
:1037F00018461437BD465DF8047B704780B58AB023
:1038000000AFF860B9607A6000237B624FF0FF334D
:10381000FB6120E07B6AFA6813441B78BB61FA699C
:10382000BB695340FB6107233B620EE0FB6903F079
:1038300001035B427B61FB695A0879690E4B0B40BF
:103840005340FB613B6A013B3B623B6A002BEDDA74
:103850007B6A01337B627A6ABB689A42DADBFB6976
:10386000DB43FB61FA69054978680AF0E3F9FB6913
:1038700018462837BD4680BD2083B8ED28030108CF
:10388000B0B59AB000AF00F0EDF805F0DFFD41F201
:10389000707000F023F905F05BFE05F0F5FF06F00F
:1038A0006BF806F03FF806F091F806F01BF806F00A
:1038B00093F904222F49304804F01EFB04222D49BD
:1038C0002E4804F019FB2E4B07F154041D460FCD72
:1038D0000FC42B68236007F154030021184606F03B
:1038E0000DFE284B07F140041D460FCD0FC42B6879
:1038F000236007F140030021184606F0FFFD224B2C
:1039000007F12C041D460FCD0FC42B68236007F16F
:103910002C030021184606F0F1FD1C4B07F118049A
:103920001D460FCD0FC42B68236007F1180300213B
:10393000184606F0E3FD164B3C1D1D460FCD0FC487
:103940002B6823603B1D0021184606F0D7FD06F0CA
:10395000BEFD1048FFF76EFE0F4B04221A600422D2
:103960000449054804F0C8FA002318466837BD46E4
:10397000B0BD00BF14020020FC060020BC060020E1
:1039800094030108A8030108BC030108D00301083F
:10399000E4030108740301081C02002080B582B012
:1039A00000AF78607B681B68044A934201D100F045
:1039B0007BF800BF0837BD4680BD00BF0000014056
:1039C00080B500AF4FF4FA610520FFF799FE4FF480
:1039D000FA610520FFF7BEFEF4E7000080B588B06D
:1039E00000AF78607B681C4A934216D107F1080348
:1039F0001A491846FDF74AFB07F1080393E8070048
:103A0000FEF720FB0346B3F1FF3F01D1FEF7F4FAC6
:103A100004221249104804F06FFA7B68104A93425E
:103A200016D107F114030D491846FDF72FFB07F1D6
:103A3000140393E80700FEF705FB0346B3F1FF3FCD
:103A400001D1FEF7D9FA04220449054804F054FADA
:103A500000BF2037BD4680BDFC06002014020020B8
:103A6000BC06002080B500AF0E4B1B680D4A43F426
:103A7000007313600B4B1B680A4A43F480631360A6
:103A8000084B1B68074A43F480731360032000F05F
:103A90000FF90F2006F094FB06F0B6F90023184644
:103AA00080BD00BF003C024080B400AF044B1B68E7
:103AB0000133034A136000BFBD465DF8047B7047C5
:103AC0005402002080B400AF034B1B681846BD466B
:103AD0005DF8047B704700BF5402002080B584B0BD
:103AE00000AF7860FFF7EEFFB8607B68FB60FB68B3
:103AF000B3F1FF3F02D0FB680133FB6000BFFFF76B
:103B0000E1FF0246BB68D31AFA689A42F7D800BFB1
:103B100000BF1037BD4680BD80B485B000AF78606F
:103B20007B6803F00703FB600C4BDB68BB60BA6883
:103B30004FF6FF031340BB60FB681A02BB681343D8
:103B400043F0BF6343F40033BB60044ABB68D360F7
:103B500000BF1437BD465DF8047B704700ED00E000
:103B600080B400AF044BDB681B0A03F00703184660
:103B7000BD465DF8047B704700ED00E080B483B083
:103B800000AF0346FB71FB7903F01F02074997F969
:103B900007305B09012000FA02F241F8232000BF40
:103BA0000C37BD465DF8047B704700BF00E100E0C4
:103BB00080B483B000AF03463960FB7197F90730DA
:103BC000002B0BDA3B68DAB20C49FB7903F00F03E8
:103BD000043B1201D2B20B441A7609E03B68DAB218
:103BE000074997F907301201D2B20B4483F800233A
:103BF00000BF0C37BD465DF8047B704700ED00E068
:103C000000E100E080B489B000AFF860B9607A608C
:103C1000FB6803F00703FB61FB69C3F10703042B97
:103C200028BF0423BB61FB690433062B02D9FB695F
:103C3000033B00E000237B614FF0FF32BB6902FAD7
:103C400003F3DA43BB681A407B699A404FF0FF31B7
:103C50007B6901FA03F3D9437B680B401343184691
:103C60002437BD465DF8047B7047000080B582B004
:103C700000AF78607B68013BB3F1807F01D3012303
:103C80000FE00A4A7B68013B53600F214FF0FF3081
:103C9000FFF78EFF054B00229A60044B07221A6043
:103CA000002318460837BD4680BD00BF10E000E085
:103CB00080B582B000AF78607868FFF72DFF00BF55
:103CC0000837BD4680BD80B586B000AF0346B960F9
:103CD0007A60FB7300237B61FFF742FF78617A68AB
:103CE000B9687869FFF78EFF024697F90F301146E1
:103CF0001846FFF75DFF00BF1837BD4680BD80B591
:103D000082B000AF0346FB7197F907301846FFF702
:103D100035FF00BF0837BD4680BD80B582B000AF1B
:103D200078607868FFF7A2FF034618460837BD465B
:103D300080BD000080B483B000AF78607B68042B46
:103D400006D1094B1B68084A43F00403136005E0E1
:103D5000054B1B68044A23F00403136000BF0C37B3
:103D6000BD465DF8047B704710E000E080B483B08E
:103D700000AF78607B6893F83530DBB2022B04D05B
:103D80007B6880225A6501230CE07B68052283F85A
:103D900035207B681B681A687B681B6822F001026B
:103DA0001A60002318460C37BD465DF8047B704747
:103DB00080B586B000AF78600023BB608E4B1B6877
:103DC0008E4AA2FB03239B0A7B617B689B6D3B6150
:103DD0003B691B68FB607B68DB6D08229A40FB68CF
:103DE0001340002B1AD07B681B681B6803F0040388
:103DF000002B13D07B681B681A687B681B6822F055
:103E000004021A607B68DB6D08229A403B699A6065
:103E10007B685B6D43F001027B685A657B68DB6DF4
:103E2000774A9A40FB681340002B12D07B681B68CE
:103E30005B6903F08003002B0BD07B68DB6D704A5D
:103E40009A403B699A607B685B6D43F002027B6835
:103E50005A657B68DB6D6B4A9A40FB681340002B08
:103E600012D07B681B681B6803F00203002B0BD089
:103E70007B68DB6D634A9A403B699A607B685B6D47
:103E800043F004027B685A657B68DB6D10229A4020
:103E9000FB681340002B43D07B681B681B6803F052
:103EA0000803002B3CD07B68DB6D10229A403B69F5
:103EB0009A607B681B681B6803F48023002B18D072
:103EC0007B681B681B6803F40023002B08D17B6808
:103ED0001B6C002B24D07B681B6C786898471FE014
:103EE0007B689B6C002B1BD07B689B6C7868984729
:103EF00016E07B681B681B6803F48073002B07D1F6
:103F00007B681B681A687B681B6822F008021A60CD
:103F10007B681B6C002B03D07B681B6C7868984710
:103F20007B68DB6D20229A40FB681340002B00F079
:103F300093807B681B681B6803F01003002B00F064
:103F40008B807B68DB6D20229A403B699A607B689E
:103F500093F83530DBB2052B37D17B681B681A68C4
:103F60007B681B6822F016021A607B681B685A691E
:103F70007B681B6822F080025A617B681B6C002BF7
:103F800003D17B689B6C002B07D07B681B681A6889
:103F90007B681B6822F008021A607B68DB6D3F2299
:103FA0009A403B699A607B68002283F834207B68E2
:103FB000012283F835207B681B6D002B00F0828086
:103FC0007B681B6D786898477CE07B681B681B6882
:103FD00003F48023002B20D07B681B681B6803F44C
:103FE0000023002B10D17B685B6C002B34D07B68E6
:103FF0005B6C786898472FE014000020B5814E1B59
:1040000001008000040080007B68DB6B002B23D064
:104010007B68DB6B786898471EE07B681B681B68D1
:1040200003F48073002B0FD17B681B681A687B68D0
:104030001B6822F010021A607B68002283F834208B
:104040007B68012283F835207B68DB6B002B03D073
:104050007B68DB6B786898477B685B6D002B32D0A0
:104060007B685B6D03F00103002B22D07B68052287
:1040700083F835207B681B681A687B681B6822F010
:1040800001021A60BB680133BB607A699A4207D3A8
:104090007B681B681B6803F00103002BF2D100E072
:1040A00000BF7B68002283F834207B68012283F8FC
:1040B00035207B68DB6C002B05D07B68DB6C786877
:1040C000984700E000BF1837BD4680BD80B489B076
:1040D00000AF7860396000237B6100233B610023DF
:1040E000BB610023FB6177E10122FB6902FA03F364
:1040F0007B613B681B687A6913403B613A697B6965
:104100009A4240F066813B685B68022B03D03B68B3
:104110005B68122B23D1FB69DA087B68083253F8FD
:104120002230BB61FB6903F007039B000F2202FAF8
:1041300003F3DB43BA691340BB613B681A69FB694F
:1041400003F007039B0002FA03F3BA691343BB6150
:10415000FB69DA087B680832B96943F822107B688A
:104160001B68BB61FB695B00032202FA03F3DB43BC
:10417000BA691340BB613B685B6803F00302FB69EB
:104180005B0002FA03F3BA691343BB617B68BA6947
:104190001A603B685B68012B0BD03B685B68022BA5
:1041A00007D03B685B68112B03D03B685B68122B20
:1041B00030D17B689B68BB61FB695B00032202FA1C
:1041C00003F3DB43BA691340BB613B68DA68FB6900
:1041D0005B0002FA03F3BA691343BB617B68BA69F7
:1041E0009A607B685B68BB610122FB6902FA03F39A
:1041F000DB43BA691340BB613B685B681B0903F092
:104200000102FB6902FA03F3BA691343BB617B68DD
:10421000BA695A607B68DB68BB61FB695B0003229B
:1042200002FA03F3DB43BA691340BB613B689A6847
:10423000FB695B0002FA03F3BA691343BB617B6855
:10424000BA69DA603B685B6803F08053002B00F0CA
:10425000C0800023FB60664B5B6C654A43F480437F
:104260005364634B5B6C03F48043FB60FB68614AFF
:10427000FB699B08023352F82330BB61FB6903F0F2
:1042800003039B000F2202FA03F3DB43BA691340D6
:10429000BB617B68584A934237D07B68574A934248
:1042A00031D07B68564A93422BD07B68554A934263
:1042B00025D07B68544A93421FD07B68534A93426F
:1042C00019D07B68524A934213D07B68514A93427B
:1042D0000DD07B68504A934207D07B684F4A934287
:1042E00001D1092312E00A2310E008230EE007237E
:1042F0000CE006230AE0052308E0042306E003237C
:1043000004E0022302E0012300E00023FA6902F046
:10431000030292009340BA691343BB613549FB69BC
:104320009B080233BA6941F823203D4B1B68BB61EF
:104330003B69DB43BA691340BB613B685B6803F4CC
:104340008033002B03D0BA693B691343BB61344A05
:10435000BB691360324B5B68BB613B69DB43BA6985
:104360001340BB613B685B6803F40033002B03D050
:10437000BA693B691343BB61294ABB695360284B47
:104380009B68BB613B69DB43BA691340BB613B6817
:104390005B6803F48013002B03D0BA693B691343B5
:1043A000BB611F4ABB6993601D4BDB68BB613B6906
:1043B000DB43BA691340BB613B685B6803F40013DD
:1043C000002B03D0BA693B691343BB61144ABB6934
:1043D000D360FB690133FB61FB690F2B7FF684AE71
:1043E00000BF00BF2437BD465DF8047B704700BFA7
:1043F0000038024000380140000002400004024042
:1044000000080240000C024000100240001402406C
:1044100000180240001C024000200240002402401C
:10442000003C014080B483B000AF78600B467B80D5
:1044300013467B707B78002B03D07A887B689A6167
:1044400003E07B881A047B689A6100BF0C37BD4685
:104450005DF8047B7047000080B584B000AF7860E1
:104460000023FB600023BB607B68002B01D101238C
:10447000C9E07B6893F83D30DBB2002B06D17B6846
:10448000002283F83C20786805F0F0FC7B68242249
:1044900083F83D207B681B681A687B681B6822F0E4
:1044A00001021A6001F0E6FAB860BB68584AA2FB44
:1044B00003239B0CFB607B681B68FA685A607B686F
:1044C0005B68544A934202D8FB68013309E0FB68F9
:1044D0004FF4967202FB03F34F4AA2FB03239B099E
:1044E00001337A68126813627B685B68494A9342B9
:1044F00013D87B685B685B00BA68B2FBF3F240F6E6
:10450000FC731340002B06D07B685B685B00BA68C5
:10451000B2FBF3F345E0042343E07B689B68002B88
:104520000FD17B685A6813465B001344BA68B2FB2C
:10453000F3F3C3F30B03002B0CBF01230023DBB207
:1045400010E07B685A6813469B0013449A0013449A
:10455000BA68B2FBF3F3C3F30B03002B0CBF0123C8
:104560000023DBB2002B01D001231AE07B689B689B
:10457000002B0AD17B685A6813465B001344BA6863
:10458000B2FBF3F343F400430BE07B685A68134635
:104590009B0013449A001344BA68B2FBF3F343F44C
:1045A00040437A681268D3617B68D9697B681A6A6C
:1045B0007B681B680A431A607B6819697B68DA6844
:1045C0007B681B680A439A607B6859697B689A69B3
:1045D0007B681B680A43DA607B681B681A687B6823
:1045E0001B6842F001021A607B6800221A647B6833
:1045F000202283F83D207B6800221A637B6800221A
:1046000083F83E20002318461037BD4680BD00BF0A
:1046100083DE1B43A0860100D34D621080B588B0B5
:1046200002AFF8607A601A460B467B8113463B81E5
:1046300000237B61FFF746FA7861FB6893F83D3011
:10464000DBB2202B40F0EE807B690093192301221E
:104650007749F86800F06CFC0346002B01D0022378
:10466000E1E0FB6893F83C30012B01D10223DAE052
:10467000FB68012283F83C20FB681B681B6803F081
:104680000103012B07D0FB681B681A68FB681B68D5
:1046900042F001021A60FB681B681A68FB681B681D
:1046A00022F400621A60FB68212283F83D20FB6837
:1046B000102283F83E20FB6800221A64FB687A68A7
:1046C0005A62FB683A895A85FB685A4ADA62FB6883
:1046D0005B8D9AB2FB681A8579897B693A6AF868BA
:1046E00000F0DCFA0346002B0FD0FB681B6C042B98
:1046F00005D1FB68002283F83C20012393E0FB688E
:10470000002283F83C2003238DE000233B61FB68FB
:104710001B685B693B61FB681B689B693B613B698C
:1047200066E07A69396AF86800F0C1FC0346002B3C
:104730000FD0FB681B6C042B09D1FB681B681A683F
:10474000FB681B6842F400721A6001236BE00323CC
:1047500069E0FB685B6A591CFA6851621A78FB6869
:104760001B681A61FB685B8D9BB2013B9AB2FB68C8
:104770005A85FB681B8D013B9AB2FB681A85FB6862
:104780001B685B6903F00403042B19D1FB681B8DC4
:10479000002B15D0FB685B6A591CFA6851621A78C5
:1047A000FB681B681A61FB685B8D9BB2013B9AB288
:1047B000FB685A85FB681B8D013B9AB2FB681A8522
:1047C0007A69396AF86800F0AFFC0346002B0FD015
:1047D000FB681B6C042B09D1FB681B681A68FB681B
:1047E0001B6842F400721A6001231CE003231AE0E4
:1047F000FB681B8D002B94D1FB681B681A68FB6853
:104800001B6842F400721A60FB68202283F83D2086
:10481000FB68002283F83E20FB68002283F83C20DE
:10482000002300E0022318461837BD4680BD00BFB4
:10483000020010000000FFFF80B58CB002AFF860EE
:104840007A601A460B467B8113463B8100237B62CC
:10485000FFF738F97862FB6893F83D30DBB2202B24
:1048600040F015827B6A0093192301228549F8687C
:1048700000F05EFB0346002B01D0022308E2FB6838
:1048800093F83C30012B01D1022301E2FB680122A5
:1048900083F83C20FB681B681B6803F00103012BB5
:1048A00007D0FB681B681A68FB681B6842F00102AE
:1048B0001A60FB681B681A68FB681B6822F40062B8
:1048C0001A60FB68222283F83D20FB68102283F8DF
:1048D0003E20FB6800221A64FB687A685A62FB6813
:1048E0003A895A85FB68684ADA62FB685B8D9AB23E
:1048F000FB681A8579897B6A3A6BF86800F050FA90
:104900000346002B0FD0FB681B6C042B05D1FB6802
:10491000002283F83C200123BAE1FB68002283F8DF
:104920003C200323B4E1FB681B8D002B13D1002333
:104930003B62FB681B685B693B62FB681B689B69A9
:104940003B623B6AFB681B681A68FB681B6842F4A1
:1049500000721A6088E1FB681B8D012B1BD1FB687C
:104960001B681A68FB681B6822F480621A600023C7
:10497000FB61FB681B685B69FB61FB681B689B69EB
:10498000FB61FB69FB681B681A68FB681B6842F4E3
:1049900000721A6068E1FB681B8D022B1BD1FB685B
:1049A0001B681A68FB681B6822F480621A60FB6847
:1049B0001B681A68FB681B6842F400621A600023D7
:1049C000BB61FB681B685B69BB61FB681B689B691B
:1049D000BB61BB6948E1FB681B681A68FB681B6820
:1049E00042F480621A6000237B61FB681B685B698C
:1049F0007B61FB681B689B697B617B6934E1FB68B9
:104A00001B8D032B00F2EB80FB681B8D012B27D144
:104A10007A6A396BF86800F0C4FB0346002B07D0B4
:104A2000FB681B6C202B01D1032331E101232FE113
:104A3000FB681B681869FB685B6A591CFA6851625D
:104A4000C2B21A70FB681B8D013B9AB2FB681A85D3
:104A5000FB685B8D9BB2013B9AB2FB685A8503E110
:104A6000FB681B8D022B4AD17B6A00933B6B0022B3
:104A70000649F86800F05CFA0346002B08D00323CF
:104A800006E100BF020010000000FFFF040001006B
:104A9000FB681B681A68FB681B6842F400721A60A6
:104AA000FB681B681869FB685B6A591CFA685162ED
:104AB000C2B21A70FB681B8D013B9AB2FB681A8563
:104AC000FB685B8D9BB2013B9AB2FB685A85FB6821
:104AD0001B681869FB685B6A591CFA685162C2B2AC
:104AE0001A70FB681B8D013B9AB2FB681A85FB6844
:104AF0005B8D9BB2013B9AB2FB685A85B4E07B6A3E
:104B000000933B6B00226449F86800F011FA0346F9
:104B1000002B01D00323BBE0FB681B681A68FB680D
:104B20001B6822F480621A60FB681B681869FB68C6
:104B30005B6A591CFA685162C2B21A70FB681B8D1D
:104B4000013B9AB2FB681A85FB685B8D9BB2013B07
:104B50009AB2FB685A857B6A00933B6B00224E49F0
:104B6000F86800F0E5F90346002B01D003238FE03D
:104B7000FB681B681A68FB681B6842F400721A60C5
:104B8000FB681B681869FB685B6A591CFA6851620C
:104B9000C2B21A70FB681B8D013B9AB2FB681A8582
:104BA000FB685B8D9BB2013B9AB2FB685A85FB6840
:104BB0001B681869FB685B6A591CFA685162C2B2CB
:104BC0001A70FB681B8D013B9AB2FB681A85FB6863
:104BD0005B8D9BB2013B9AB2FB685A8544E07A6ACE
:104BE000396BF86800F0DDFA0346002B07D0FB684C
:104BF0001B6C202B01D103234AE0012348E0FB6812
:104C00001B681869FB685B6A591CFA685162C2B27A
:104C10001A70FB681B8D013B9AB2FB681A85FB6812
:104C20005B8D9BB2013B9AB2FB685A85FB681B689F
:104C30005B6903F00403042B16D1FB681B68186939
:104C4000FB685B6A591CFA685162C2B21A70FB6851
:104C50001B8D013B9AB2FB681A85FB685B8D9BB28A
:104C6000013B9AB2FB685A85FB681B8D002B7FF4D1
:104C7000C6AEFB68202283F83D20FB68002283F843
:104C80003E20FB68002283F83C20002300E0022342
:104C900018462837BD4680BD0400010080B588B0A5
:104CA00002AFF8607A603B600B467B81FB68DB6A91
:104CB0007B617B69042B06D07B69012B03D07B6968
:104CC00013F5803F08D1FB681B681A68FB681B68F6
:104CD00042F480721A600BE0FB681B6B122B07D149
:104CE000FB681B681A68FB681B6842F480721A60D4
:104CF0003B6800937B6800224FF00111F86800F0D8
:104D000017F90346002B01D0032341E0FB681B6920
:104D1000B3F5804F08D17B89DBB21A46FB681B686C
:104D200002F0FE021A6121E07B89DB11DBB203F0A5
:104D30000603DBB263F00F03DAB2FB681B681A618B
:104D40003B687A681449F86800F043F90346002B81
:104D500007D0FB681B6C042B01D1012318E003234F
:104D600016E07B89DAB2FB681B681A613B687A68D7
:104D70000A49F86800F02DF90346002B07D0FB68BC
:104D80001B6C042B01D1012302E0032300E000236C
:104D900018461837BD4680BD08000100020001001A
:104DA00080B588B002AFF8607A603B600B467B81CB
:104DB000FB68DB6A7B61FB681B681A68FB681B6821
:104DC00042F480621A607B69042B06D07B69012B58
:104DD00003D07B6913F5803F08D1FB681B681A6814
:104DE000FB681B6842F480721A600BE0FB681B6B67
:104DF000112B07D1FB681B681A68FB681B6842F41B
:104E000080721A603B6800937B6800224FF00111AA
:104E1000F86800F08DF80346002B01D003237FE0F3
:104E2000FB681B69B3F5804F08D17B89DBB243F087
:104E30000103DAB2FB681B681A615FE07B89DB1152
:104E4000DBB203F00603DBB263F00F03DAB2FB68F8
:104E50001B681A613B687A683349F86800F0B9F852
:104E60000346002B07D0FB681B6C042B01D10123E8
:104E700056E0032354E07B89DAB2FB681B681A61B1
:104E80003B687A682949F86800F0A3F80346002BCC
:104E900007D0FB681B6C042B01D1012340E00323E6
:104EA0003EE000233B61FB681B685B693B61FB687C
:104EB0001B689B693B613B69FB681B681A68FB6860
:104EC0001B6842F480721A603B6800937B68002282
:104ED0004FF00111F86800F02BF80346002B01D0C9
:104EE00003231DE07B89DB11DBB203F00603DBB299
:104EF00063F00E03DAB2FB681B681A613B687A68DC
:104F00000A49F86800F065F80346002B07D0FB68F3
:104F10001B6C042B01D1012302E0032300E00023DA
:104F200018461837BD4680BD080001000200010088
:104F300080B584B000AFF860B9603B601346FB7188
:104F40001FE03B68B3F1FF3F1BD03B68002B07D04D
:104F5000FEF7B8FD0246BB69D31A3A689A4210D2EE
:104F6000FB6800221A63FB68202283F83D20FB685F
:104F7000002283F83E20FB68002283F83C200323B4
:104F800023E0BB681B0CDBB2012B0DD1FB681B6857
:104F90005B69DA43BB6813409BB2002B0CBF012353
:104FA0000023DBB21A460CE0FB681B689B69DA43FE
:104FB000BB6813409BB2002B0CBF01230023DBB264
:104FC0001A46FB799A42BCD0002318461037BD46DA
:104FD00080BD80B584B000AFF860B9607A603B6096
:104FE00040E0FB681B685B6903F48063B3F5806F86
:104FF0001CD1FB681B681A68FB681B6842F40072CE
:105000001A60FB681B686FF480625A61FB680422B7
:105010001A64FB6800221A63FB68202283F83D2093
:10502000FB68002283F83C2001233CE07B68B3F15D
:10503000FF3F17D07B68002B07D0FEF743FD0246E9
:105040003B68D31A7A689A420CD2FB6800221A6332
:10505000FB68202283F83D20FB68002283F83C2077
:10506000032320E0BB681B0CDBB2012B0CD1FB68D7
:105070001B685B69DA43BB6813409BB2002B14BF0B
:1050800001230023DBB20BE0FB681B689B69DA435A
:10509000BB6813409BB2002B14BF01230023DBB27B
:1050A000002B9ED1002318461037BD4680BD80B529
:1050B00084B000AFF860B9607A6029E0F86800F069
:1050C000BAF80346002B01D0012329E0BB68B3F1F5
:1050D000FF3F1DD0BB68002B07D0FEF7F3FC024654
:1050E0007B68D31ABA689A4212D2FB681B6C43F0F1
:1050F0002002FB681A64FB6800221A63FB68202206
:1051000083F83D20FB68002283F83C20032307E05E
:10511000FB681B685B6903F08003802BCED1002302
:1051200018461037BD4680BD80B584B000AFF8602A
:10513000B9607A6029E0F86800F07DF80346002B3A
:1051400001D0012329E0BB68B3F1FF3F1DD0BB684C
:10515000002B07D0FEF7B6FC02467B68D31ABA686C
:105160009A4212D2FB681B6C43F02002FB681A645F
:10517000FB6800221A63FB68202283F83D20FB684D
:10518000002283F83C20032307E0FB681B685B696F
:1051900003F00403042BCED1002318461037BD467C
:1051A00080BD80B584B000AFF860B9607A6036E049
:1051B000FB681B685B6903F01003102B14D1FB68BC
:1051C0001B686FF010025A61FB6800221A64FB68CA
:1051D00000221A63FB68202283F83D20FB6800222E
:1051E00083F83C20012322E0BB68002B07D0FEF7A8
:1051F00069FC02467B68D31ABA689A420FD2FB68F0
:105200001B6C43F02002FB681A64FB68202283F8C1
:105210003D20FB68002283F83C20032307E0FB6865
:105220001B685B6903F04003402BC1D10023184683
:105230001037BD4680BD80B483B000AF78607B6816
:105240001B685B6903F48063B3F5806F14D17B68DE
:105250001B686FF480625A617B6804221A647B6861
:1052600000221A637B68202283F83D207B6800229D
:1052700083F83C20012300E0002318460C37BD468C
:105280005DF8047B7047000080B58EB000AF786099
:1052900000237B637B681B6803F00103002B75D040
:1052A000924B9B6803F00C03042B0CD08F4B9B6834
:1052B00003F00C03082B12D18C4B5B6803F48003C2
:1052C000B3F5800F0BD1894B1B6803F40033002B1F
:1052D0005BD07B685B68002B57D1012322E27B689F
:1052E0005B68B3F5803F06D1804B1B687F4A43F46F
:1052F000803313601DE07B685B68B3F5A02F0CD191
:105300007A4B1B68794A43F480231360774B1B6800
:10531000764A43F4803313600BE0744B1B68734A86
:1053200023F480331360714B1B68704A23F480238D
:1053300013607B685B68002B13D0FEF7C3FB7863B8
:1053400008E0FEF7BFFB02467B6BD31A642B01D942
:105350000323E7E1654B1B6803F40033002BF0D017
:1053600014E0FEF7AFFB786308E0FEF7ABFB024604
:105370007B6BD31A642B01D90323D3E15B4B1B68EE
:1053800003F40033002BF0D100E000BF7B681B6802
:1053900003F00203002B77D0544B9B6803F00C03FF
:1053A000002B0BD0514B9B6803F00C03082B26D12C
:1053B0004E4B5B6803F48003002B20D14B4B1B68E2
:1053C00003F00203002B05D07B68DB68012B01D0C2
:1053D0000123A7E1454B1B6823F0F8027B6819699C
:1053E000F8233B633B6B93FAA3F3FB62FB6AB3FACC
:1053F00083F301FA03F33D4913430B6044E07B68F8
:10540000DB68002B2AD03A4B01221A60FEF75AFBC8
:10541000786308E0FEF756FB02467B6BD31A022B3B
:1054200001D903237EE1314B1B6803F00203002BFB
:10543000F0D02E4B1B6823F0F8027B681969F82323
:10544000BB62BB6A93FAA3F37B627B6AB3FA83F312
:1054500001FA03F3254913430B6015E0244B0022A6
:105460001A60FEF72FFB786308E0FEF72BFB02467D
:105470007B6BD31A022B01D9032353E11B4B1B680F
:1054800003F00203002BF0D17B681B6803F00803D4
:10549000002B37D07B685B69002B16D0154B01229F
:1054A0001A60FEF70FFB786308E0FEF70BFB02467D
:1054B0007B6BD31A022B01D9032333E10B4B5B6FB8
:1054C00003F00203002BF0D01CE00A4B00221A600C
:1054D000FEF7F8FA78630FE0FEF7F4FA02467B6B0A
:1054E000D31A022B08D903231CE100BF0038024065
:1054F00000004742800E47428C4B5B6F03F0020373
:10550000002BE9D17B681B6803F00403002B7DD0DE
:105510000023BB60854B1B6C844A43F080531364AB
:10552000824B1B6C03F08053BB60BB68804B1B68D5
:105530007F4A43F480731360FEF7C4FA786308E08F
:10554000FEF7C0FA02467B6BD31A022B01D9032364
:10555000E8E0774B1B6803F48073002BF0D07B6886
:105560009B68012B06D1714B1B6F704A43F00103FE
:1055700013671CE07B689B68052B0CD16B4B1B6F82
:105580006A4A43F004031367684B1B6F674A43F092
:10559000010313670BE0654B1B6F644A23F00103A3
:1055A0001367624B1B6F614A23F0040313677B6828
:1055B0009B68002B15D0FEF785FA78630AE0FEF7AA
:1055C00081FA02467B6BD31A41F28832934201D9A9
:1055D0000323A7E0554B1B6F03F00203002BEED013
:1055E00014E0FEF76FFA78630AE0FEF76BFA024602
:1055F0007B6BD31A41F28832934201D9032391E0A5
:105600004A4B1B6F03F00203002BEED17B689B69B2
:10561000002B00F08680454B9B6803F00C03082BA1
:105620007DD07B689B69022B62D1424B00221A60BD
:10563000FEF748FA786308E0FEF744FA02467B6B0F
:10564000D31A022B01D903236CE0384B1B6803F0FB
:105650000073002BF0D17B68DA697B681B6A1A4300
:105660007B68596A47F6C0733B613B6993FAA3F3C1
:10567000FB60FB68B3FA83F301FA03F31A437B6818
:105680009B6A5B08591E4FF44033BB61BB6993FAB8
:10569000A3F37B617B69B3FA83F301FA03F31A4343
:1056A0007B68D96A4FF070633B623B6A93FAA3F35D
:1056B000FB61FB69B3FA83F301FA03F31B4913435C
:1056C0004B601C4B01221A60FEF7FCF9786308E07E
:1056D000FEF7F8F902467B6BD31A022B01D903239C
:1056E00020E0124B1B6803F00073002BF0D018E091
:1056F000104B00221A60FEF7E5F9786308E0FEF728
:10570000E1F902467B6BD31A022B01D9032309E08E
:10571000064B1B6803F00073002BF0D101E001235E
:1057200000E0002318463837BD4680BD00380240EF
:10573000007000406000474280B586B000AF7860DE
:10574000396000237B61814B1B6803F00F033A68CB
:105750009A420CD97D4B3A68D2B21A707B4B1B68C7
:1057600003F00F033A689A4201D00123EAE07B6814
:105770001B6803F00203002B08D0754B9B6823F0D5
:10578000F0027B689B68724913438B607B681B68DF
:1057900003F00103002B00F086807B685B68012B1F
:1057A00007D16B4B1B6803F40033002B19D1012385
:1057B000C8E07B685B68022B03D07B685B68032BC7
:1057C00007D1634B1B6803F00073002B09D1012341
:1057D000B8E05F4B1B6803F00203002B01D10123EB
:1057E000B0E05B4B9B6823F003027B685B68584921
:1057F00013438B60FEF766F978617B685B68012B69
:1058000012D10AE0FEF75EF902467B69D31A41F233
:105810008832934201D9032394E04D4B9B6803F0F7
:105820000C03042BEED13EE07B685B68022B12D1A7
:105830000AE0FEF747F902467B69D31A41F2883243
:10584000934201D903237DE0414B9B6803F00C0395
:10585000082BEED127E07B685B68032B1DD10AE0A3
:10586000FEF730F902467B69D31A41F2883293423F
:1058700001D9032366E0364B9B6803F00C030C2B25
:10588000EED110E0FEF71EF902467B69D31A41F211
:105890008832934201D9032354E02D4B9B6803F0D7
:1058A0000C03002BEED1294B1B6803F00F033A6861
:1058B0009A420CD2254B3A68D2B21A70234B1B681D
:1058C00003F00F033A689A4201D001233AE07B6863
:1058D0001B6803F00403002B08D01D4B9B6823F4C6
:1058E000E0527B68DB681A4913438B607B681B6856
:1058F00003F00803002B09D0154B9B6823F460428A
:105900007B681B69DB00124913438B6000F026F8AB
:1059100001460F4B9B6803F0F002F0233B613B69AB
:1059200093FAA3F3FB60FB68B3FA83F322FA03F361
:10593000084AD35C21FA03F3074A13600F2004F0EE
:105940003FFC002318461837BD4680BD003C02408E
:1059500000380240200401081400002080B48BB0FD
:1059600000AF0023FB6100237B620023BB610023A7
:105970003B62384B9B6803F00C03082B0CD0082BC0
:105980005DD8002B02D0042B03D058E0324B3B6291
:1059900058E0314B3B6255E02E4B5B6803F03F0310
:1059A000FB612C4B5B6803F48003002B17D02A4A61
:1059B000FB69B2FBF3F2274B596847F6C0730B4003
:1059C00047F6C0717961796991FAA1F13961396954
:1059D000B1FA81F1CB4002FB03F37B6216E01E4A71
:1059E000FB69B2FBF3F21B4B596847F6C0730B40DF
:1059F00047F6C071F960F96891FAA1F1B960B96828
:105A0000B1FA81F1CB4002FB03F37B62114B5B687F
:105A100003F440324FF440337B607B6893FAA3F386
:105A20003B603B68B3FA83F322FA03F301335B0074
:105A3000BB617A6ABB69B2FBF3F33B6202E0064BDF
:105A40003B6200BF3B6A18462C37BD465DF8047BBD
:105A5000704700BF003802400024F40080B400AF5B
:105A6000034B1B681846BD465DF8047B704700BFBA
:105A70001400002080B582B000AFFFF7EFFF0146B1
:105A80000B4B9B6803F4E0524FF4E0537B607B6860
:105A900093FAA3F33B603B68B3FA83F322FA03F370
:105AA000044AD35C21FA03F318460837BD4680BD8B
:105AB000003802403004010880B582B000AFFFF723
:105AC000CDFF01460B4B9B6803F460424FF46043EB
:105AD0007B607B6893FAA3F33B603B68B3FA83F384
