:020000040800F2
:10000000000003203DDD00082DAF00083DAF0008D3
:1000100059AF00085FAF000865AF0008000000009E
:10002000000000000000000000000000F1D5000802
:100030006BAF00080000000011D8000879AF00087D
:100040008DDD00088DDD00088DDD00088DDD0008E8
:100050008DDD00088DDD00088DDD00088DDD0008D8
:100060008DDD00088DDD00088DDD00088DDD0008C8
:100070008DDD00088DDD00088DDD00088DDD0008B8
:100080008DDD00088DDD00088DDD00088DDD0008A8
:100090008DDD00088DDD00088DDD00088DDD000898
:1000A0008DDD0008D5AF00088DDD00088DDD00086E
:1000B0008DDD00088DDD00088DDD00088DDD000878
:1000C0008DDD00088DDD00088DDD00088DDD000868
:1000D0008DDD000899AF00088DDD00088DDD00087A
:1000E0008DDD00088DDD00088DDD00088DDD000848
:1000F0008DDD00088DDD00088DDD00088DDD000838
:100100008DDD000885AF00088DDD00088DDD00085D
:10011000ADAF00088DDD00088DDD00088DDD000825
:100120008DDD00088DDD00088DDD0008E9AF0008D9
:100130008DDD00088DDD00088DDD00088DDD0008F7
:100140008DDD00088DDD00088DDD00088DDD0008E7
:100150008DDD0008FDAF00088DDD0008C1AF00088F
:100160008DDD00088DDD00088DDD00088DDD0008C7
:100170008DDD00088DDD00088DDD00080000000029
:100180008DDD00088DDD00088DDD00088DDD0008A7
:100190008DDD00088DDD00088DDD00088DDD000897
:0C01A00000000000000000008DDD0008E1
:1001B00010B5054C237833B9044B13B10448AFF3A1
:1001C00000800123237010BDEC010020000000001E
:1001D000D00C010808B5034B1BB103490348AFF32A
:1001E000008008BD00000000F0010020D00C0108D4
:1001F000034613F8012B002AFBD1181A0138704767
:1002000001F0FF01102A2BDB10F0070F08D010F8C7
:10021000013B013A8B422DD010F0070F42B3F6D1CB
:10022000F0B441EA012141EA014122F007047FF0E4
:1002300000070023F0E80256083C85EA010586EA3B
:10024000010685FA47F5A3FA87F586FA47F6A5FA77
:1002500087F68EB9EED1F0BC01F0FF0102F0070283
:1002600032B110F8013B013A83EA010313B1F8D12E
:100270000020704701387047002D06BF354603380F
:10028000073815F0010F07D1013015F4807F02BF48
:10029000013015F4C03F0130F0BC0138704700BF99
:1002A00081F0004102E000BF83F0004330B54FEA27
:1002B00041044FEA430594EA050F08BF90EA020F94
:1002C0001FBF54EA000C55EA020C7FEA645C7FEA27
:1002D000655C00F0E2804FEA5454D4EB5555B8BF4A
:1002E0006D420CDD2C4480EA020281EA030382EABB
:1002F000000083EA010180EA020281EA0303362D4D
:1003000088BF30BD11F0004F4FEA01314FF4801C1F
:100310004CEA113102D0404261EB410113F0004F31
:100320004FEA03334CEA133302D0524263EB4303E8
:1003300094EA050F00F0A780A4F10104D5F1200E86
:100340000DDB02FA0EFC22FA05F2801841F10001E1
:1003500003FA0EF2801843FA05F359410EE0A5F1B5
:1003600020050EF1200E012A03FA0EFC28BF4CF0E6
:10037000020C43FA05F3C01851EBE37101F000459C
:1003800007D54FF0000EDCF1000C7EEB00006EEBA9
:100390000101B1F5801F1BD3B1F5001F0CD3490833
:1003A0005FEA30004FEA3C0C04F101044FEA44528A
:1003B00012F5800F80F09A80BCF1004F08BF5FEA11
:1003C000500C50F1000041EB045141EA050130BDF1
:1003D0005FEA4C0C404141EB0101013C28BFB1F503
:1003E000801FE9D291F0000F04BF01460020B1FA4E
:1003F00081F308BF2033A3F10B03B3F120020CDA21
:100400000C3208DD02F1140CC2F10C0201FA0CF0FE
:1004100021FA02F10CE002F11402D8BFC2F1200C63
:1004200001FA02F120FA0CFCDCBF41EA0C01904019
:10043000E41AA2BF01EB0451294330BD6FEA040462
:100440001F3C1CDA0C340EDC04F11404C4F120024D
:1004500020FA04F001FA02F340EA030021FA04F35F
:1004600045EA030130BDC4F10C04C4F1200220FAB6
:1004700002F001FA04F340EA0300294630BD21FAF4
:1004800004F0294630BD94F0000F83F4801306BFBA
:1004900081F480110134013D4EE77FEA645C18BFAE
:1004A0007FEA655C29D094EA050F08BF90EA020F45
:1004B00005D054EA000C04BF1946104630BD91EA3D
:1004C000030F1EBF0021002030BD5FEA545C05D140
:1004D0004000494128BF41F0004130BD14F580047F
:1004E0003CBF01F5801130BD01F0004545F0FE41F3
:1004F00041F470014FF0000030BD7FEA645C1ABF28
:10050000194610467FEA655C1CBF0B46024650EA5E
:10051000013406BF52EA033591EA030F41F400218A
:1005200030BD00BF90F0000F04BF0021704730B510
:100530004FF4806404F132044FF000054FF00001E5
:1005400050E700BF90F0000F04BF0021704730B5A6
:100550004FF4806404F1320410F0004548BF40427B
:100560004FF000013EE700BF42004FEAE2014FEAD0
:1005700031014FEA02701FBF12F07F4393F07F4FAB
:1005800081F06051704732F07F4208BF704793F0AE
:100590007F4F04BF41F40021704730B54FF46074C1
:1005A00001F0004521F000411CE700BF50EA0102C4
:1005B00008BF704730B54FF000050AE050EA01026D
:1005C00008BF704730B511F0004502D5404261EBDD
:1005D00041014FF4806404F132045FEA915C3FF41E
:1005E000D8AE4FF003025FEADC0C18BF03325FEABB
:1005F000DC0C18BF033202EBDC02C2F1200300FA6C
:1006000003FC20FA02F001FA03FE40EA0E0021FA90
:1006100002F11444BDE600BF70B54FF0FF0C4CF47E
:10062000E06C1CEA11541DBF1CEA135594EA0C0F30
:1006300095EA0C0F00F0DEF82C4481EA030621EA6B
:100640004C5123EA4C5350EA013518BF52EA0335A6
:1006500041F4801143F4801338D0A0FB02CE4FF058
:100660000005E1FB02E506F00042E0FB03E54FF088
:100670000006E1FB03569CF0000F18BF4EF0010E80
:10068000A4F1FF04B6F5007F64F5407404D25FEA7C
:100690004E0E6D4146EB060642EAC62141EA55512F
:1006A0004FEAC52040EA5E504FEACE2EB4F1FD0C71
:1006B00088BFBCF5E06F1ED8BEF1004F08BF5FEAEF
:1006C000500E50F1000041EB045170BD06F00046A1
:1006D00046EA010140EA020081EA0301B4EB5C044E
:1006E000C2BFD4EB0C0541EA045170BD41F4801146
:1006F0004FF0000E013C00F3AB8014F1360FDEBF6B
:10070000002001F0004170BDC4F10004203C35DA46
:100710000C341BDC04F11404C4F1200500FA05F3C9
:1007200020FA04F001FA05F240EA020001F000426A
:1007300021F0004110EBD37021FA04F642EB0601E0
:100740005EEA430E08BF20EAD37070BDC4F10C040A
:10075000C4F1200500FA04F320FA05F001FA04F2CE
:1007600040EA020001F0004110EBD37041F10001BA
:100770005EEA430E08BF20EAD37070BDC4F12005C5
:1007800000FA05F24EEA020E20FA04F301FA05F22D
:1007900043EA020321FA04F001F0004121FA04F2D5
:1007A00020EA020000EBD3705EEA430E08BF20EAA5
:1007B000D37070BD94F0000F0FD101F000464000DF
:1007C00041EB010111F4801F08BF013CF7D041EA61
:1007D000060195F0000F18BF704703F00046520065
:1007E00043EB030313F4801F08BF013DF7D043EA36
:1007F0000603704794EA0C0F0CEA135518BF95EAEC
:100800000C0F0CD050EA410618BF52EA4306D1D172
:1008100081EA030101F000414FF0000070BD50EA91
:10082000410606BF1046194652EA430619D094EA1B
:100830000C0F02D150EA013613D195EA0C0F05D105
:1008400052EA03361CBF104619460AD181EA030159
:1008500001F0004141F0FE4141F470014FF0000011
:1008600070BD41F0FE4141F4780170BD70B54FF0AC
:10087000FF0C4CF4E06C1CEA11541DBF1CEA13552C
:1008800094EA0C0F95EA0C0F00F0A7F8A4EB05040E
:1008900081EA030E52EA03354FEA013100F0888005
:1008A0004FEA03334FF0805545EA131343EA1263CE
:1008B0004FEA022245EA111545EA10654FEA002683
:1008C0000EF000419D4208BF964244F1FD0404F53C
:1008D000407402D25B084FEA3202B61A65EB030598
:1008E0005B084FEA32024FF480104FF4002CB6EB55
:1008F000020E75EB030E22BFB61A754640EA0C00D5
:100900005B084FEA3202B6EB020E75EB030E22BF14
:10091000B61A754640EA5C005B084FEA3202B6EB55
:10092000020E75EB030E22BFB61A754640EA9C0014
:100930005B084FEA3202B6EB020E75EB030E22BFE4
:10094000B61A754640EADC0055EA060E18D04FEAA2
:10095000051545EA16754FEA06164FEAC30343EA42
:1009600052734FEAC2025FEA1C1CC0D111F4801F0F
:100970000BD141EA00014FF000004FF0004CB6E708
:1009800011F4801F04BF01430020B4F1FD0C88BFA7
:10099000BCF5E06F3FF6AFAEB5EB030C04BFB6EBB2
:1009A000020C5FEA500C50F1000041EB045170BDA5
:1009B0000EF0004E4EEA113114EB5C04C2BFD4EBD2
:1009C0000C0541EA045170BD41F480114FF0000E56
:1009D000013C90E645EA060E8DE60CEA135594EAD2
:1009E0000C0F08BF95EA0C0F3FF43BAF94EA0C0FD5
:1009F0000AD150EA01347FF434AF95EA0C0F7FF44A
:100A000025AF104619462CE795EA0C0F06D152EA9D
:100A100003353FF4FDAE1046194622E750EA410681
:100A200018BF52EA43067FF4C5AE50EA41047FF492
:100A30000DAF52EA43057FF4EBAE12E74FF0FF3CF7
:100A400006E000BF4FF0010C02E000BF4FF0010CC8
:100A50004DF804CD4FEA410C7FEA6C5C4FEA430C41
:100A600018BF7FEA6C5C1BD001B050EA410C0CBF90
:100A700052EA430C91EA030F02BF90EA020F0020F2
:100A8000704710F1000F91EA030F58BF994208BF59
:100A900090422CBFD8176FEAE37040F00100704716
:100AA0004FEA410C7FEA6C5C02D150EA013C07D16D
:100AB0004FEA430C7FEA6C5CD6D152EA033CD3D0B8
:100AC0005DF8040B704700BF8446104662468C46B2
:100AD0001946634600E000BF01B5FFF7B7FF0028E5
:100AE00048BF10F1000F01BD4DF808EDFFF7F4FF0E
:100AF0000CBF012000205DF808FB00BF4DF808ED99
:100B0000FFF7EAFF34BF012000205DF808FB00BFBB
:100B10004DF808EDFFF7E0FF94BF012000205DF8DD
:100B200008FB00BF4DF808EDFFF7CEFF94BF012092
:100B300000205DF808FB00BF4DF808EDFFF7C4FF8B
:100B400034BF012000205DF808FB00BF4FEA410CD4
:100B50007FEA6C5C02D150EA013C0AD14FEA430CB7
:100B60007FEA6C5C02D152EA033C02D14FF00000F4
:100B700070474FF0010070474FEA410212F5001232
:100B800015D211D56FF47873B3EB625212D94FEAD4
:100B9000C12343F0004343EA505311F0004F23FABE
:100BA00002F018BF404270474FF00000704750EA13
:100BB000013005D111F0004008BF6FF000407047D0
:100BC0004FF00000704700BF4FEA4102B2F1E0432E
:100BD00024BFB3F5001CDCF1FE5C0DD901F0004C24
:100BE0004FEAC0024CEA5070B2F1004F40EB830074
:100BF00008BF20F00100704711F0804F21D113F1A0
:100C00003872BCBF01F00040704741F480114FEAD8
:100C10005252C2F11802C2F1200C10FA0CF320FA61
:100C200002F018BF40F001004FEAC1234FEAD3237E
:100C300003FA0CFC40EA0C0023FA02F34FEA4303E8
:100C4000CCE77FEA625307D150EA01331EBF4FF071
:100C5000FE4040F44000704701F0004040F0FE408C
:100C600040F40000704700BF80B584B000AF034679
:100C7000FB710A233B73FB797B7307F10C030221A1
:100C8000184600F0BFFB0346FB73FB7B184610378A
:100C9000BD4680BD90B585B000AF044608461146FC
:100CA0001A462346FB710346BB710B467B71134604
:100CB0003B710B233B7297F9073003F003035AB2E1
:100CC000BB799B005BB203F00C035BB213435AB2D7
:100CD0007B791B015BB203F030035BB213435AB262
:100CE0003B799B015BB213435BB2DBB27B7297F93A
:100CF000203003F003035AB297F824309B005BB214
:100D000003F00C035BB213435AB297F828301B016F
:100D10005BB203F030035BB213435AB297F82C3046
:100D20009B015BB213435BB2DBB2BB7297F830300E
:100D300003F00303DBB2FB7207F10803042118463A
:100D400000F060FB0346FB73FB7B18461437BD467F
:100D500090BD80B584B000AF0346FB710B46BB71FC
:100D60001346BB800D233B72FB797B72BB7903F08A
:100D70000103DBB2BB72BB88DBB2FB72BB881B0A10
:100D80009BB2DBB23B7307F108030521184600F064
:100D900039FB0346FB73FB7B18461037BD4680BD0D
:100DA00080B584B000AF0346FB710E233B73FB7923
:100DB0007B7307F10C030221184600F023FB034666
:100DC000FB73FB7B18461037BD4680BD80B584B0F1
:100DD00000AF0346FB8011233B7200237B7200238C
:100DE000BB72FB88A7F80B3000237B730023BB7317
:100DF00007F108030721184600F004FB0346FB73C4
:100E0000FB7B18461037BD4680BD000080B588B01A
:100E100000AF87ED030AC7ED020A87ED011A03460A
:100E2000FB70D7ED037A9FED247A67EE877AC7EDE2
:100E3000037AD7ED027A9FED207A67EE877AC7EDC5
:100E4000027AD7ED017A9FED1C7A67EE877AC7EDBB
:100E5000017AD7ED037AFDEEE77A17EE903A1BB2EE
:100E6000BB83D7ED027AFDEEE77A17EE903A1BB21C
:100E70007B83D7ED017AFDEEE77A17EE903A1BB24D
:100E80003B8324233B74BB8BA7F811307B8BA7F8E3
:100E900013303B8BA7F81530FB78FB7507F1100377
:100EA0000821184600F0AEFA0346FB77FB7F184690
:100EB0002037BD4680BD00BF0000C84200000000D2
:100EC00080B588B000AFF860B9607A6007F11803A8
:100ED00006221946932000F0A9F90346FB773B8BC5
:100EE000FB82B7F9163007EE903AF8EEE77A17EE84
:100EF000900AFFF739FB24A3D3E90023FFF78CFB0B
:100F000002460B4610461946FFF75EFE0246FB6896
:100F10001A607B8BBB82B7F9143007EE903AF8EE7B
:100F2000E77A17EE900AFFF71FFB17A3D3E9002318
:100F3000FFF772FB02460B4610461946FFF744FEC8
:100F40000246BB681A60BB8B7B82B7F9123007EE92
:100F5000903AF8EEE77A17EE900AFFF705FB0AA33E
:100F6000D3E90023FFF758FB02460B46104619460B
:100F7000FFF72AFE02467B681A60FB7F184620377F
:100F8000BD4680BDAFF300807B14AE47E17A843F5D
:100F900080B588B000AFF860B9607A6007F11803D7
:100FA00006221946932000F041F90346FB773B8B5C
:100FB000FB82B7F9163007EE903AF8EEE77A17EEB3
:100FC000900AFFF7D1FA24A3D3E90023FFF724FB0B
:100FD00002460B4610461946FFF7F6FD0246FB682F
:100FE0001A607B8BBB82B7F9143007EE903AF8EEAB
:100FF000E77A17EE900AFFF7B7FA17A3D3E90023B1
:10100000FFF70AFB02460B4610461946FFF7DCFDC8
:101010000246BB681A60BB8B7B82B7F9123007EEC1
:10102000903AF8EEE77A17EE900AFFF79DFA0AA3D6
:10103000D3E90023FFF7F0FA02460B4610461946A3
:10104000FFF7C2FD02467B681A60FB7F1846203717
:10105000BD4680BDAFF300807B14AE47E17A843F8C
:1010600080B588B000AFF860B9607A6007F1180306
:1010700006221946972000F0D9F80346FB773B8BF0
:10108000FB82B7F9163007EE903AF8EEE77A17EEE2
:10109000900AFFF769FA24A3D3E90023FFF7BCFA0B
:1010A00002460B4610461946FFF78EFD0246FB68C6
:1010B0001A607B8BBB82B7F9143007EE903AF8EEDA
:1010C000E77A17EE900AFFF74FFA17A3D3E9002348
:1010D000FFF7A2FA02460B4610461946FFF774FDC9
:1010E0000246BB681A60BB8B7B82B7F9123007EEF1
:1010F000903AF8EEE77A17EE900AFFF735FA0AA36E
:10110000D3E90023FFF788FA02460B46104619463A
:10111000FFF75AFD02467B681A60FB7F18462037AE
:10112000BD4680BDAFF300807B14AE47E17A843FBB
:1011300080B588B000AFF860B9607A6007F1180335
:10114000062219469B2000F071F80346FB773B8B83
:10115000FB82B7F9163007EE903AF8EEE77A17EE11
:10116000900AFFF701FA24A3D3E90023FFF754FA0A
:1011700002460B4610461946FFF726FD0246FB685D
:101180001A607B8BBB82B7F9143007EE903AF8EE09
:10119000E77A17EE900AFFF7E7F917A3D3E90023E0
:1011A000FFF73AFA02460B4610461946FFF70CFDC8
:1011B0000246BB681A60BB8B7B82B7F9123007EE20
:1011C000903AF8EEE77A17EE900AFFF7CDF90AA306
:1011D000D3E90023FFF720FA02460B4610461946D2
:1011E000FFF7F2FC02467B681A60FB7F1846203747
:1011F000BD4680BDAFF300807B14AE47E17A843FEB
:1012000080B584B000AF786007F108030622194664
:101210009C2000F00BF80346FB737A897B681A80E8
:10122000FB7B18461037BD4680BD00002DE9F0431A
:1012300089B000AF03463960FB711346BB716B4642
:101240001E460123FB771F233B737F237B73FB79B0
:10125000BB731F23FB73FF233B74684B1B6840F673
:10126000C411184609F0EEFF07F10C014FF47A7330
:101270000522634807F05DFB0346FB77FB7F002BED
:1012800006D05E4B1B6818460AF02CF8FB7FAEE0D8
:10129000BB79591D4B1EBB610A46002390469946F7
:1012A0004FF000024FF000034FEAC90343EA5873BE
:1012B0004FEAC8020A46002314461D464FF00002BA
:1012C0004FF00003EB0043EA5473E2000B46073390
:1012D000DB08DB00ADEB030D6B4600337B614FF4A5
:1012E0007A7303227969464807F0BCFB0346FB7713
:1012F000FB7F002B35D0FB7F79E07B699B781F2B30
:101300000DD17B691F221A707B69591C4FF47A73C7
:1013100002223B4807F0A6FB0346FB7721E07B69EE
:101320005B781F2B14D17B699B787F2B10D17B6955
:101330001F221A707B697F225A707B69991C4FF4B7
:101340007A7301222E4807F08DFB0346FB7708E0F5
:101350004FF47A7303227969294807F083FB034627
:10136000FB777B691B781F2BC7D17B695B787F2B51
:10137000C3D17B699B781F2BBFD07B69D91CBB79FC
:101380009BB202339AB24FF47A731D4807F06AFB9E
:101390000346FB777B690333BA79194638680CF04A
:1013A00031FD164B1B68184609F09CFFFB7F002B94
:1013B00001D0FB7F1BE07B691B781F2B14D17B695D
:1013C0005B787F2B10D17B699B78FA799A420BD19D
:1013D000BB7903337A69D35C1F2B05D1BB79043306
:1013E0007A69D35CFF2B01D0012300E0FB7FB54677
:1013F00018462437BD46BDE8F08300BF3002002008
:10140000800600202DE9F0438BB000AF78600B46DA
:10141000FB706B461E460123FB77FB78191D4B1EA4
:10142000BB610A460023904699464FF000024FF0F8
:1014300000034FEAC90343EA58734FEAC8020A4659
:10144000002314461D464FF000024FF00003EB004E
:1014500043EA5473E2000B460733DB08DB00ADEBD5
:10146000030D6B4600337B617B691F221A707B6919
:101470007F225A7000233B620AE03B6A7A681A4472
:101480003B6A023311787A69D1543B6A01333B627B
:10149000FB783A6A9A42F0DBFB7802337A691F21C3
:1014A000D154FB7803337A69FF21D154544802F0B8
:1014B0001DFF00237B620AE07A697B6A13441B7874
:1014C0001946504802F012FF7B6A01337B62FB78B9
:1014D00003337A6A9A42EFDD4B4802F007FF4B4B29
:1014E0001B6840F6C411184609F0ACFEFB789BB2AD
:1014F00004339AB24FF47A737969454807F019FAC0
:101500000346FB77FB7F002B06D0404B1B68184639
:1015100009F0E8FEFB7F6CE007F10C014FF47A73F1
:1015200003223B4807F09EFA0346FB7730E0BB7B83
:101530001F2B0DD11F233B7307F10C0101314FF419
:101540007A730222324807F08DFA0346FB771FE0D8
:101550007B7B1F2B12D1BB7B7F2B0FD11F233B73B8
:101560007F237B7307F10C0102314FF47A73012260
:10157000274807F077FA0346FB7709E007F10C01EB
:101580004FF47A730322224807F06CFA0346FB7784
:101590003B7B1F2BCBD17B7B7F2BC8D1BB7B1F2BF6
:1015A000C5D007F10C0103314FF47A7303221848B8
:1015B00007F058FA0346FB77144B1B68184609F0EE
:1015C00091FEFB7F002B01D0FB7F12E0BA7B7B6892
:1015D0001B789A4205D1FB7B012B02D0FB7B022BAF
:1015E00006D1FB7B19460B4802F080FE012300E088
:1015F000FB7FB54618462C37BD46BDE8F08300BFDB
:10160000E80C0108F80C0108FC0C0108300200206D
:1016100080060020000D010880B590B006AF0120C3
:10162000FFF722FB0023049300230393002302937C
:1016300000230193002300930023002201210120B5
:10164000FFF728FB0220FFF7ABFB002387F82730CA
:1016500042F2107009F0D5FD07F1180207F11C01E4
:1016600007F120031846FFF793FC07F10C0207F17E
:10167000100107F114031846FFF75AFD3A46391DC9
:1016800007F108031846FFF7EBFCD7ED057AFDEEEE
:10169000E77A17EE903A002BB8BF5B42232B16DC9B
:1016A000D7ED047AFDEEE77A17EE903A002BB8BF3B
:1016B0005B42232B0BDCD7ED037AFDEEE77A17EEC6
:1016C000903A002BB8BF5B42232B40F3A280D7EDAA
:1016D000057AFDEEE77A17EE903A002BB8BF5B4231
:1016E0004B2B15DCD7ED047AFDEEE77A17EE903A36
:1016F000002BB8BF5B424B2B0ADCD7ED037AFDEE23
:10170000E77A17EE903A002BB8BF5B424B2B79DD9E
:1017100002209FEDAA1ADFEDA90A9FEDA80AFFF7A4
:1017200075FB42F2107009F06CFD07F10C0207F135
:10173000100107F114031846FFF7FAFCD7ED057AFC
:10174000FDEEE77A17EE903A002BB8BF5B42962B7E
:1017500015DCD7ED047AFDEEE77A17EE903A002B10
:10176000B8BF5B42962B0ADCD7ED037AFDEEE77A31
:1017700017EE903A002BB8BF5B42962B42DD042057
:101780009FED8E1ADFED8D0A9FED8C0AFFF73EFB71
:1017900042F2107009F035FD07F10C0207F110015B
:1017A00007F114031846FFF7C3FCD7ED057AFDEEE9
:1017B000E77A17EE903A002BB8BF5B42B3F5967FFD
:1017C00017DCD7ED047AFDEEE77A17EE903A002B9E
:1017D000B8BF5B42B3F5967F0BDCD7ED037AFDEE25
:1017E000E77A17EE903A002BB8BF5B42B3F5967FCD
:1017F00008DD0C209FED711ADFED700A9FED6F0A76
:10180000FFF704FB0120FFF7CBFA002387F827300E
:1018100046E06B4B1B78002B0FD000230493002372
:1018200003930023029300230193002300930023DA
:10183000002201210020FFF72DFA012387F827302D
:1018400097ED087AD7ED057A77EE677AFDEEE77ABD
:1018500017EE903A002BB8BF5B42012B3FF7F8AE72
:1018600097ED077AD7ED047A77EE677AFDEEE77A9F
:1018700017EE903A002BB8BF5B42012B3FF7E8AE62
:1018800097ED067AD7ED037A77EE677AFDEEE77A81
:1018900017EE903A002BB8BF5B42012B3FF7D8AE52
:1018A00007F10C0207F1100107F114031846FFF7C6
:1018B0003FFCD7ED057AFDEEE77A17EE903A002B64
:1018C000B8BF5B42642B15DCD7ED047AFDEEE77AF6
:1018D00017EE903A002BB8BF5B42642B0ADCD7EDC1
:1018E000037AFDEEE77A17EE903A002BB8BF5B4221
:1018F000642B0ADD4FF4167201210820FFF729FA44
:101900004EF6602009F07DFC2AE0D7ED057AFDEE69
:10191000E77A17EE903A002BB8BF5B421E2B15DC1E
:10192000D7ED047AFDEEE77A17EE903A002BB8BFB8
:101930005B421E2B0ADCD7ED037AFDEEE77A17EE49
:10194000903A002BB8BF5B421E2B09DD4FF4167294
:1019500001210920FFF7FDF94EF6602009F051FC46
:10196000D7ED057AFDEEE77A17EE903A002BB8BF77
:101970005B421E2B94DCD7ED047AFDEEE77A17EE7E
:10198000903A002BB8BF5B421E2B89DCD7ED037A5F
:10199000FDEEE77A17EE903A002BB8BF5B421E2BA4
:1019A0003FF77EAF97F8273083F00103DBB2002BBF
:1019B00062D00220FFF7F4F931E000BF0000000020
:1019C0000802002042F2107009F01BFC07F1180217
:1019D00007F11C0107F120031846FFF7D9FA07F1B8
:1019E0000C0207F1100107F114031846FFF7A0FBE2
:1019F0003A46391D07F108031846FFF731FB00236B
:101A000004930023039300230293002301930023F4
:101A100000930023002201210020FFF73BF997EDFE
:101A2000087AD7ED057A77EE677AFDEEE77A17EE5A
:101A3000903A002BB8BF5B42012BC3DC97ED077ACD
:101A4000D7ED047A77EE677AFDEEE77A17EE903AF3
:101A5000002BB8BF5B42012BB4DC97ED067AD7EDC3
:101A6000037A77EE677AFDEEE77A17EE903A002B6D
:101A7000B8BF5B42012BA5DC4FF416720121022096
:101A8000FFF767F94EF6602009F0BBFB4FF6FF72D7
:101A900001210220FFF75DF90CE042F2107009F01D
:101AA000B0FB07F10C0207F1100107F1140318460F
:101AB000FFF73EFBD7ED057AFDEEE77A17EE903A99
:101AC000002BB8BF5B42012BE7DCD7ED037AFDEEBC
:101AD000E77A17EE903A002BB8BF5B42012BDCDCB3
:101AE000D7ED047AFDEEE77A17EE903A002BB8BFF7
:101AF0005B42032BD1DC002201210220FFF729F9F0
:101B000000BF2837BD4680BD80B592B006AF01202A
:101B1000FFF7AAF8034687F8233000230493012334
:101B200003930023029300230193002300930023D7
:101B3000002201210120FFF7ADF8034687F823308A
:101B40000320FFF72DF9034687F8233000220121F7
:101B50000020FFF7FEF8034687F8233041F2883073
:101B600009F04FFB5F48FFF731F9034687F8233050
:101B70004FF00003FB62002387F82B304EF6602005
:101B800009F03FFB00237B6229E04FF47A7009F0F3
:101B900038FB07F1080207F10C0107F110031846A2
:101BA000FFF78EF9034687F823307B6A002B11D0AC
:101BB00097ED037AD7ED0B7A77EE677AFDEEE77A49
:101BC00017EE903A002BB8BF5B42022B02DD0223D6
:101BD00087F82B30FB68FB627B6A01337B627B6A90
:101BE0003B2BD2DD07F1140207F1180107F11C03AA
:101BF0001846FFF7CDF9034687F82330BB1D18467A
:101C0000FFF7FEFA034687F82330B7F90630364A65
:101C1000934204DBB7F90630344A934203DB0123D5
:101C200087F82B3012E0D7ED067AFDEEE77A17EE53
:101C3000903A002B0ADBD7ED067AFDEEE77A17EE35
:101C4000903A002B02DC032387F82B300020FFF7AB
:101C5000BDF8034687F823304FF6FF7201210220BA
:101C6000FFF777F8034687F8233047F2305009F042
:101C7000C8FA07F1140207F1180107F11C0318460E
:101C8000FFF786F9034687F82330BB1D1846FFF798
:101C9000B7FA034687F82330B7F90630002B06D091
:101CA000012387F82B30124802F020FB14E0D7ED17
:101CB000067AB8EE087AF4EEC77AF1EE10FA08D494
:101CC000D7ED067ABFEE007AF4EEC77AF1EE10FA9D
:101CD00002DD032387F82B3097F82B301846303776
:101CE000BD4680BDB9EFFFFF98EFFFFFE4EFFFFFB8
:101CF000380D0108B0B594B000AF7860414802F0EB
:101D0000F5FA0023FB6407F14C03184609F08DFA3D
:101D100003463D4A13600023BB6407F1480318469D
:101D200009F083FA0346394A136000237B6407F104
:101D30004403184609F079FA0346354A1360002334
:101D40003B6407F14003184609F06FFA0346314A35
:101D500013600023FB6307F13C03184609F065FAA2
:101D600003462D4A13600023BB6307F1380318466E
:101D700009F05BFA0346294A136000237B6307F1ED
:101D80003403184609F051FA0346254A136001F05E
:101D9000ABF8244802F0AAFA01F082F8224802F0D7
:101DA000A5FA01F06BF8214802F0A0FA204802F0F1
:101DB0009DFA204B07F10C041D460FCD0FC40FCD2B
:101DC0000FC495E80300206004342170052002F060
:101DD0000BF907F10C032321184602F049F902F030
:101DE000ADF8154802F082FA32210A2002F0E4FA36
:101DF00032210A2002F00AFB42F2107009F001FAC7
:101E0000FAE700BF4C0D01082C0200203002002030
:101E100034020020380200203C0200204002002052
:101E200044020020680D0108880D0108AC0D01086E
:101E3000D40D01081C0E0108FC0D010880B582B00C
:101E400000AF7860034802F051FA42F2107009F0D6
:101E5000D8F9FAE7440E010880B582B000AF786087
:101E6000014802F043FAFEE7680E010880B584B02D
:101E700000AF7860294802F039FA00F0B7FF034656
:101E8000FB7300F0C5FF0346FB7300F0CAFF034677
:101E9000FB73FFF7C1FBFFF737FE0346BB73BB7B4A
:101EA000002B03D11E4802F021FA13E0BB7B012B6B
:101EB00003D11C4802F01AFA0CE0BB7B022B03D1C1
:101EC000194802F013FA05E0BB7B032B02D1174837
:101ED00002F00CFA164B1B684FF4FA71184609F021
:101EE000B1F9144B01221A70114B1B68184609F006
:101EF000F9F9114B5B69104A43F0100353614FF439
:101F00007A7009F07EF90C4B5B690B4A23F01003E1
:101F100053614FF47A7009F074F9EAE7840E01080E
:101F2000A00E0108C40E0108E80E0108080F010800
:101F30003C020020100200200008024080B592B050
:101F400000AF7860884802F0D1F909F023F9034620
:101F5000FB6007F13603184600F0C4FDFB8E03F06A
:101F60002003002B0FD0814B1B684FF4FA711846E9
:101F700009F068F97E4A7F4B1A607C4B1B68184653
:101F800009F0B0F933E007F13C03184600F072FCA9
:101F900007F13803184600F03BFCD7ED0F7AB1EE9D
:101FA000047A27EE877AD7ED0E7AF0EE086A67EEAC
:101FB000A67A77EE277AC7ED117A6C4B1B684FF43F
:101FC000FA71184609F03EF96A4B93ED007AD7EDA5
:101FD000116A9FED696AC6EE867A77EE677A654B7D
:101FE000C3ED007A614B1B68184609F07BF9FB8E44
:101FF00003F04003002B72D007F13003184600F0C5
:1020000045FA07F12C03184600F072FA07F128038D
:10201000184600F09FFA07F12403184600F0CCFAA6
:1020200007F12003184600F0F9FA07F11C031846DF
:1020300000F026FB07F11803184600F053FB07F1E8
:102040001403184600F080FB07F11003184600F057
:10205000ADFB97ED0B7AD7ED0A7A37EE277AD7EDFD
:102060000C7A67EE277AC7ED107A97ED087AD7EDEC
:10207000077A37EE277AD7ED097A67EE277A97ED58
:10208000107A77EE277AC7ED107A97ED057AD7EDBB
:10209000047A37EE277AD7ED067A67EE277A97ED3E
:1020A000107A77EE277AC7ED107A304B1B684FF421
:1020B000FA71184609F0C6F8D7ED107ADFED2E6AEE
:1020C00087EEA67A2B4BD3ED007A77EE277A294B51
:1020D000C3ED007A254B1B68184609F003F9234B22
:1020E0001B684FF4FA71184609F0ACF8234B1B68D3
:1020F0004FF4FA71184609F0A5F81E4BD3ED007A9B
:10210000B0EE087AF4EEC77AF1EE10FA03D51C4B64
:1021100001221A7015E01A4B1A78164BD3ED007A8B
:10212000B2EE007AF4EEC77AF1EE10FACCBF0123DA
:102130000023DBB21340DBB2002B02D0104B002295
:102140001A700E4B1B68184609F0CCF8074B1B6839
:10215000184609F0C7F807F10C034FF47A711846D6
:1021600009F001F9F5E600BF480F01083802002028
:102170002E108F4100000020000061454002002029
:102180001102002090B587B000AF786039603B68DD
:102190005B783B733B689B787B733B68DB78BB73F6
:1021A000BB7B18460BF01EFE03463B6138693B685B
:1021B0000433BA7B19460BF025FEBB7B04333A6827
:1021C00013441B783B757B681C4607F10C0393E8AE
:1021D000070084E8070078681C37BD4690BD000002
:1021E0002DE9F04389B000AF3B1D83E807006B4643
:1021F0001E46BB79591D4B1E7B610A460023904643
:1022000099464FF000024FF000034FEAC90343EA3A
:1022100058734FEAC8020A46002314461D464FF081
:1022200000024FF00003EB0043EA5473E2000B4658
:102230000733DB08DB00ADEB030D6B4600333B617E
:102240003B69FF221A703A793B695A707A793B6987
:102250009A70BA793B69DA700023BB610AE0BA6808
:10226000BB691A44BB69043311783A69D154BB691C
:102270000133BB61BB791A46BB699342EFDBBB7983
:102280000433397B3A69D1540123FB773B790A2B1C
:102290000CD1BB799BB205339AB24FF47A7339698A
:1022A0000D4806F046FB0346FB770EE03B79282BF2
:1022B0000BD1BB799BB205339AB24FF47A7339696B
:1022C000064806F036FB0346FB77FB7FB54618460B
:1022D0002437BD46BDE8F083C0060020000700207B
:1022E00080B489B000AF3B1D83E807000023BB61C9
:1022F0003B791A46BB691344BB617B791A46BB69BB
:102300001344BB61BB791A46BB691344BB6100230C
:10231000FB610AE0BA68FB6913441B781A46BB6983
:102320001344BB61FB690133FB61BB791A46FB694E
:102330009342EFDBBB69FB75FB7DDB43DBB21846E9
:102340002437BD465DF8047B704780B487B000AF8A
:102350003B1D83E8070000233B613B791A463B693C
:1023600013443B617B791A463B6913443B61BB795B
:102370001A463B6913443B6100237B610AE0BA685B
:102380007B6913441B781A463B6913443B617B69A4
:1023900001337B61BB791A467B699342EFDB3B7B60
:1023A0001A463B6913443B613B69DBB2FF2B01D109
:1023B000012300E0002318461C37BD465DF8047B6E
:1023C0007047000080B584B000AF78600123FB73D4
:1023D0000123BB7307F10802BB7B1146184600F0CE
:1023E000DDFD0346FB73FB7B002B01D0FB7B14E080
:1023F0003B7A9BB21B029AB27B7A9BB21344BB819D
:10240000BB8907EE903AF8EE677A9FED067A67EEA1
:10241000877A7B68C3ED007AFB7B18461037BD4690
:1024200080BD00BFEB51193B80B584B000AF786030
:102430000123FB730223BB7307F10802BB7B114628
:10244000184600F0ABFD0346FB73FB7B002B01D06D
:10245000FB7B14E03B7A9BB21B029AB27B7A9BB265
:102460001344BB81BB8907EE903AF8EE677A9FED83
:10247000067A67EE877A7B68C3ED007AFB7B1846A5
:102480001037BD4680BD00BF0000483B80B584B01A
:1024900000AF78600123FB730523BB7307F10802CB
:1024A000BB7B1146184600F079FD0346FB73FB7BAE
:1024B000002B01D0FB7B14E03B7A9BB21B029AB24B
:1024C0007B7A9BB21344BB81BB8907EE903AF8EE4E
:1024D000677A9FED067A67EE877A7B68C3ED007AAC
:1024E000FB7B18461037BD4680BD00BF0000203B77
:1024F00080B584B000AF78600123FB730623BB7303
:1025000007F10802BB7B1146184600F047FD034661
:10251000FB73FB7B002B01D0FB7B14E03B7A9BB26F
:102520001B029AB27B7A9BB21344BB81BB8907EE34
:10253000903AF8EE677A9FED067A67EE877A7B68C5
:10254000C3ED007AFB7B18461037BD4680BD00BF47
:102550000100203A80B584B000AF78600123FB739E
:102560000723BB7307F10802BB7B1146184600F036
:1025700015FD0346FB73FB7B002B01D0FB7B14E0B6
:102580003B7A9BB21B029AB27B7A9BB21344BB810B
:10259000BB8907EE903AF8EE677A9FED067A67EE10
:1025A000877A7B68C3ED007AFB7B18461037BD46FF
:1025B00080BD00BF0100203A80B584B000AF7860D4
:1025C0000123FB730823BB7307F10802BB7B114691
:1025D000184600F0E3FC0346FB73FB7B002B01D0A5
:1025E000FB7B14E03B7A9BB21B029AB27B7A9BB2D4
:1025F0001344BB81BB8907EE903AF8EE677A9FEDF2
:10260000067A67EE877A7B68C3ED007AFB7B184613
:102610001037BD4680BD00BF0000203B80B584B0B0
:1026200000AF78600123FB730923BB7307F1080235
:10263000BB7B1146184600F0B1FC0346FB73FB7BE5
:10264000002B01D0FB7B14E03B7A9BB21B029AB2B9
:102650007B7A9BB21344BB81BB8907EE903AF8EEBC
:10266000677A9FED067A67EE877A7B68C3ED007A1A
:10267000FB7B18461037BD4680BD00BF0100203AE5
:1026800080B584B000AF78600123FB730A23BB736D
:1026900007F10802BB7B1146184600F07FFC034699
:1026A000FB73FB7B002B01D0FB7B14E03B7A9BB2DE
:1026B0001B029AB27B7A9BB21344BB81BB8907EEA3
:1026C000903AF8EE677A9FED067A67EE877A7B6834
:1026D000C3ED007AFB7B18461037BD4680BD00BFB6
:1026E0000100203A80B584B000AF78600123FB730D
:1026F0000B23BB7307F10802BB7B1146184600F0A1
:102700004DFC0346FB73FB7B002B01D0FB7B14E0ED
:102710003B7A9BB21B029AB27B7A9BB21344BB8179
:10272000BB8907EE903AF8EE677A9FED067A67EE7E
:10273000877A7B68C3ED007AFB7B18461037BD466D
:1027400080BD00BF0000203B80B584B000AF786042
:102750000123FB730C23BB7307F10802BB7B1146FB
:10276000184600F01BFC0346FB73FB7B002B01D0DB
:10277000FB7B14E03B7A9BB21B029AB27B7A9BB242
:102780001344BB81BB8907EE903AF8EE677A9FED60
:10279000067A67EE877A7B68C3ED007AFB7B184682
:1027A0001037BD4680BD00BF0100203A80B584B01F
:1027B00000AF78600123FB730D23BB7307F10802A0
:1027C000BB7B1146184600F0E9FB0346FB73FB7B1D
:1027D000002B01D0FB7B14E03B7A9BB21B029AB228
:1027E0007B7A9BB21344BB81BB8907EE903AF8EE2B
:1027F000677A9FED067A67EE877A7B68C3ED007A89
:10280000FB7B18461037BD4680BD00BF0100203A53
:1028100080B584B000AF78600123FB730E23BB73D7
:1028200007F10802BB7B1146184600F0B7FB0346D0
:10283000FB73FB7B002B01D0FB7B14E03B7A9BB24C
:102840001B029AB27B7A9BB21344BB81BB8907EE11
:10285000903AF8EE677A9FED067A67EE877A7B68A2
:10286000C3ED007AFB7B18461037BD4680BD00BF24
:102870005555053B80B584B000AF78600123FB73EC
:102880000F23BB7307F10802BB7B1146184600F00B
:1028900085FB0346FB73FB7B002B01D0FB7B14E025
:1028A0003B7A9BB21B029AB27B7A9BB21344BB81E8
:1028B000BB8907EE903AF8EE677A9FED067A67EEED
:1028C000877A7B68C3ED007AFB7B18461037BD46DC
:1028D00080BD00BF5555053B80B584B000AF786022
:1028E0000123FB731223BB7307F10802BB7B114664
:1028F000184600F053FB0346FB73FB7B002B01D013
:10290000FB7B1CE03B7A9BB21B029AB27B7A9BB2A8
:102910001344BB81BB8907EE903AF8EE677A9FEDCE
:102920000A7A67EE877A9FED097A37EEC77ADFED8C
:10293000086AC7EE267A7B68C3ED007AFB7B1846EF
:102940001037BD4680BD00BF0100203A7F6A7C3F42
:102950001EA7683B80B584B000AF78600123FB738D
:102960001323BB7307F10802BB7B1146184600F026
:1029700015FB0346FB73FB7B002B01D0FB7B14E0B4
:102980003B7A9BB21B029AB27B7A9BB21344BB8107
:10299000BB8907EE903AF8EE677A9FED067A67EE0C
:1029A000877A7B68C3ED007AFB7B18461037BD46FB
:1029B00080BD00BF0000803B80B584B000AF786070
:1029C0000123FB731423BB7307F10802BB7B114681
:1029D000184600F0E3FA0346FB73FB7B002B01D0A3
:1029E000FB7B14E03B7A9BB21B029AB27B7A9BB2D0
:1029F0001344BB81BB8907EE903AF8EE677A9FEDEE
:102A0000067A67EE877A7B68C3ED007AFB7B18460F
:102A10001037BD4680BD00BF0000803B80B584B04C
:102A200000AF78600123FB731523BB7307F1080225
:102A3000BB7B1146184600F0B1FA0346FB73FB7BE3
:102A4000002B01D0FB7B14E03B7A9BB21B029AB2B5
:102A50007B7A9BB21344BB81BB8907EE903AF8EEB8
:102A6000677A9FED067A67EE877A7B68C3ED007A16
:102A7000FB7B18461037BD4680BD00BF0000803B81
:102A800080B584B000AF78600123FB731623BB735D
:102A900007F10802BB7B1146184600F07FFA034697
:102AA000FB73FB7B002B01D0FB7B14E03B7A9BB2DA
:102AB0001B029AB27B7A9BB21344BB81BB8907EE9F
:102AC000903AF8EE677A9FED067A67EE877A7B6830
:102AD000C3ED007AFB7B18461037BD4680BD00BFB2
:102AE0000000803B80B584B000AF78600123FB73A9
:102AF0001723BB7307F10C02BB7B1146184600F08D
:102B00004DFA0346FB73FB7B002B01D0FB7B0AE0F5
:102B10003B7B9BB21B029AB27B7B9BB213449AB263
:102B20007B681A80FB7B18461037BD4680BD80B598
:102B300084B000AF78600123FB731823BB7307F1E7
:102B40000C02BB7B1146184600F028FA0346FB73C3
:102B5000FB7B002B01D0FB7B0AE03B7B9BB21B0283
:102B60009AB27B7B9BB213449AB27B681A80FB7B40
:102B700018461037BD4680BD80B584B000AF786080
:102B80000123FB731823BB7307F10C02BB7B1146B7
:102B9000184600F003FA0346FB73FB7B002B01D0C1
:102BA000FB7B0AE03B7B9BB21B029AB27B7B9BB216
:102BB00013449AB27B681A80FB7B18461037BD46D7
:102BC00080BD80B584B000AF78600123FB731A2309
:102BD000BB7307F10C02BB7B1146184600F0DEF90F
:102BE0000346FB73FB7B002B01D0FB7B0AE03B7BA6
:102BF0009BB21B029AB27B7B9BB213449AB27B6856
:102C00001A80FB7B18461037BD4680BD80B584B066
:102C100000AF78600123FB731B23BB7307F10C0229
:102C2000BB7B1146184600F0B9F90346FB73FB7BEA
:102C3000002B01D0FB7B0AE03B7B9BB21B029AB2CC
:102C40007B7B9BB213449AB27B681A80FB7B18464D
:102C50001037BD4680BD80B584B000AF78600123D9
:102C6000FB731C23BB7307F10C02BB7B1146184698
:102C700000F094F90346FB73FB7B002B01D0FB7B38
:102C80000AE03B7B9BB21B029AB27B7B9BB2134454
:102C90009AB27B681A80FB7B18461037BD4680BD10
:102CA00080B584B000AF78600123FB731D23BB7334
:102CB00007F10C02BB7B1146184600F06FF9034682
:102CC000FB73FB7B002B01D0FB7B0AE03B7B9BB2C1
:102CD0001B029AB27B7B9BB213449AB27B681A8028
:102CE000FB7B18461037BD4680BD80B584B000AF71
:102CF00078600123FB733023BB7307F10C02BB7BAD
:102D00001146184600F04AF90346FB73FB7B002B83
:102D100001D0FB7B0AE03B7B9BB21B029AB27B7B20
:102D20009BB213449AB27B681A80FB7B184610371B
:102D3000BD4680BD80B584B000AF78600123FB73D1
:102D40002B23BB7307F10C02BB7B1146184600F026
:102D500025F90346FB73FB7B002B01D0FB7B0AE0CC
:102D60003B7B9BB21B029AB27B7B9BB213449AB211
:102D70007B681A80FB7B18461037BD4680BD80B546
:102D800084B000AF78600123FB732C23BB7307F181
:102D90000C02BB7B1146184600F000F90346FB739A
:102DA000FB7B002B01D0FB7B0AE03B7B9BB21B0231
:102DB0009AB27B7B9BB213449AB27B681A80FB7BEE
:102DC00018461037BD4680BD80B500AF01210120F7
:102DD00000F048F90346184680BD80B500AF0221D7
:102DE000012000F03FF90346184680BD80B500AFD2
:102DF0000121042000F036F90346184680BD80B555
:102E000000AF0221042000F02DF90346184680BDD2
:102E100080B500AF0021052000F024F903461846D4
:102E200080BD80B500AF0021062000F01BF90346ED
:102E3000184680BD80B500AF0121082000F012F9CE
:102E40000346184680BD80B500AF0021082000F081
:102E500009F90346184680BD80B500AF012109205D
:102E600000F000F90346184680BD80B500AF002190
:102E7000092000F0F7F80346184680BD80B500AF82
:102E800001210A2000F0EEF80346184680BD80B507
:102E900000AF00210A2000F0E5F80346184680BD87
:102EA00080B500AF01210B2000F0DCF80346184686
:102EB00080BD80B500AF00210B2000F0D3F80346A1
:102EC000184680BD80B500AF01210C2000F0CAF883
:102ED0000346184680BD80B500AF00210C2000F0ED
:102EE000C1F80346184680BD80B500AF01210E2011
:102EF00000F0B8F80346184680BD80B500AF002149
:102F00000E2000F0AFF80346184680BD80B500AF34
:102F100001210F2000F0A6F80346184680BD80B5B9
:102F200000AF00210F2000F09DF80346184680BD39
:102F300080B500AF0121102000F094F80346184638
:102F400080BD80B500AF0021102000F08BF8034653
:102F5000184680BD80B500AF0121112000F082F835
:102F60000346184680BD80B500AF0021112000F057
:102F700079F80346184680BD80B500AF01211220C4
:102F800000F070F80346184680BD80B500AF002100
:102F9000122000F067F80346184680BD80B586B061
:102FA00002AF03463960FB712A4B1B6840F6C4111F
:102FB000184608F047F90123FB73FA1D64230093B8
:102FC00001233021244802F085F90346FB73FB7B83
:102FD000002B17D0214B1B684FF4FA71184608F0EC
:102FE00031F91F4B1B6801331D4A13601B4B1B68D3
:102FF000184608F077F9174B1B68184608F072F965
:10300000FB7B23E06423009302233A6830211248BB
:1030100002F06EFA0346FB73FB7B002B10D00F4BC4
:103020001B684FF4FA71184608F00CF90C4B1B683A
:1030300001330B4A1360094B1B68184608F052F91C
:10304000044B1B68184608F04DF9FB7B18461037F7
:10305000BD4680BD2C020020A402002034020020C6
:103060000C02002080B586B002AF03460A46FB7111
:103070001346BB711A4B1B6840F2DC51184608F02E
:10308000E1F80123FB73FB793B73BB797B7307F199
:103090000C026423009302233021124802F01AF933
:1030A0000346FB73FB7B002B10D00F4B1B684FF4C8
:1030B000FA71184608F0C6F80C4B1B6801330B4A2E
:1030C0001360094B1B68184608F00CF9044B1B6889
:1030D000184608F007F9FB7B18461037BD4680BD3F
:1030E0002C020020A4020020340200200C02002048
:1030F00080B584B000AF0A233B71FF237B710223AC
:10310000BB7102200AF06EFE0346BB60BB68FF2263
:103110001A70BB680133FF221A703B1D93E8070049
:10312000FFF7DEF803463B733B1D93E80700FFF70C
:1031300057F8034618461037BD4680BD90B5A9B074
:1031400000AF3B1D83E807003B79282B48DC0A2BA6
:10315000C0F2E5860A3B1E2B00F2E18601A252F87E
:1031600023F000BFEB3100081F3F00081F3F00089D
:103170001F3F00081F3F00081F3F00081F3F0008B7
:103180001F3F00081F3F00081F3F0008253F0008A1
:103190001F3F00081F3F00081F3F00081F3F000897
:1031A0001F3F00081F3F00081F3F00081F3F000887
:1031B0001F3F0008F93100081F3F00081F3F0008AB
:1031C0001F3F00081F3F00081F3F00081F3F000867
:1031D0001F3F00081F3F00081F3F0008253F000851
:1031E0005A2B00F0A18600F09ABE7B79092B00F2E1
:1031F0009D8600BF00F09ABE7B79013B102B00F248
:10320000978601A252F823F04D320008313F0008A2
:1032100027330008313F00085F340008313F0008C1
:1032200097350008313F0008CF360008313F0008CD
:10323000B7370008313F00087F390008313F0008E8
:10324000A13A0008313F0008FB3B000807F1680382
:103250001846FFF7B7F8034687F89F3097F89F3076
:10326000002B03D04FF0FF3300F064BE07F164037E
:103270001846FFF7D9F8034687F89F3097F89F3034
:10328000002B03D04FF0FF3300F054BED7ED1A7A75
:10329000B0EE670A01F0E4F80346A7F87C30D7EDFA
:1032A000197AB0EE670A01F0DBF80346A7F87A3026
:1032B0001E2387F86C30002387F86D30042387F8CD
:1032C0006E3004200AF08EFD03463B67B7F87C3071
:1032D0001B0A9AB23B6FD2B21A703B6F0133B7F838
:1032E0007C20D2B21A70B7F87A301B0A9AB23B6FC0
:1032F0000233D2B21A703B6F0333B7F87A20D2B2DE
:103300001A7007F16C0393E80700FEF7E9FF034624
:1033100087F8743007F16C0393E80700FEF760FF4D
:10332000034600F007BE07F160031846FFF7AEF84A
:10333000034687F89F3097F89F30002B03D04FF05B
:10334000FF3300F0F7BD07F15C031846FFF7D0F834
:10335000034687F89F3097F89F30002B03D04FF03B
:10336000FF3300F0E7BD07F158031846FFF7F2F806
:10337000034687F89F3097F89F30002B03D04FF01B
:10338000FF3300F0D7BDD7ED187AB0EE670A01F031
:1033900067F80346A7F88230D7ED177AB0EE670AD0
:1033A00001F05EF80346A7F88030D7ED167AB0EE4C
:1033B000670A01F055F80346A7F87E301E2387F808
:1033C0006C30022387F86D30062387F86E300620B4
:1033D0000AF008FD03463B67B7F882301B0A9AB231
:1033E0003B6FD2B21A703B6F0133B7F88220D2B272
:1033F0001A70B7F880301B0A9AB23B6F0233D2B210
:103400001A703B6F0333B7F88020D2B21A70B7F846
:103410007E301B0A9AB23B6F0433D2B21A703B6FF4
:103420000533B7F87E20D2B21A7007F16C0393E827
:103430000700FEF755FF034687F8743007F16C0369
:1034400093E80700FEF7CCFE034687F89F303B6FFA
:1034500018460AF0CFFC97F89F3000F06BBD07F1DB
:1034600054031846FFF7A8F8034687F89F3097F8EB
:103470009F30002B03D04FF0FF3300F05BBD07F10E
:1034800050031846FFF7CAF8034687F89F3097F8AD
:103490009F30002B03D04FF0FF3300F04BBD07F1FE
:1034A0004C031846FFF7ECF8034687F89F3097F86F
:1034B0009F30002B03D04FF0FF3300F03BBDD7ED22
:1034C000157AB0EE670A00F0CBFF0346A7F8883004
:1034D000D7ED147AB0EE670A00F0C2FF0346A7F8F2
:1034E0008630D7ED137AB0EE670A00F0B9FF0346D5
:1034F000A7F884301E2387F86C30042387F86D30DA
:10350000062387F86E3006200AF06CFC03463B6702
:10351000B7F888301B0A9AB23B6FD2B21A703B6F71
:103520000133B7F88820D2B21A70B7F886301B0A78
:103530009AB23B6F0233D2B21A703B6F0333B7F8C3
:103540008620D2B21A70B7F884301B0A9AB23B6F49
:103550000433D2B21A703B6F0533B7F88420D2B26D
:103560001A7007F16C0393E80700FEF7B9FE0346F3
:1035700087F8743007F16C0393E80700FEF730FE1C
:10358000034687F89F303B6F18460AF033FC97F8E4
:103590009F3000F0CFBC07F148031846FFF7A2F8B0
:1035A000034687F89F3097F89F30002B03D04FF0E9
:1035B000FF3300F0BFBC07F144031846FFF7C4F81F
:1035C000034687F89F3097F89F30002B03D04FF0C9
:1035D000FF3300F0AFBC07F140031846FFF7E6F8F1
:1035E000034687F89F3097F89F30002B03D04FF0A9
:1035F000FF3300F09FBCD7ED127AB0EE670A00F0FF
:103600002FFF0346A7F88E30D7ED117AB0EE670A88
:1036100000F026FF0346A7F88C30D7ED107AB0EE05
:10362000670A00F01DFF0346A7F88A301E2387F8BB
:103630006C30062387F86D30062387F86E3006203D
:103640000AF0D0FB03463B67B7F88E301B0A9AB2EC
:103650003B6FD2B21A703B6F0133B7F88E20D2B2F3
:103660001A70B7F88C301B0A9AB23B6F0233D2B291
:103670001A703B6F0333B7F88C20D2B21A70B7F8C8
:103680008A301B0A9AB23B6F0433D2B21A703B6F76
:103690000533B7F88A20D2B21A7007F16C0393E8A9
:1036A0000700FEF71DFE034687F8743007F16C0330
:1036B00093E80700FEF794FD034687F89F303B6FC1
:1036C00018460AF097FB97F89F3000F033BC07F1DB
:1036D0003C031846FFF79CF8034687F89F3097F89D
:1036E0009F30002B03D04FF0FF3300F023BC07F1D5
:1036F00038031846FFF7BEF8034687F89F3097F85F
:103700009F30002B03D04FF0FF3300F013BCD7EDF8
:103710000F7AB0EE670A00F0A3FE0346A7F89230D6
:10372000D7ED0E7AB0EE670A00F09AFE0346A7F8CE
:1037300090301E2387F86C30082387F86D300423FF
:1037400087F86E3004200AF04DFB03463B67B7F85C
:1037500092301B0A9AB23B6FD2B21A703B6F0133A0
:10376000B7F89220D2B21A70B7F890301B0A9AB20A
:103770003B6F0233D2B21A703B6F0333B7F890201D
:10378000D2B21A7007F16C0393E80700FEF7A8FDA8
:10379000034687F8743007F16C0393E80700FEF7DF
:1037A0001FFD034687F89F303B6F18460AF022FB47
:1037B00097F89F30BEE307F134031846FFF78CF803
:1037C000034687F89F3097F89F30002B02D04FF0C8
:1037D000FF33AFE307F130031846FFF7BBF80346AA
:1037E00087F89F3097F89F30002B02D04FF0FF33BF
:1037F000A0E307F12C031846FFF7DEF8034687F82D
:103800009F3097F89F30002B02D04FF0FF3391E3A9
:1038100007F128031846FFF701F9034687F89F30A0
:1038200097F89F30002B02D04FF0FF3382E307F16F
:1038300024031846FFF724F9034687F89F3097F8CA
:103840009F30002B02D04FF0FF3373E3D7ED0D7A9A
:10385000B0EE670A00F004FE0346A7F89C30D7EDEF
:103860000C7AB0EE670A00F0FBFD0346A7F89A3029
:10387000D7ED0B7AB0EE670A00F0F2FD0346A7F829
:103880009830D7ED0A7AB0EE670A00F0E9FD0346FA
:10389000A7F89630D7ED097AB0EE670A00F0E0FDA0
:1038A0000346A7F894301E2387F86C300A2387F864
:1038B0006D300A2387F86E300A200AF093FA034627
:1038C0003B67B7F89C301B0A9AB23B6FD2B21A70B2
:1038D0003B6F0133B7F89C20D2B21A70B7F89A3018
:1038E0001B0A9AB23B6F0233D2B21A703B6F03339A
:1038F000B7F89A20D2B21A70B7F898301B0A9AB269
:103900003B6F0433D2B21A703B6F0533B7F898207F
:10391000D2B21A70B7F896301B0A9AB23B6F0633D0
:10392000D2B21A703B6F0733B7F89620D2B21A7032
:10393000B7F894301B0A9AB23B6F0833D2B21A70B0
:103940003B6F0933B7F89420D2B21A7007F16C03B9
:1039500093E80700FEF7C4FC034687F8743007F1CC
:103960006C0393E80700FEF73BFC034687F89F30A3
:103970003B6F18460AF03EFA97F89F30DAE207F1FB
:1039800022031846FFF7AEF8034687F89F3097F8F2
:103990009F30002B02D04FF0FF33CBE207F1200322
:1039A0001846FFF7C4F8034687F89F3097F89F3012
:1039B000002B02D04FF0FF33BCE207F11E03184684
:1039C000FFF7DAF8034687F89F3097F89F30002B0F
:1039D00002D04FF0FF33ADE207F11C031846FFF7AA
:1039E000A9F9034687F89F3097F89F30002B02D043
:1039F0004FF0FF339EE207F11A031846FFF7BFF9B5
:103A0000034687F89F3097F89F30002B02D04FF085
:103A1000FF338FE21E2387F86C300C2387F86D305C
:103A2000062387F86E3006200AF0DCF903463B6770
:103A30007A8C3B6FD2B21A703B8C1B0A9AB23B6FE6
:103A40000133D2B21A703A8C3B6F0233D2B21A7081
:103A5000FA8B3B6F0333D2B21A70BA8B3B6F0433CD
:103A6000D2B21A707A8B3B6F0533D2B21A7007F15B
:103A70006C0393E80700FEF733FC034687F87430C5
:103A800007F16C0393E80700FEF7AAFB034687F8EB
:103A90009F303B6F18460AF0ADF997F89F3049E226
:103AA00007F118031846FFF78CF8034687F89F3094
:103AB00097F89F30002B02D04FF0FF333AE207F126
:103AC00016031846FFF7A2F8034687F89F3097F8C9
:103AD0009F30002B02D04FF0FF332BE207F114038D
:103AE0001846FFF7B8F8034687F89F3097F89F30DD
:103AF000002B02D04FF0FF331CE207F112031846EF
:103B0000FFF7CEF8034687F89F3097F89F30002BD9
:103B100002D04FF0FF330DE207F110031846FFF714
:103B2000E4F8034687F89F3097F89F30002B02D0C7
:103B30004FF0FF33FEE11E2387F86C300E2387F829
:103B40006D300A2387F86E300A200AF04BF90346DD
:103B50003B673B8B1B0A9AB23B6FD2B21A703A8B0F
:103B60003B6F0133D2B21A70FB8A1B0A9AB23B6FC9
:103B70000233D2B21A70FA8A3B6F0333D2B21A7090
:103B8000BB8A1B0A9AB23B6F0433D2B21A70BA8A4C
:103B90003B6F0533D2B21A707B8A1B0A9AB23B6F15
:103BA0000633D2B21A707A8A3B6F0733D2B21A70D8
:103BB0003B8A1B0A9AB23B6F0833D2B21A703A8A18
:103BC0003B6F0933D2B21A7007F16C0393E8070018
:103BD000FEF786FB034687F8743007F16C0393E821
:103BE0000700FEF7FDFA034687F89F303B6F184643
:103BF0000AF000F997F89F309CE11E2387F86C309B
:103C0000102387F86D30012387F86E3001200AF009
:103C1000E9F803463B673B1D93E80700FEF795FB79
:103C20000346002B03D13B6F00221A705EE1BB6894
:103C30001B78013B0E2B00F2598101A252F823F0B0
:103C40007D3C0008ED3E0008ED3E0008B13C000858
:103C5000ED3E0008E53C0008193D00084D3D000818
:103C6000813D0008B53D0008E93D00081D3E000803
:103C7000513E0008853E0008B93E0008BB6801338C
:103C80001B78002B05D13C6FFFF7A7F80346237084
:103C90002CE1BB6801331B78012B05D13C6FFFF78A
:103CA00093F80346237021E13B6F00221A701DE157
:103CB000BB6801331B78002B05D13C6FFFF79FF8E1
:103CC0000346237012E1BB6801331B78012B05D139
:103CD0003C6FFFF78BF80346237007E13B6F002230
:103CE0001A7003E1BB6801331B78002B05D13C6FD0
:103CF000FFF7A9F803462370F8E0BB6801331B788F
:103D0000012B05D13C6FFFF795F803462370EDE0DA
:103D10003B6F00221A70E9E0BB6801331B78002B6F
:103D200005D13C6FFFF7A1F803462370DEE0BB68C6
:103D300001331B78012B05D13C6FFFF78DF803464B
:103D40002370D3E03B6F00221A70CFE0BB680133D1
:103D50001B78002B05D13C6FFFF799F803462370C1
:103D6000C4E0BB6801331B78012B05D13C6FFFF722
:103D700085F803462370B9E03B6F00221A70B5E066
:103D8000BB6801331B78002B05D13C6FFFF791F81E
:103D900003462370AAE0BB6801331B78012B05D1D1
:103DA0003C6FFFF77DF8034623709FE03B6F0022D6
:103DB0001A709BE0BB6801331B78002B05D13C6F68
:103DC000FFF789F80346237090E0BB6801331B7846
:103DD000012B05D13C6FFFF775F80346237085E092
:103DE0003B6F00221A7081E0BB6801331B78002B07
:103DF00005D13C6FFFF781F80346237076E0BB687E
:103E000001331B78012B05D13C6FFFF76DF803469A
:103E100023706BE03B6F00221A7067E0BB680133D0
:103E20001B78002B05D13C6FFFF779F80346237010
:103E30005CE0BB6801331B78012B05D13C6FFFF7B9
:103E400065F80346237051E03B6F00221A704DE085
:103E5000BB6801331B78002B05D13C6FFFF771F86D
:103E60000346237042E0BB6801331B78012B05D168
:103E70003C6FFFF75DF80346237037E03B6F00228D
:103E80001A7033E0BB6801331B78002B05D13C6FFF
:103E9000FFF769F80346237028E0BB6801331B78FD
:103EA000012B05D13C6FFFF755F8034623701DE049
:103EB0003B6F00221A7019E0BB6801331B78002B9E
:103EC00005D13C6FFFF761F8034623700DE0BB6836
:103ED00001331B78012B05D13C6FFFF74DF80346EA
:103EE000237002E03B6F00221A7000BF07F16C03E1
:103EF00093E80700FEF7F4F9034687F8743007F1FA
:103F00006C0393E80700FEF76BF9034687F89F30D0
:103F10003B6F184609F06EFF97F89F300AE04FF0AC
:103F2000FF3307E000BF04E000BF02E000BF00E095
:103F300000BF00231846A437BD4690BD80B58EB0A3
:103F400000AF07F12003184600F024F9034687F874
:103F5000373097F83730002B02D097F837303EE0F3
:103F600097F829303B7797F82A307B7797F82B30F2
:103F7000303BDBB25BB243F004035BB2DBB2303305
:103F8000DBB2BB7797F82D30FB7745233B7153238A
:103F90007B712B23BB715723FB7132233B7232237E
:103FA0007B723023BB723023FB723B7F3B737B7F82
:103FB0007B73BB7FBB73FB7FFB7320233B743B1D79
:103FC00003F10D023B1D0C21184600F073FA0D237E
:103FD0007B763B1D1621184600F046F9034618462D
:103FE0003837BD4680BD000080B58CB000AF0346B9
:103FF000FB8045233B7553237B752B23BB755723D0
:10400000FB7532233B7632237B763023BB76372316
:10401000FB7630233B7730237B773023BB7730230D
:10402000FB77FA8807F10C03104918460AF05AFC8E
:10403000FB683B62202387F8243007F1140303F167
:10404000110207F114031021184600F033FA0D2372
:1040500087F82D3007F114031A21184600F004F9EF
:10406000034618463037BD4680BD00BF700F0108BB
:104070002DE9F04387B000AF78600B46FB706B46CC
:104080001E46FB78612B01D901237BE0FB7803F10D
:1040900014014B1E3B610A460023904699464FF09F
:1040A00000024FF000034FEAC90343EA58734FEA96
:1040B000C8020A46002314461D464FF000024FF086
:1040C0000003EB0043EA5473E2000B460733DB08BE
:1040D000DB00ADEB030D6B460033FB60FB68452254
:1040E0001A70FB6853225A70FB682B229A70FB6887
:1040F0005722DA70FB6832221A71FB6832225A7139
:10410000FB6846229A71FB684222DA71FA7807F15D
:1041100008031F4918460AF0E5FBFB6808333A8993
:104120001A8000237B610AE07B697A681A447B6904
:104130000A331178FA68D1547B6901337B617B695A
:104140007A6813441B78002BEED17B690A33FA6836
:104150002021D1547B6903F10A017B690B33FA6892
:1041600013441A46F86800F0A5F9FB781333FA688F
:104170000D21D154FB781433DBB21946F86800F0F6
:1041800073F80346B54618461C37BD46BDE8F083B4
:10419000780F0108B0B588B000AF7860124B07F116
:1041A0000C041D460FCD0FC42B681A462280023422
:1041B0001B0C237007F10C0017231222796800F002
:1041C00015F80346FB777B681B784F2B04D17B687F
:1041D00001331B784B2B01D0012300E0FB7F1846F5
:1041E0002037BD46B0BD00BF800F010880B586B046
:1041F00000AFF860B96011461A460B46FB711346D2
:10420000BB71174B1B6840F6C411184607F01AF82B
:10421000FB799AB24FF47A73F968124804F089FB7B
:104220000346FB75FB7D002B06D00D4B1B68184623
:1042300007F058F8FB7D0FE0BB799AB24FF47A7320
:10424000B968084804F00EFC0346FB75044B1B6874
:10425000184607F047F8FB7D18461837BD4680BD65
:1042600030020020C006002080B584B000AF786026
:104270000B46FB701B4B1B6840F6C411184606F03A
:10428000E1FFFB789AB24FF47A737968164804F02C
:1042900050FB0346FB73FB7B002B06D0114B1B68C6
:1042A000184607F01FF8FB7B17E007F10C014FF4ED
:1042B0007A7302220C4804F0D5FB0346FB73094BCA
:1042C0001B68184607F00EF83B7B4F2B02D17B7B17
:1042D0004B2B01D0012300E0FB7B18461037BD4675
:1042E00080BD00BF30020020C00600200FB42DE9C1
:1042F000F04188B000AF6B4698464FF40073BB6145
:10430000BE693346013B7B61002334461D464FF0B6
:1043100000024FF00003EB0043EA5473E200002375
:10432000304619464FF000024FF00003CB0043EA3D
:104330005073C200F31DDB08DB00ADEB030D6B46D1
:1043400000333B6107F13C03BB60BB68BA6BB969E2
:1043500038690AF013FBF8600123FB77FB68002B38
:104360001BDDFB689AB24FF47A733969104804F088
:10437000E0FA0346FB770F4A3B1D1268114619808D
:104380000233120C1A70391D4FF47A730222084856
:1043900004F0CFFA0346FB7701E00123FB77FB7FB4
:1043A000C54618462037BD46BDE8F04104B0704709
:1043B000000700204C10010880B584B000AF786081
:1043C00039600023FB6016E00F4B5B690E4A43F037
:1043D000100353613B68184600F0DCF90A4B5B6937
:1043E000094A23F0100353613B68184600F0D2F9E4
:1043F000FB680133FB60FA687B689A42E4DB00BF2C
:1044000000BF1037BD4680BD0008024080B584B0B3
:1044100000AF786039600023FB6016E00F4B5B69EA
:104420000E4A43F0200353613B68184600F0B2F98E
:104430000A4B5B69094A23F0200353613B68184625
:1044400000F0A8F9FB680133FB60FA687B689A42C8
:10445000E4DB00BF00BF1037BD4680BD000802404E
:1044600080B485B000AF87ED010A3B1D1B68FB607F
:10447000FB681B0C9BB223F4FF4323F07F039AB22B
:10448000FB6803F0FF4303F148435B0B9BB203F46B
:10449000F8439BB213439AB2FB685B0B9BB2C3F326
:1044A00009039BB213439BB218461437BD465DF80F
:1044B000047B704780B58AB000AFF860B9607A605D
:1044C00000237B624FF0FF33FB6120E07B6AFA68D8
:1044D00013441B78BB61FA69BB695340FB61072336
:1044E0003B620EE0FB6903F001035B427B61FB6909
:1044F0005A0879690E4B0B405340FB613B6A013B04
:104500003B623B6A002BEDDA7B6A01337B627A6A9D
:10451000BB689A42DADBFB69DB43FB61FA69054958
:1045200078680AF0DFF9FB6918462837BD4680BD78
:104530002083B8EDA4100108B0B59AB000AF00F028
:10454000EDF805F0DFFD41F2707000F023F905F0A1
:104550005BFE05F0F5FF06F06BF806F03FF806F09D
:1045600091F806F01BF806F093F904222F49304821
:1045700004F01EFB04222D492E4804F019FB2E4B9B
:1045800007F154041D460FCD0FC42B68236007F1BB
:1045900054030021184606F00DFE284B07F1400495
:1045A0001D460FCD0FC42B68236007F14003002187
:1045B000184606F0FFFD224B07F12C041D460FCDD7
:1045C0000FC42B68236007F12C030021184606F066
:1045D000F1FD1C4B07F118041D460FCD0FC42B68CD
:1045E000236007F118030021184606F0E3FD164B7F
:1045F0003C1D1D460FCD0FC42B6823603B1D0021C1
:10460000184606F0D7FD06F0BEFD1048FFF76EFE17
:104610000F4B04221A6004220449054804F0C8FA2A
:10462000002318466837BD46B0BD00BF1802002001
:1046300000070020C0060020101101082411010805
:10464000381101084C11010860110108F01001082F
:104650002002002080B582B000AF78607B681B68C4
:10466000044A934201D100F07BF800BF0837BD46F1
:1046700080BD00BF0000014080B500AF4FF4FA617B
:104680000520FFF799FE4FF4FA610520FFF7BEFE03
:10469000F4E7000080B588B000AF78607B681C4A02
:1046A000934216D107F108031A491846FDF76AFD2F
:1046B00007F1080393E80700FEF740FD0346B3F156
:1046C000FF3F01D1FEF714FD04221249104804F007
:1046D0006FFA7B68104A934216D107F114030D4913
:1046E0001846FDF74FFD07F1140393E80700FEF7A6
:1046F00025FD0346B3F1FF3F01D1FEF7F9FC04228B
:104700000449054804F054FA00BF2037BD4680BD77
:104710000007002018020020C006002080B500AF6E
:104720000E4B1B680D4A43F4007313600B4B1B6860
:104730000A4A43F480631360084B1B68074A43F43A
:1047400080731360032000F00FF90F2006F094FB34
:1047500006F0B6F90023184680BD00BF003C0240B9
:1047600080B400AF044B1B680133034A136000BFE1
:10477000BD465DF8047B70475802002080B400AF4E
:10478000034B1B681846BD465DF8047B704700BFAD
:104790005802002080B584B000AF7860FFF7EEFFCC
:1047A000B8607B68FB60FB68B3F1FF3F02D0FB6839
:1047B0000133FB6000BFFFF7E1FF0246BB68D31A7D
:1047C000FA689A42F7D800BF00BF1037BD4680BDD7
:1047D00080B485B000AF78607B6803F00703FB60AE
:1047E0000C4BDB68BB60BA684FF6FF031340BB603D
:1047F000FB681A02BB68134343F0BF6343F4003302
:10480000BB60044ABB68D36000BF1437BD465DF887
:10481000047B704700ED00E080B400AF044BDB6820
:104820001B0A03F007031846BD465DF8047B70477A
:1048300000ED00E080B483B000AF0346FB71FB796C
:1048400003F01F02074997F907305B09012000FABE
:1048500002F241F8232000BF0C37BD465DF8047B0F
:10486000704700BF00E100E080B483B000AF0346B2
:104870003960FB7197F90730002B0BDA3B68DAB22D
:104880000C49FB7903F00F03043B1201D2B20B4435
:104890001A7609E03B68DAB2074997F90730120146
:1048A000D2B20B4483F8002300BF0C37BD465DF83D
:1048B000047B704700ED00E000E100E080B489B0C7
:1048C00000AFF860B9607A60FB6803F00703FB6132
:1048D000FB69C3F10703042B28BF0423BB61FB69F9
:1048E0000433062B02D9FB69033B00E000237B6104
:1048F0004FF0FF32BB6902FA03F3DA43BB681A4098
:104900007B699A404FF0FF317B6901FA03F3D94389
:104910007B680B40134318462437BD465DF8047B83
:104920007047000080B582B000AF78607B68013BC3
:10493000B3F1807F01D301230FE00A4A7B68013B7A
:1049400053600F214FF0FF30FFF78EFF054B002221
:104950009A60044B07221A60002318460837BD46A8
:1049600080BD00BF10E000E080B582B000AF78608D
:104970007868FFF72DFF00BF0837BD4680BD80B5C2
:1049800086B000AF0346B9607A60FB7300237B6199
:10499000FFF742FF78617A68B9687869FFF78EFFA0
:1049A000024697F90F3011461846FFF75DFF00BF2A
:1049B0001837BD4680BD80B582B000AF0346FB719D
:1049C00097F907301846FFF735FF00BF0837BD4697
:1049D00080BD80B582B000AF78607868FFF7A2FF35
:1049E000034618460837BD4680BD000080B483B03A
:1049F00000AF78607B68042B06D1094B1B68084A1E
:104A000043F00403136005E0054B1B68044A23F0E0
:104A10000403136000BF0C37BD465DF8047B70478C
:104A200010E000E080B483B000AF78607B6893F85A
:104A30003530DBB2022B04D07B6880225A6501231B
:104A40000CE07B68052283F835207B681B681A68B8
:104A50007B681B6822F001021A60002318460C379D
:104A6000BD465DF8047B704780B586B000AF7860C6
:104A70000023BB608E4B1B688E4AA2FB03239B0A5C
:104A80007B617B689B6D3B613B691B68FB607B685E
:104A9000DB6D08229A40FB681340002B1AD07B681C
:104AA0001B681B6803F00403002B13D07B681B6892
:104AB0001A687B681B6822F004021A607B68DB6D51
:104AC00008229A403B699A607B685B6D43F0010263
:104AD0007B685A657B68DB6D774A9A40FB681340B8
:104AE000002B12D07B681B685B6903F08003002BEE
:104AF0000BD07B68DB6D704A9A403B699A607B689B
:104B00005B6D43F002027B685A657B68DB6D6B4A24
:104B10009A40FB681340002B12D07B681B681B680F
:104B200003F00203002B0BD07B68DB6D634A9A40D5
:104B30003B699A607B685B6D43F004027B685A6551
:104B40007B68DB6D10229A40FB681340002B43D03A
:104B50007B681B681B6803F00803002B3CD07B6854
:104B6000DB6D10229A403B699A607B681B681B686A
:104B700003F48023002B18D07B681B681B6803F4A8
:104B80000023002B08D17B681B6C002B24D07B6892
:104B90001B6C786898471FE07B689B6C002B1BD0D0
:104BA0007B689B6C7868984716E07B681B681B687D
:104BB00003F48073002B07D17B681B681A687B683D
:104BC0001B6822F008021A607B681B6C002B03D064
:104BD0007B681B6C786898477B68DB6D20229A4065
:104BE000FB681340002B00F093807B681B681B68F8
:104BF00003F01003002B00F08B807B68DB6D20221C
:104C00009A403B699A607B6893F83530DBB2052B9C
:104C100037D17B681B681A687B681B6822F0160214
:104C20001A607B681B685A697B681B6822F08002E7
:104C30005A617B681B6C002B03D17B689B6C002B3B
:104C400007D07B681B681A687B681B6822F0080223
:104C50001A607B68DB6D3F229A403B699A607B68F3
:104C6000002283F834207B68012283F835207B689A
:104C70001B6D002B00F082807B681B6D7868984765
:104C80007CE07B681B681B6803F48023002B20D02A
:104C90007B681B681B6803F40023002B10D17B6822
:104CA0005B6C002B34D07B685B6C786898472FE096
:104CB00014000020B5814E1B01008000040080001C
:104CC0007B68DB6B002B23D07B68DB6B78689847B5
:104CD0001EE07B681B681B6803F48073002B0FD1F8
:104CE0007B681B681A687B681B6822F010021A60D8
:104CF0007B68002283F834207B68012283F835200A
:104D00007B68DB6B002B03D07B68DB6B7868984794
:104D10007B685B6D002B32D07B685B6D03F0010319
:104D2000002B22D07B68052283F835207B681B6826
:104D30001A687B681B6822F001021A60BB680133A5
:104D4000BB607A699A4207D37B681B681B6803F0D3
:104D50000103002BF2D100E000BF7B68002283F842
:104D600034207B68012283F835207B68DB6C002BC4
:104D700005D07B68DB6C7868984700E000BF183787
:104D8000BD4680BD80B489B000AF78603960002333
:104D90007B6100233B610023BB610023FB6177E162
:104DA0000122FB6902FA03F37B613B681B687A69A5
:104DB00013403B613A697B699A4240F066813B68E7
:104DC0005B68022B03D03B685B68122B23D1FB6925
:104DD000DA087B68083253F82230BB61FB6903F0C4
:104DE00007039B000F2202FA03F3DB43BA69134067
:104DF000BB613B681A69FB6903F007039B0002FA79
:104E000003F3BA691343BB61FB69DA087B680832B4
:104E1000B96943F822107B681B68BB61FB695B00C2
:104E2000032202FA03F3DB43BA691340BB613B6818
:104E30005B6803F00302FB695B0002FA03F3BA69E3
:104E40001343BB617B68BA691A603B685B68012BDE
:104E50000BD03B685B68022B07D03B685B68112B6B
:104E600003D03B685B68122B30D17B689B68BB61C9
:104E7000FB695B00032202FA03F3DB43BA691340C8
:104E8000BB613B68DA68FB695B0002FA03F3BA694D
:104E90001343BB617B68BA699A607B685B68BB61DE
:104EA0000122FB6902FA03F3DB43BA691340BB61D9
:104EB0003B685B681B0903F00102FB6902FA03F31C
:104EC000BA691343BB617B68BA695A607B68DB6867
:104ED000BB61FB695B00032202FA03F3DB43BA699F
:104EE0001340BB613B689A68FB695B0002FA03F3FD
:104EF000BA691343BB617B68BA69DA603B685B6877
:104F000003F08053002B00F0C0800023FB60664B51
:104F10005B6C654A43F480435364634B5B6C03F4FE
:104F20008043FB60FB68614AFB699B08023352F8CF
:104F30002330BB61FB6903F003039B000F2202FADD
:104F400003F3DB43BA691340BB617B68584A934261
:104F500037D07B68574A934231D07B68564A934298
:104F60002BD07B68554A934225D07B68544A9342A4
:104F70001FD07B68534A934219D07B68524A9342B0
:104F800013D07B68514A93420DD07B68504A9342BC
:104F900007D07B684F4A934201D1092312E00A23CC
:104FA00010E008230EE007230CE006230AE00523A7
:104FB00008E0042306E0032304E0022302E00123C7
:104FC00000E00023FA6902F0030292009340BA69FC
:104FD0001343BB613549FB699B080233BA6941F849
:104FE00023203D4B1B68BB613B69DB43BA6913401F
:104FF000BB613B685B6803F48033002B03D0BA6964
:105000003B691343BB61344ABB691360324B5B6835
:10501000BB613B69DB43BA691340BB613B685B68BA
:1050200003F40033002B03D0BA693B691343BB611F
:10503000294ABB695360284B9B68BB613B69DB43D2
:10504000BA691340BB613B685B6803F48013002BB3
:1050500003D0BA693B691343BB611F4ABB699360C4
:105060001D4BDB68BB613B69DB43BA691340BB6125
:105070003B685B6803F40013002B03D0BA693B69FB
:105080001343BB61144ABB69D360FB690133FB6105
:10509000FB690F2B7FF684AE00BF00BF2437BD46EF
:1050A0005DF8047B704700BF0038024000380140C3
:1050B000000002400004024000080240000C0240D0
:1050C000001002400014024000180240001C024080
:1050D0000020024000240240003C014080B483B024
:1050E00000AF78600B467B8013467B707B78002B8B
:1050F00003D07A887B689A6103E07B881A047B6816
:105100009A6100BF0C37BD465DF8047B7047000014
:1051100080B584B000AF78600023FB600023BB60E3
:105120007B68002B01D10123C9E07B6893F83D30F7
:10513000DBB2002B06D17B68002283F83C20786824
:1051400005F0F0FC7B68242283F83D207B681B6817
:105150001A687B681B6822F001021A6001F0E6FA07
:10516000B860BB68584AA2FB03239B0CFB607B68BA
:105170001B68FA685A607B685B68544A934202D89D
:10518000FB68013309E0FB684FF4967202FB03F3FE
:105190004F4AA2FB03239B0901337A68126813620A
:1051A0007B685B68494A934213D87B685B685B0005
:1051B000BA68B2FBF3F240F6FC731340002B06D042
:1051C0007B685B685B00BA68B2FBF3F345E00423DD
:1051D00043E07B689B68002B0FD17B685A681346BD
:1051E0005B001344BA68B2FBF3F3C3F30B03002B69
:1051F0000CBF01230023DBB210E07B685A68134622
:105200009B0013449A001344BA68B2FBF3F3C3F350
:105210000B03002B0CBF01230023DBB2002B01D0BA
:1052200001231AE07B689B68002B0AD17B685A68CF
:1052300013465B001344BA68B2FBF3F343F4004334
:105240000BE07B685A6813469B0013449A00134492
:10525000BA68B2FBF3F343F440437A681268D3614F
:105260007B68D9697B681A6A7B681B680A431A6085
:105270007B6819697B68DA687B681B680A439A60F7
:105280007B6859697B689A697B681B680A43DA60A6
:105290007B681B681A687B681B6842F001021A6011
:1052A0007B6800221A647B68202283F83D207B689B
:1052B00000221A637B68002283F83E2000231846F0
:1052C0001037BD4680BD00BF83DE1B43A0860100B2
:1052D000D34D621080B588B002AFF8607A601A468C
:1052E0000B467B8113463B8100237B61FFF746FA27
:1052F0007861FB6893F83D30DBB2202B40F0EE8004
:105300007B690093192301227749F86800F06CFC4F
:105310000346002B01D00223E1E0FB6893F83C3008
:10532000012B01D10223DAE0FB68012283F83C2043
:10533000FB681B681B6803F00103012B07D0FB68A7
:105340001B681A68FB681B6842F001021A60FB6860
:105350001B681A68FB681B6822F400621A60FB680D
:10536000212283F83D20FB68102283F83E20FB6851
:1053700000221A64FB687A685A62FB683A895A8587
:10538000FB685A4ADA62FB685B8D9AB2FB681A8541
:1053900079897B693A6AF86800F0DCFA0346002BE9
:1053A0000FD0FB681B6C042B05D1FB68002283F82F
:1053B0003C20012393E0FB68002283F83C20032378
:1053C0008DE000233B61FB681B685B693B61FB6808
:1053D0001B689B693B613B6966E07A69396AF868DA
:1053E00000F0C1FC0346002B0FD0FB681B6C042BA4
:1053F00009D1FB681B681A68FB681B6842F40072DD
:105400001A6001236BE0032369E0FB685B6A591CA7
:10541000FA6851621A78FB681B681A61FB685B8D39
:105420009BB2013B9AB2FB685A85FB681B8D013B1E
:105430009AB2FB681A85FB681B685B6903F004037A
:10544000042B19D1FB681B8D002B15D0FB685B6A00
:10545000591CFA6851621A78FB681B681A61FB686C
:105460005B8D9BB2013B9AB2FB685A85FB681B8D32
:10547000013B9AB2FB681A857A69396AF86800F0CC
:10548000AFFC0346002B0FD0FB681B6C042B09D12B
:10549000FB681B681A68FB681B6842F400721A609C
:1054A00001231CE003231AE0FB681B8D002B94D121
:1054B000FB681B681A68FB681B6842F400721A607C
:1054C000FB68202283F83D20FB68002283F83E2001
:1054D000FB68002283F83C20002300E002231846EA
:1054E0001837BD4680BD00BF020010000000FFFF5E
:1054F00080B58CB002AFF8607A601A460B467B81AB
:1055000013463B8100237B62FFF738F97862FB6822
:1055100093F83D30DBB2202B40F015827B6A00937C
:10552000192301228549F86800F05EFB0346002B31
:1055300001D0022308E2FB6893F83C30012B01D133
:10554000022301E2FB68012283F83C20FB681B6810
:105550001B6803F00103012B07D0FB681B681A6866
:10556000FB681B6842F001021A60FB681B681A683E
:10557000FB681B6822F400621A60FB68222283F831
:105580003D20FB68102283F83E20FB6800221A644D
:10559000FB687A685A62FB683A895A85FB68684AF0
:1055A000DA62FB685B8D9AB2FB681A8579897B6A3F
:1055B0003A6BF86800F050FA0346002B0FD0FB68F6
:1055C0001B6C042B05D1FB68002283F83C200123CF
:1055D000BAE1FB68002283F83C200323B4E1FB68B6
:1055E0001B8D002B13D100233B62FB681B685B699A
:1055F0003B62FB681B689B693B623B6AFB681B68FC
:105600001A68FB681B6842F400721A6088E1FB6844
:105610001B8D012B1BD1FB681B681A68FB681B687C
:1056200022F480621A600023FB61FB681B685B69DF
:10563000FB61FB681B689B69FB61FB69FB681B687E
:105640001A68FB681B6842F400721A6068E1FB6824
:105650001B8D022B1BD1FB681B681A68FB681B683B
:1056600022F480621A60FB681B681A68FB681B687A
:1056700042F400621A600023BB61FB681B685B692F
:10568000BB61FB681B689B69BB61BB6948E1FB6848
:105690001B681A68FB681B6842F480621A6000236A
:1056A0007B61FB681B685B697B61FB681B689B69AE
:1056B0007B617B6934E1FB681B8D032B00F2EB807F
:1056C000FB681B8D012B27D17A6A396BF86800F0D3
:1056D000C4FB0346002B07D0FB681B6C202B01D1B9
:1056E000032331E101232FE1FB681B681869FB6884
:1056F0005B6A591CFA685162C2B21A70FB681B8D52
:10570000013B9AB2FB681A85FB685B8D9BB2013B3B
:105710009AB2FB685A8503E1FB681B8D022B4AD1C4
:105720007B6A00933B6B00220649F86800F05CFA44
:105730000346002B08D0032306E100BF020010003F
:105740000000FFFF04000100FB681B681A68FB688B
:105750001B6842F400721A60FB681B681869FB68DA
:105760005B6A591CFA685162C2B21A70FB681B8DE1
:10577000013B9AB2FB681A85FB685B8D9BB2013BCB
:105780009AB2FB685A85FB681B681869FB685B6AFC
:10579000591CFA685162C2B21A70FB681B8D013B3A
:1057A0009AB2FB681A85FB685B8D9BB2013B9AB28B
:1057B000FB685A85B4E07B6A00933B6B0022644926
:1057C000F86800F011FA0346002B01D00323BBE078
:1057D000FB681B681A68FB681B6822F480621A6009
:1057E000FB681B681869FB685B6A591CFA685162A0
:1057F000C2B21A70FB681B8D013B9AB2FB681A8516
:10580000FB685B8D9BB2013B9AB2FB685A857B6A51
:1058100000933B6B00224E49F86800F0E5F903461F
:10582000002B01D003238FE0FB681B681A68FB681C
:105830001B6842F400721A60FB681B681869FB68F9
:105840005B6A591CFA685162C2B21A70FB681B8D00
:10585000013B9AB2FB681A85FB685B8D9BB2013BEA
:105860009AB2FB685A85FB681B681869FB685B6A1B
:10587000591CFA685162C2B21A70FB681B8D013B59
:105880009AB2FB681A85FB685B8D9BB2013B9AB2AA
:10589000FB685A8544E07A6A396BF86800F0DDFAF3
:1058A0000346002B07D0FB681B6C202B01D1032380
:1058B0004AE0012348E0FB681B681869FB685B6AE3
:1058C000591CFA685162C2B21A70FB681B8D013B09
:1058D0009AB2FB681A85FB685B8D9BB2013B9AB25A
:1058E000FB685A85FB681B685B6903F00403042BA3
:1058F00016D1FB681B681869FB685B6A591CFA685B
:105900005162C2B21A70FB681B8D013B9AB2FB68F0
:105910001A85FB685B8D9BB2013B9AB2FB685A8586
:10592000FB681B8D002B7FF4C6AEFB68202283F83A
:105930003D20FB68002283F83E20FB68002283F8AC
:105940003C20002300E0022318462837BD4680BDD6
:105950000400010080B588B002AFF8607A603B6057
:105960000B467B81FB68DB6A7B617B69042B06D07D
:105970007B69012B03D07B6913F5803F08D1FB685D
:105980001B681A68FB681B6842F480721A600BE09F
:10599000FB681B6B122B07D1FB681B681A68FB683E
:1059A0001B6842F480721A603B6800937B68002297
:1059B0004FF00111F86800F017F90346002B01D0F1
:1059C000032341E0FB681B69B3F5804F08D17B8955
:1059D000DBB21A46FB681B6802F0FE021A6121E086
:1059E0007B89DB11DBB203F00603DBB263F00F034C
:1059F000DAB2FB681B681A613B687A681449F86878
:105A000000F043F90346002B07D0FB681B6C042B06
:105A100001D1012318E0032316E07B89DAB2FB6889
:105A20001B681A613B687A680A49F86800F02DF92A
:105A30000346002B07D0FB681B6C042B01D101230C
:105A400002E0032300E0002318461837BD4680BD5E
:105A5000080001000200010080B588B002AFF860C4
:105A60007A603B600B467B81FB68DB6A7B61FB688D
:105A70001B681A68FB681B6842F480621A607B69C5
:105A8000042B06D07B69012B03D07B6913F5803F83
:105A900008D1FB681B681A68FB681B6842F48072B7
:105AA0001A600BE0FB681B6B112B07D1FB681B68AE
:105AB0001A68FB681B6842F480721A603B680093A6
:105AC0007B6800224FF00111F86800F08DF8034662
:105AD000002B01D003237FE0FB681B69B3F5804FE7
